{
  "_format": "hh-sol-artifact-1",
  "contractName": "Testament",
  "sourceName": "contracts/Testament.sol",
  "abi": [
    {
      "inputs": [
        {
          "internalType": "address",
          "name": "_mailbox",
          "type": "address"
        }
      ],
      "stateMutability": "nonpayable",
      "type": "constructor"
    },
    {
      "anonymous": false,
      "inputs": [
        {
          "indexed": false,
          "internalType": "address",
          "name": "_hook",
          "type": "address"
        }
      ],
      "name": "HookSet",
      "type": "event"
    },
    {
      "anonymous": false,
      "inputs": [
        {
          "indexed": false,
          "internalType": "uint8",
          "name": "version",
          "type": "uint8"
        }
      ],
      "name": "Initialized",
      "type": "event"
    },
    {
      "anonymous": false,
      "inputs": [
        {
          "indexed": false,
          "internalType": "address",
          "name": "_ism",
          "type": "address"
        }
      ],
      "name": "IsmSet",
      "type": "event"
    },
    {
      "anonymous": false,
      "inputs": [
        {
          "indexed": true,
          "internalType": "address",
          "name": "previousOwner",
          "type": "address"
        },
        {
          "indexed": true,
          "internalType": "address",
          "name": "newOwner",
          "type": "address"
        }
      ],
      "name": "OwnershipTransferred",
      "type": "event"
    },
    {
      "anonymous": false,
      "inputs": [
        {
          "indexed": true,
          "internalType": "address",
          "name": "creator",
          "type": "address"
        }
      ],
      "name": "Seen",
      "type": "event"
    },
    {
      "anonymous": false,
      "inputs": [
        {
          "indexed": true,
          "internalType": "address",
          "name": "creator",
          "type": "address"
        }
      ],
      "name": "WillCreated",
      "type": "event"
    },
    {
      "inputs": [],
      "name": "PACKAGE_VERSION",
      "outputs": [
        {
          "internalType": "string",
          "name": "",
          "type": "string"
        }
      ],
      "stateMutability": "view",
      "type": "function"
    },
    {
      "inputs": [
        {
          "internalType": "address",
          "name": "",
          "type": "address"
        }
      ],
      "name": "_lastSeen",
      "outputs": [
        {
          "internalType": "uint256",
          "name": "",
          "type": "uint256"
        }
      ],
      "stateMutability": "view",
      "type": "function"
    },
    {
      "inputs": [
        {
          "internalType": "address",
          "name": "",
          "type": "address"
        }
      ],
      "name": "_metas",
      "outputs": [
        {
          "internalType": "uint256",
          "name": "longevity",
          "type": "uint256"
        }
      ],
      "stateMutability": "view",
      "type": "function"
    },
    {
      "inputs": [
        {
          "internalType": "string",
          "name": "willMessage",
          "type": "string"
        },
        {
          "components": [
            {
              "internalType": "address",
              "name": "heir",
              "type": "address"
            },
            {
              "internalType": "uint256",
              "name": "points",
              "type": "uint256"
            }
          ],
          "internalType": "struct Testament.Heir[]",
          "name": "heirs",
          "type": "tuple[]"
        },
        {
          "internalType": "uint256",
          "name": "longevity",
          "type": "uint256"
        }
      ],
      "name": "createWill",
      "outputs": [],
      "stateMutability": "nonpayable",
      "type": "function"
    },
    {
      "inputs": [],
      "name": "domains",
      "outputs": [
        {
          "internalType": "uint32[]",
          "name": "",
          "type": "uint32[]"
        }
      ],
      "stateMutability": "view",
      "type": "function"
    },
    {
      "inputs": [
        {
          "internalType": "uint32",
          "name": "_domain",
          "type": "uint32"
        },
        {
          "internalType": "bytes32",
          "name": "_router",
          "type": "bytes32"
        }
      ],
      "name": "enrollRemoteRouter",
      "outputs": [],
      "stateMutability": "nonpayable",
      "type": "function"
    },
    {
      "inputs": [
        {
          "internalType": "uint32[]",
          "name": "_domains",
          "type": "uint32[]"
        },
        {
          "internalType": "bytes32[]",
          "name": "_addresses",
          "type": "bytes32[]"
        }
      ],
      "name": "enrollRemoteRouters",
      "outputs": [],
      "stateMutability": "nonpayable",
      "type": "function"
    },
    {
      "inputs": [
        {
          "internalType": "address",
          "name": "owner",
          "type": "address"
        }
      ],
      "name": "getExpiry",
      "outputs": [
        {
          "internalType": "uint256",
          "name": "",
          "type": "uint256"
        }
      ],
      "stateMutability": "view",
      "type": "function"
    },
    {
      "inputs": [
        {
          "internalType": "address",
          "name": "owner",
          "type": "address"
        }
      ],
      "name": "getLastSeen",
      "outputs": [
        {
          "internalType": "uint256",
          "name": "",
          "type": "uint256"
        }
      ],
      "stateMutability": "view",
      "type": "function"
    },
    {
      "inputs": [
        {
          "internalType": "uint32",
          "name": "_origin",
          "type": "uint32"
        },
        {
          "internalType": "bytes32",
          "name": "_sender",
          "type": "bytes32"
        },
        {
          "internalType": "bytes",
          "name": "_message",
          "type": "bytes"
        }
      ],
      "name": "handle",
      "outputs": [],
      "stateMutability": "payable",
      "type": "function"
    },
    {
      "inputs": [],
      "name": "hook",
      "outputs": [
        {
          "internalType": "contract IPostDispatchHook",
          "name": "",
          "type": "address"
        }
      ],
      "stateMutability": "view",
      "type": "function"
    },
    {
      "inputs": [],
      "name": "interchainSecurityModule",
      "outputs": [
        {
          "internalType": "contract IInterchainSecurityModule",
          "name": "",
          "type": "address"
        }
      ],
      "stateMutability": "view",
      "type": "function"
    },
    {
      "inputs": [],
      "name": "localDomain",
      "outputs": [
        {
          "internalType": "uint32",
          "name": "",
          "type": "uint32"
        }
      ],
      "stateMutability": "view",
      "type": "function"
    },
    {
      "inputs": [],
      "name": "mailbox",
      "outputs": [
        {
          "internalType": "contract IMailbox",
          "name": "",
          "type": "address"
        }
      ],
      "stateMutability": "view",
      "type": "function"
    },
    {
      "inputs": [],
      "name": "owner",
      "outputs": [
        {
          "internalType": "address",
          "name": "",
          "type": "address"
        }
      ],
      "stateMutability": "view",
      "type": "function"
    },
    {
      "inputs": [],
      "name": "ping",
      "outputs": [],
      "stateMutability": "nonpayable",
      "type": "function"
    },
    {
      "inputs": [],
      "name": "renounceOwnership",
      "outputs": [],
      "stateMutability": "nonpayable",
      "type": "function"
    },
    {
      "inputs": [
        {
          "internalType": "address",
          "name": "creator",
          "type": "address"
        }
      ],
      "name": "revealWill",
      "outputs": [
        {
          "components": [
            {
              "internalType": "address",
              "name": "heir",
              "type": "address"
            },
            {
              "internalType": "uint256",
              "name": "points",
              "type": "uint256"
            }
          ],
          "internalType": "struct Testament.Heir[]",
          "name": "",
          "type": "tuple[]"
        },
        {
          "internalType": "uint256",
          "name": "",
          "type": "uint256"
        },
        {
          "internalType": "string",
          "name": "",
          "type": "string"
        }
      ],
      "stateMutability": "view",
      "type": "function"
    },
    {
      "inputs": [
        {
          "internalType": "uint32",
          "name": "_domain",
          "type": "uint32"
        }
      ],
      "name": "routers",
      "outputs": [
        {
          "internalType": "bytes32",
          "name": "",
          "type": "bytes32"
        }
      ],
      "stateMutability": "view",
      "type": "function"
    },
    {
      "inputs": [
        {
          "internalType": "address",
          "name": "_hook",
          "type": "address"
        }
      ],
      "name": "setHook",
      "outputs": [],
      "stateMutability": "nonpayable",
      "type": "function"
    },
    {
      "inputs": [
        {
          "internalType": "address",
          "name": "_module",
          "type": "address"
        }
      ],
      "name": "setInterchainSecurityModule",
      "outputs": [],
      "stateMutability": "nonpayable",
      "type": "function"
    },
    {
      "inputs": [
        {
          "internalType": "address",
          "name": "newOwner",
          "type": "address"
        }
      ],
      "name": "transferOwnership",
      "outputs": [],
      "stateMutability": "nonpayable",
      "type": "function"
    },
    {
      "inputs": [
        {
          "internalType": "uint32",
          "name": "_domain",
          "type": "uint32"
        }
      ],
      "name": "unenrollRemoteRouter",
      "outputs": [],
      "stateMutability": "nonpayable",
      "type": "function"
    },
    {
      "inputs": [
        {
          "internalType": "uint32[]",
          "name": "_domains",
          "type": "uint32[]"
        }
      ],
      "name": "unenrollRemoteRouters",
      "outputs": [],
      "stateMutability": "nonpayable",
      "type": "function"
    }
  ],
  "bytecode": "0x60c060405234801561001057600080fd5b50604051613e20380380613e208339818101604052810190610032919061048a565b8080806100448161017260201b60201c565b610083576040517f08c379a000000000000000000000000000000000000000000000000000000000815260040161007a90610514565b60405180910390fd5b8173ffffffffffffffffffffffffffffffffffffffff1660808173ffffffffffffffffffffffffffffffffffffffff168152505060805173ffffffffffffffffffffffffffffffffffffffff16638d3638f46040518163ffffffff1660e01b8152600401602060405180830381865afa158015610104573d6000803e3d6000fd5b505050506040513d601f19601f820116820180604052508101906101289190610570565b63ffffffff1660a08163ffffffff168152505061014a3361019560201b60201c565b50505061015c3361019560201b60201c565b61016c600061025b60201b60201c565b506106c5565b6000808273ffffffffffffffffffffffffffffffffffffffff163b119050919050565b6000603360009054906101000a900473ffffffffffffffffffffffffffffffffffffffff16905081603360006101000a81548173ffffffffffffffffffffffffffffffffffffffff021916908373ffffffffffffffffffffffffffffffffffffffff1602179055508173ffffffffffffffffffffffffffffffffffffffff168173ffffffffffffffffffffffffffffffffffffffff167f8be0079c531659141344cd1fd0a4f28419497f9722a3daafe3b4186f6b6457e060405160405180910390a35050565b8061026b8161017260201b60201c565b806102a25750600073ffffffffffffffffffffffffffffffffffffffff168173ffffffffffffffffffffffffffffffffffffffff16145b6102e1576040517f08c379a00000000000000000000000000000000000000000000000000000000081526004016102d89061060f565b60405180910390fd5b6102ef61036b60201b60201c565b81606560006101000a81548173ffffffffffffffffffffffffffffffffffffffff021916908373ffffffffffffffffffffffffffffffffffffffff1602179055507f4eab7b127c764308788622363ad3e9532de3dfba7845bd4f84c125a22544255a8260405161035f919061063e565b60405180910390a15050565b6103796103f560201b60201c565b73ffffffffffffffffffffffffffffffffffffffff1661039d6103fd60201b60201c565b73ffffffffffffffffffffffffffffffffffffffff16146103f3576040517f08c379a00000000000000000000000000000000000000000000000000000000081526004016103ea906106a5565b60405180910390fd5b565b600033905090565b6000603360009054906101000a900473ffffffffffffffffffffffffffffffffffffffff16905090565b600080fd5b600073ffffffffffffffffffffffffffffffffffffffff82169050919050565b60006104578261042c565b9050919050565b6104678161044c565b811461047257600080fd5b50565b6000815190506104848161045e565b92915050565b6000602082840312156104a05761049f610427565b5b60006104ae84828501610475565b91505092915050565b600082825260208201905092915050565b7f4d61696c626f78436c69656e743a20696e76616c6964206d61696c626f780000600082015250565b60006104fe601e836104b7565b9150610509826104c8565b602082019050919050565b6000602082019050818103600083015261052d816104f1565b9050919050565b600063ffffffff82169050919050565b61054d81610534565b811461055857600080fd5b50565b60008151905061056a81610544565b92915050565b60006020828403121561058657610585610427565b5b60006105948482850161055b565b91505092915050565b7f4d61696c626f78436c69656e743a20696e76616c696420636f6e74726163742060008201527f73657474696e6700000000000000000000000000000000000000000000000000602082015250565b60006105f96027836104b7565b91506106048261059d565b604082019050919050565b60006020820190508181036000830152610628816105ec565b9050919050565b6106388161044c565b82525050565b6000602082019050610653600083018461062f565b92915050565b7f4f776e61626c653a2063616c6c6572206973206e6f7420746865206f776e6572600082015250565b600061068f6020836104b7565b915061069a82610659565b602082019050919050565b600060208201905081810360008301526106be81610682565b9050919050565b60805160a0516137286106f86000396000610cef015260008181610a1501528181610dc20152611aec01526137286000f3fe60806040526004361061014b5760003560e01c80638d3638f4116100b6578063d5438eae1161006f578063d5438eae1461046f578063de523cf31461049a578063e723c9c0146104c5578063e9198bf914610504578063efae508a1461052d578063f2fde38b146105565761014b565b80638d3638f41461034b5780638da5cb5b1461037657806393c44847146103a157806397513690146103cc578063b49c53a714610409578063bf29f928146104325761014b565b80635c36b186116101085780635c36b1861461024f57806361b9457614610266578063715018a6146102a357806371a15b38146102ba578063726fb2a5146102e35780637f5a7c7b146103205761014b565b80630e72cc06146101505780632ead72f6146101795780633dfd3873146101b6578063440df4f4146101df578063520a9f3b1461020a57806356d5d47514610233575b600080fd5b34801561015c57600080fd5b506101776004803603810190610172919061207b565b61057f565b005b34801561018557600080fd5b506101a0600480360381019061019b91906120e4565b610683565b6040516101ad919061212a565b60405180910390f35b3480156101c257600080fd5b506101dd60048036038101906101d8919061207b565b6106ac565b005b3480156101eb57600080fd5b506101f46107b0565b6040516102019190612203565b60405180910390f35b34801561021657600080fd5b50610231600480360381019061022c9190612464565b6107c1565b005b61024d60048036038101906102489190612576565b610a13565b005b34801561025b57600080fd5b50610264610b03565b005b34801561027257600080fd5b5061028d6004803603810190610288919061207b565b610b0e565b60405161029a91906125f9565b60405180910390f35b3480156102af57600080fd5b506102b8610b57565b005b3480156102c657600080fd5b506102e160048036038101906102dc919061266a565b610b6b565b005b3480156102ef57600080fd5b5061030a6004803603810190610305919061207b565b610bd0565b60405161031791906125f9565b60405180910390f35b34801561032c57600080fd5b50610335610cc7565b6040516103429190612716565b60405180910390f35b34801561035757600080fd5b50610360610ced565b60405161036d9190612740565b60405180910390f35b34801561038257600080fd5b5061038b610d11565b604051610398919061276a565b60405180910390f35b3480156103ad57600080fd5b506103b6610d3b565b6040516103c39190612804565b60405180910390f35b3480156103d857600080fd5b506103f360048036038101906103ee919061207b565b610d74565b60405161040091906125f9565b60405180910390f35b34801561041557600080fd5b50610430600480360381019061042b9190612826565b610d8c565b005b34801561043e57600080fd5b506104596004803603810190610454919061207b565b610da2565b60405161046691906125f9565b60405180910390f35b34801561047b57600080fd5b50610484610dc0565b6040516104919190612887565b60405180910390f35b3480156104a657600080fd5b506104af610de4565b6040516104bc91906128c3565b60405180910390f35b3480156104d157600080fd5b506104ec60048036038101906104e7919061207b565b610e0a565b6040516104fb939291906129da565b60405180910390f35b34801561051057600080fd5b5061052b60048036038101906105269190612a75565b611125565b005b34801561053957600080fd5b50610554600480360381019061054f91906120e4565b6111ee565b005b34801561056257600080fd5b5061057d6004803603810190610578919061207b565b611202565b005b8061058981611285565b806105c05750600073ffffffffffffffffffffffffffffffffffffffff168173ffffffffffffffffffffffffffffffffffffffff16145b6105ff576040517f08c379a00000000000000000000000000000000000000000000000000000000081526004016105f690612b68565b60405180910390fd5b6106076112a8565b81606660006101000a81548173ffffffffffffffffffffffffffffffffffffffff021916908373ffffffffffffffffffffffffffffffffffffffff1602179055507fc47cbcc588c67679e52261c45cc315e56562f8d0ccaba16facb9093ff949879982604051610677919061276a565b60405180910390a15050565b6000806106a08363ffffffff16609761132690919063ffffffff16565b91505080915050919050565b806106b681611285565b806106ed5750600073ffffffffffffffffffffffffffffffffffffffff168173ffffffffffffffffffffffffffffffffffffffff16145b61072c576040517f08c379a000000000000000000000000000000000000000000000000000000000815260040161072390612b68565b60405180910390fd5b6107346112a8565b81606560006101000a81548173ffffffffffffffffffffffffffffffffffffffff021916908373ffffffffffffffffffffffffffffffffffffffff1602179055507f4eab7b127c764308788622363ad3e9532de3dfba7845bd4f84c125a22544255a826040516107a4919061276a565b60405180910390a15050565b60606107bc609761134d565b905090565b6107ca33611410565b60405180602001604052808281525060ca60003373ffffffffffffffffffffffffffffffffffffffff1673ffffffffffffffffffffffffffffffffffffffff16815260200190815260200160002060008201518160000155905050838360cd60003373ffffffffffffffffffffffffffffffffffffffff1673ffffffffffffffffffffffffffffffffffffffff1681526020019081526020016000209182610873929190612d95565b506000805b83518110156108b85783818151811061089457610893612e65565b5b602002602001015160200151826108ab9190612ec3565b9150806001019050610878565b50600060cb60003373ffffffffffffffffffffffffffffffffffffffff1673ffffffffffffffffffffffffffffffffffffffff16815260200190815260200160002090508181600101819055508060000160006109159190611f9f565b60005b84518110156109c7578160000185828151811061093857610937612e65565b5b6020026020010151908060018154018082558091505060019003906000526020600020906002020160009091909190915060008201518160000160006101000a81548173ffffffffffffffffffffffffffffffffffffffff021916908373ffffffffffffffffffffffffffffffffffffffff160217905550602082015181600101555050806001019050610918565b503373ffffffffffffffffffffffffffffffffffffffff167feeb70606d0471753bc0f18914e842c40fad1d77501bfb2c7c90df37f7cc1374f60405160405180910390a2505050505050565b7f000000000000000000000000000000000000000000000000000000000000000073ffffffffffffffffffffffffffffffffffffffff163373ffffffffffffffffffffffffffffffffffffffff1614610aa1576040517f08c379a0000000000000000000000000000000000000000000000000000000008152600401610a9890612f69565b60405180910390fd5b6000610aac8561149a565b9050838114610af0576040517f08c379a0000000000000000000000000000000000000000000000000000000008152600401610ae790612ffb565b60405180910390fd5b610afc85858585611517565b5050505050565b610b0c33611410565b565b600060cc60008373ffffffffffffffffffffffffffffffffffffffff1673ffffffffffffffffffffffffffffffffffffffff168152602001908152602001600020549050919050565b610b5f6112a8565b610b6960006116a3565b565b610b736112a8565b600082829050905060005b81811015610bca57610bb6848483818110610b9c57610b9b612e65565b5b9050602002016020810190610bb191906120e4565b611769565b600181610bc39190612ec3565b9050610b7e565b50505050565b60008060ca60008473ffffffffffffffffffffffffffffffffffffffff1673ffffffffffffffffffffffffffffffffffffffff16815260200190815260200160002060405180602001604052908160008201548152505090506000816000015111610c70576040517f08c379a0000000000000000000000000000000000000000000000000000000008152600401610c6790613067565b60405180910390fd5b806000015160cc60008573ffffffffffffffffffffffffffffffffffffffff1673ffffffffffffffffffffffffffffffffffffffff16815260200190815260200160002054610cbf9190612ec3565b915050919050565b606560009054906101000a900473ffffffffffffffffffffffffffffffffffffffff1681565b7f000000000000000000000000000000000000000000000000000000000000000081565b6000603360009054906101000a900473ffffffffffffffffffffffffffffffffffffffff16905090565b6040518060400160405280600581526020017f372e312e3400000000000000000000000000000000000000000000000000000081525081565b60cc6020528060005260406000206000915090505481565b610d946112a8565b610d9e82826117d1565b5050565b60ca6020528060005260406000206000915090508060000154905081565b7f000000000000000000000000000000000000000000000000000000000000000081565b606660009054906101000a900473ffffffffffffffffffffffffffffffffffffffff1681565b606060006060600060ca60008673ffffffffffffffffffffffffffffffffffffffff1673ffffffffffffffffffffffffffffffffffffffff16815260200190815260200160002060405180602001604052908160008201548152505090506000816000015111610eaf576040517f08c379a0000000000000000000000000000000000000000000000000000000008152600401610ea690613067565b60405180910390fd5b6000816000015160cc60008873ffffffffffffffffffffffffffffffffffffffff1673ffffffffffffffffffffffffffffffffffffffff16815260200190815260200160002054610f009190612ec3565b905080421015610f45576040517f08c379a0000000000000000000000000000000000000000000000000000000008152600401610f3c906130d3565b60405180910390fd5b600060cb60008873ffffffffffffffffffffffffffffffffffffffff1673ffffffffffffffffffffffffffffffffffffffff168152602001908152602001600020905080600001816001015460cd60008a73ffffffffffffffffffffffffffffffffffffffff1673ffffffffffffffffffffffffffffffffffffffff16815260200190815260200160002082805480602002602001604051908101604052809291908181526020016000905b8282101561108357838290600052602060002090600202016040518060400160405290816000820160009054906101000a900473ffffffffffffffffffffffffffffffffffffffff1673ffffffffffffffffffffffffffffffffffffffff1673ffffffffffffffffffffffffffffffffffffffff16815260200160018201548152505081526020019060010190610ff1565b50505050925080805461109590612bc2565b80601f01602080910402602001604051908101604052809291908181526020018280546110c190612bc2565b801561110e5780601f106110e35761010080835404028352916020019161110e565b820191906000526020600020905b8154815290600101906020018083116110f157829003601f168201915b505050505090509550955095505050509193909250565b61112d6112a8565b818190508484905014611175576040517f08c379a000000000000000000000000000000000000000000000000000000000815260040161116c9061313f565b60405180910390fd5b600084849050905060005b818110156111e6576111d286868381811061119e5761119d612e65565b5b90506020020160208101906111b391906120e4565b8585848181106111c6576111c5612e65565b5b905060200201356117d1565b6001816111df9190612ec3565b9050611180565b505050505050565b6111f66112a8565b6111ff81611769565b50565b61120a6112a8565b600073ffffffffffffffffffffffffffffffffffffffff168173ffffffffffffffffffffffffffffffffffffffff1603611279576040517f08c379a0000000000000000000000000000000000000000000000000000000008152600401611270906131d1565b60405180910390fd5b611282816116a3565b50565b6000808273ffffffffffffffffffffffffffffffffffffffff163b119050919050565b6112b06117f1565b73ffffffffffffffffffffffffffffffffffffffff166112ce610d11565b73ffffffffffffffffffffffffffffffffffffffff1614611324576040517f08c379a000000000000000000000000000000000000000000000000000000000815260040161131b9061323d565b60405180910390fd5b565b6000806113428360001b856000016117f990919063ffffffff16565b915091509250929050565b6060600061135a83611848565b9050805167ffffffffffffffff8111156113775761137661229b565b5b6040519080825280602002602001820160405280156113a55781602001602082028036833780820191505090505b50915060005b8151811015611409578181815181106113c7576113c6612e65565b5b60200260200101518382815181106113e2576113e1612e65565b5b602002602001019063ffffffff16908163ffffffff168152505080806001019150506113ab565b5050919050565b4260cc60008373ffffffffffffffffffffffffffffffffffffffff1673ffffffffffffffffffffffffffffffffffffffff168152602001908152602001600020819055508073ffffffffffffffffffffffffffffffffffffffff167fa8a4eb66b377d8f8786a05fcf52254c93c925d417dfc66a12a62bc66d37add0960405160405180910390a250565b60008060006114b98463ffffffff16609761132690919063ffffffff16565b9150915081156114cd578092505050611512565b6114d6846118ff565b6040517f08c379a00000000000000000000000000000000000000000000000000000000081526004016115099190612804565b60405180910390fd5b919050565b60008282810190611528919061329b565b9050600060ca60008373ffffffffffffffffffffffffffffffffffffffff1673ffffffffffffffffffffffffffffffffffffffff168152602001908152602001600020604051806020016040529081600082015481525050905060608060008084600001511180156115e85750836000015160cc60008773ffffffffffffffffffffffffffffffffffffffff1673ffffffffffffffffffffffffffffffffffffffff168152602001908152602001600020546115e49190612ec3565b4210155b90508061161b578483600060405160200161160593929190613310565b604051602081830303815290604052915061168d565b600060cb60008773ffffffffffffffffffffffffffffffffffffffff1673ffffffffffffffffffffffffffffffffffffffff16815260200190815260200160002090508581600001826001015460405160200161167a939291906134a2565b6040516020818303038152906040529250505b6116978983611936565b50505050505050505050565b6000603360009054906101000a900473ffffffffffffffffffffffffffffffffffffffff16905081603360006101000a81548173ffffffffffffffffffffffffffffffffffffffff021916908373ffffffffffffffffffffffffffffffffffffffff1602179055508173ffffffffffffffffffffffffffffffffffffffff168173ffffffffffffffffffffffffffffffffffffffff167f8be0079c531659141344cd1fd0a4f28419497f9722a3daafe3b4186f6b6457e060405160405180910390a35050565b6117838163ffffffff16609761197e90919063ffffffff16565b61178c826118ff565b906117cd576040517f08c379a00000000000000000000000000000000000000000000000000000000081526004016117c49190612804565b60405180910390fd5b5050565b6117ed8263ffffffff168260976119a19092919063ffffffff16565b5050565b600033905090565b60008060008460020160008581526020019081526020016000205490506000801b81036118385761182a85856119c2565b6000801b9250925050611841565b60018192509250505b9250929050565b60606000611858836000016119e2565b90508067ffffffffffffffff8111156118745761187361229b565b5b6040519080825280602002602001820160405280156118a25781602001602082028036833780820191505090505b50915060005b818110156118f8576118c981856000016000016119f790919063ffffffff16565b60001c8382815181106118df576118de612e65565b5b60200260200101818152505080806001019150506118a8565b5050919050565b60606119108263ffffffff16611a0e565b6040516020016119209190613542565b6040516020818303038152906040529050919050565b600061197683348460405180602001604052806000815250606560009054906101000a900473ffffffffffffffffffffffffffffffffffffffff16611adc565b905092915050565b60006119998260001b84600001611b9b90919063ffffffff16565b905092915050565b6119bc8260001b8285600001611bd49092919063ffffffff16565b50505050565b60006119da8284600001611c0f90919063ffffffff16565b905092915050565b60006119f082600001611c26565b9050919050565b6000611a068360000183611c3b565b905092915050565b606060006001611a1d84611c66565b01905060008167ffffffffffffffff811115611a3c57611a3b61229b565b5b6040519080825280601f01601f191660200182016040528015611a6e5781602001600182028036833780820191505090505b509050600082602001820190505b600115611ad1578080600190039150507f3031323334353637383961626364656600000000000000000000000000000000600a86061a8153600a8581611ac557611ac4613568565b5b04945060008503611a7c575b819350505050919050565b600080611ae88761149a565b90507f000000000000000000000000000000000000000000000000000000000000000073ffffffffffffffffffffffffffffffffffffffff166310b83dc08789848989896040518763ffffffff1660e01b8152600401611b4c9594939291906135ec565b60206040518083038185885af1158015611b6a573d6000803e3d6000fd5b50505050506040513d601f19601f82011682018060405250810190611b8f9190613662565b91505095945050505050565b600082600201600083815260200190815260200160002060009055611bcc8284600001611db990919063ffffffff16565b905092915050565b60008184600201600085815260200190815260200160002081905550611c068385600001611dd090919063ffffffff16565b90509392505050565b6000611c1e8360000183611de7565b905092915050565b6000611c3482600001611e0a565b9050919050565b6000826000018281548110611c5357611c52612e65565b5b9060005260206000200154905092915050565b600080600090507a184f03e93ff9f4daa797ed6e38ed64bf6a1f0100000000000000008310611cc4577a184f03e93ff9f4daa797ed6e38ed64bf6a1f0100000000000000008381611cba57611cb9613568565b5b0492506040810190505b6d04ee2d6d415b85acef81000000008310611d01576d04ee2d6d415b85acef81000000008381611cf757611cf6613568565b5b0492506020810190505b662386f26fc100008310611d3057662386f26fc100008381611d2657611d25613568565b5b0492506010810190505b6305f5e1008310611d59576305f5e1008381611d4f57611d4e613568565b5b0492506008810190505b6127108310611d7e576127108381611d7457611d73613568565b5b0492506004810190505b60648310611da15760648381611d9757611d96613568565b5b0492506002810190505b600a8310611db0576001810190505b80915050919050565b6000611dc88360000183611e1b565b905092915050565b6000611ddf8360000183611f2f565b905092915050565b600080836001016000848152602001908152602001600020541415905092915050565b600081600001805490509050919050565b60008083600101600084815260200190815260200160002054905060008114611f23576000600182611e4d919061368f565b9050600060018660000180549050611e65919061368f565b9050818114611ed4576000866000018281548110611e8657611e85612e65565b5b9060005260206000200154905080876000018481548110611eaa57611ea9612e65565b5b90600052602060002001819055508387600101600083815260200190815260200160002081905550505b85600001805480611ee857611ee76136c3565b5b600190038181906000526020600020016000905590558560010160008681526020019081526020016000206000905560019350505050611f29565b60009150505b92915050565b6000611f3b8383611de7565b611f94578260000182908060018154018082558091505060019003906000526020600020016000909190919091505582600001805490508360010160008481526020019081526020016000208190555060019050611f99565b600090505b92915050565b5080546000825560020290600052602060002090810190611fc09190611fc3565b50565b5b8082111561200557600080820160006101000a81549073ffffffffffffffffffffffffffffffffffffffff0219169055600182016000905550600201611fc4565b5090565b6000604051905090565b600080fd5b600080fd5b600073ffffffffffffffffffffffffffffffffffffffff82169050919050565b60006120488261201d565b9050919050565b6120588161203d565b811461206357600080fd5b50565b6000813590506120758161204f565b92915050565b60006020828403121561209157612090612013565b5b600061209f84828501612066565b91505092915050565b600063ffffffff82169050919050565b6120c1816120a8565b81146120cc57600080fd5b50565b6000813590506120de816120b8565b92915050565b6000602082840312156120fa576120f9612013565b5b6000612108848285016120cf565b91505092915050565b6000819050919050565b61212481612111565b82525050565b600060208201905061213f600083018461211b565b92915050565b600081519050919050565b600082825260208201905092915050565b6000819050602082019050919050565b61217a816120a8565b82525050565b600061218c8383612171565b60208301905092915050565b6000602082019050919050565b60006121b082612145565b6121ba8185612150565b93506121c583612161565b8060005b838110156121f65781516121dd8882612180565b97506121e883612198565b9250506001810190506121c9565b5085935050505092915050565b6000602082019050818103600083015261221d81846121a5565b905092915050565b600080fd5b600080fd5b600080fd5b60008083601f84011261224a57612249612225565b5b8235905067ffffffffffffffff8111156122675761226661222a565b5b6020830191508360018202830111156122835761228261222f565b5b9250929050565b6000601f19601f8301169050919050565b7f4e487b7100000000000000000000000000000000000000000000000000000000600052604160045260246000fd5b6122d38261228a565b810181811067ffffffffffffffff821117156122f2576122f161229b565b5b80604052505050565b6000612305612009565b905061231182826122ca565b919050565b600067ffffffffffffffff8211156123315761233061229b565b5b602082029050602081019050919050565b600080fd5b6000819050919050565b61235a81612347565b811461236557600080fd5b50565b60008135905061237781612351565b92915050565b60006040828403121561239357612392612342565b5b61239d60406122fb565b905060006123ad84828501612066565b60008301525060206123c184828501612368565b60208301525092915050565b60006123e06123db84612316565b6122fb565b905080838252602082019050604084028301858111156124035761240261222f565b5b835b8181101561242c5780612418888261237d565b845260208401935050604081019050612405565b5050509392505050565b600082601f83011261244b5761244a612225565b5b813561245b8482602086016123cd565b91505092915050565b6000806000806060858703121561247e5761247d612013565b5b600085013567ffffffffffffffff81111561249c5761249b612018565b5b6124a887828801612234565b9450945050602085013567ffffffffffffffff8111156124cb576124ca612018565b5b6124d787828801612436565b92505060406124e887828801612368565b91505092959194509250565b6124fd81612111565b811461250857600080fd5b50565b60008135905061251a816124f4565b92915050565b60008083601f84011261253657612535612225565b5b8235905067ffffffffffffffff8111156125535761255261222a565b5b60208301915083600182028301111561256f5761256e61222f565b5b9250929050565b600080600080606085870312156125905761258f612013565b5b600061259e878288016120cf565b94505060206125af8782880161250b565b935050604085013567ffffffffffffffff8111156125d0576125cf612018565b5b6125dc87828801612520565b925092505092959194509250565b6125f381612347565b82525050565b600060208201905061260e60008301846125ea565b92915050565b60008083601f84011261262a57612629612225565b5b8235905067ffffffffffffffff8111156126475761264661222a565b5b6020830191508360208202830111156126635761266261222f565b5b9250929050565b6000806020838503121561268157612680612013565b5b600083013567ffffffffffffffff81111561269f5761269e612018565b5b6126ab85828601612614565b92509250509250929050565b6000819050919050565b60006126dc6126d76126d28461201d565b6126b7565b61201d565b9050919050565b60006126ee826126c1565b9050919050565b6000612700826126e3565b9050919050565b612710816126f5565b82525050565b600060208201905061272b6000830184612707565b92915050565b61273a816120a8565b82525050565b60006020820190506127556000830184612731565b92915050565b6127648161203d565b82525050565b600060208201905061277f600083018461275b565b92915050565b600081519050919050565b600082825260208201905092915050565b60005b838110156127bf5780820151818401526020810190506127a4565b60008484015250505050565b60006127d682612785565b6127e08185612790565b93506127f08185602086016127a1565b6127f98161228a565b840191505092915050565b6000602082019050818103600083015261281e81846127cb565b905092915050565b6000806040838503121561283d5761283c612013565b5b600061284b858286016120cf565b925050602061285c8582860161250b565b9150509250929050565b6000612871826126e3565b9050919050565b61288181612866565b82525050565b600060208201905061289c6000830184612878565b92915050565b60006128ad826126e3565b9050919050565b6128bd816128a2565b82525050565b60006020820190506128d860008301846128b4565b92915050565b600081519050919050565b600082825260208201905092915050565b6000819050602082019050919050565b6129138161203d565b82525050565b61292281612347565b82525050565b60408201600082015161293e600085018261290a565b5060208201516129516020850182612919565b50505050565b60006129638383612928565b60408301905092915050565b6000602082019050919050565b6000612987826128de565b61299181856128e9565b935061299c836128fa565b8060005b838110156129cd5781516129b48882612957565b97506129bf8361296f565b9250506001810190506129a0565b5085935050505092915050565b600060608201905081810360008301526129f4818661297c565b9050612a0360208301856125ea565b8181036040830152612a1581846127cb565b9050949350505050565b60008083601f840112612a3557612a34612225565b5b8235905067ffffffffffffffff811115612a5257612a5161222a565b5b602083019150836020820283011115612a6e57612a6d61222f565b5b9250929050565b60008060008060408587031215612a8f57612a8e612013565b5b600085013567ffffffffffffffff811115612aad57612aac612018565b5b612ab987828801612614565b9450945050602085013567ffffffffffffffff811115612adc57612adb612018565b5b612ae887828801612a1f565b925092505092959194509250565b7f4d61696c626f78436c69656e743a20696e76616c696420636f6e74726163742060008201527f73657474696e6700000000000000000000000000000000000000000000000000602082015250565b6000612b52602783612790565b9150612b5d82612af6565b604082019050919050565b60006020820190508181036000830152612b8181612b45565b9050919050565b600082905092915050565b7f4e487b7100000000000000000000000000000000000000000000000000000000600052602260045260246000fd5b60006002820490506001821680612bda57607f821691505b602082108103612bed57612bec612b93565b5b50919050565b60008190508160005260206000209050919050565b60006020601f8301049050919050565b600082821b905092915050565b600060088302612c557fffffffffffffffffffffffffffffffffffffffffffffffffffffffffffffffff82612c18565b612c5f8683612c18565b95508019841693508086168417925050509392505050565b6000612c92612c8d612c8884612347565b6126b7565b612347565b9050919050565b6000819050919050565b612cac83612c77565b612cc0612cb882612c99565b848454612c25565b825550505050565b600090565b612cd5612cc8565b612ce0818484612ca3565b505050565b5b81811015612d0457612cf9600082612ccd565b600181019050612ce6565b5050565b601f821115612d4957612d1a81612bf3565b612d2384612c08565b81016020851015612d32578190505b612d46612d3e85612c08565b830182612ce5565b50505b505050565b600082821c905092915050565b6000612d6c60001984600802612d4e565b1980831691505092915050565b6000612d858383612d5b565b9150826002028217905092915050565b612d9f8383612b88565b67ffffffffffffffff811115612db857612db761229b565b5b612dc28254612bc2565b612dcd828285612d08565b6000601f831160018114612dfc5760008415612dea578287013590505b612df48582612d79565b865550612e5c565b601f198416612e0a86612bf3565b60005b82811015612e3257848901358255600182019150602085019450602081019050612e0d565b86831015612e4f5784890135612e4b601f891682612d5b565b8355505b6001600288020188555050505b50505050505050565b7f4e487b7100000000000000000000000000000000000000000000000000000000600052603260045260246000fd5b7f4e487b7100000000000000000000000000000000000000000000000000000000600052601160045260246000fd5b6000612ece82612347565b9150612ed983612347565b9250828201905080821115612ef157612ef0612e94565b5b92915050565b7f4d61696c626f78436c69656e743a2073656e646572206e6f74206d61696c626f60008201527f7800000000000000000000000000000000000000000000000000000000000000602082015250565b6000612f53602183612790565b9150612f5e82612ef7565b604082019050919050565b60006020820190508181036000830152612f8281612f46565b9050919050565b7f456e726f6c6c656420726f7574657220646f6573206e6f74206d61746368207360008201527f656e646572000000000000000000000000000000000000000000000000000000602082015250565b6000612fe5602583612790565b9150612ff082612f89565b604082019050919050565b6000602082019050818103600083015261301481612fd8565b9050919050565b7f57696c6c206e6f7420666f756e64000000000000000000000000000000000000600082015250565b6000613051600e83612790565b915061305c8261301b565b602082019050919050565b6000602082019050818103600083015261308081613044565b9050919050565b7f57696c6c206e6f742079657420617661696c61626c6500000000000000000000600082015250565b60006130bd601683612790565b91506130c882613087565b602082019050919050565b600060208201905081810360008301526130ec816130b0565b9050919050565b7f216c656e67746800000000000000000000000000000000000000000000000000600082015250565b6000613129600783612790565b9150613134826130f3565b602082019050919050565b600060208201905081810360008301526131588161311c565b9050919050565b7f4f776e61626c653a206e6577206f776e657220697320746865207a65726f206160008201527f6464726573730000000000000000000000000000000000000000000000000000602082015250565b60006131bb602683612790565b91506131c68261315f565b604082019050919050565b600060208201905081810360008301526131ea816131ae565b9050919050565b7f4f776e61626c653a2063616c6c6572206973206e6f7420746865206f776e6572600082015250565b6000613227602083612790565b9150613232826131f1565b602082019050919050565b600060208201905081810360008301526132568161321a565b9050919050565b60006132688261201d565b9050919050565b6132788161325d565b811461328357600080fd5b50565b6000813590506132958161326f565b92915050565b6000602082840312156132b1576132b0612013565b5b60006132bf84828501613286565b91505092915050565b6000819050919050565b600060ff82169050919050565b60006132fa6132f56132f0846132c8565b6126b7565b6132d2565b9050919050565b61330a816132df565b82525050565b6000606082019050613325600083018661275b565b8181036020830152613337818561297c565b90506133466040830184613301565b949350505050565b600081549050919050565b60008190508160005260206000209050919050565b60008160001c9050919050565b600073ffffffffffffffffffffffffffffffffffffffff82169050919050565b60006133ae6133a98361336e565b61337b565b9050919050565b6000819050919050565b60006133d26133cd8361336e565b6133b5565b9050919050565b6040820160008083015490506133ee8161339b565b6133fb600086018261290a565b506001830154905061340c816133bf565b6134196020860182612919565b5050505050565b600061342c83836133d9565b60408301905092915050565b6000600282019050919050565b60006134508261334e565b61345a81856128e9565b935061346583613359565b8060005b83811015613495578161347c8882613420565b975061348783613438565b925050600181019050613469565b5085935050505092915050565b60006060820190506134b7600083018661275b565b81810360208301526134c98185613445565b90506134d860408301846125ea565b949350505050565b7f4e6f20726f7574657220656e726f6c6c656420666f7220646f6d61696e3a2000815250565b600081905092915050565b600061351c82612785565b6135268185613506565b93506135368185602086016127a1565b80840191505092915050565b600061354d826134e0565b601f8201915061355d8284613511565b915081905092915050565b7f4e487b7100000000000000000000000000000000000000000000000000000000600052601260045260246000fd5b600081519050919050565b600082825260208201905092915050565b60006135be82613597565b6135c881856135a2565b93506135d88185602086016127a1565b6135e18161228a565b840191505092915050565b600060a0820190506136016000830188612731565b61360e602083018761211b565b818103604083015261362081866135b3565b9050818103606083015261363481856135b3565b90506136436080830184612707565b9695505050505050565b60008151905061365c816124f4565b92915050565b60006020828403121561367857613677612013565b5b60006136868482850161364d565b91505092915050565b600061369a82612347565b91506136a583612347565b92508282039050818111156136bd576136bc612e94565b5b92915050565b7f4e487b7100000000000000000000000000000000000000000000000000000000600052603160045260246000fdfea2646970667358221220ad1af546bbffc79836d147fca184e1544b305372604427df701d8e2610bd955064736f6c634300081c0033",
  "linkReferences": {},
  "deployedLinkReferences": {}
}