{
  "_format": "hh-sol-artifact-1",
  "contractName": "Testament",
  "sourceName": "contracts/Testament.sol",
  "abi": [
    {
      "inputs": [
        {
          "internalType": "address",
          "name": "_mailbox",
          "type": "address"
        }
      ],
      "stateMutability": "nonpayable",
      "type": "constructor"
    },
    {
      "anonymous": false,
      "inputs": [
        {
          "indexed": false,
          "internalType": "address",
          "name": "_hook",
          "type": "address"
        }
      ],
      "name": "HookSet",
      "type": "event"
    },
    {
      "anonymous": false,
      "inputs": [
        {
          "indexed": false,
          "internalType": "uint8",
          "name": "version",
          "type": "uint8"
        }
      ],
      "name": "Initialized",
      "type": "event"
    },
    {
      "anonymous": false,
      "inputs": [
        {
          "indexed": false,
          "internalType": "address",
          "name": "_ism",
          "type": "address"
        }
      ],
      "name": "IsmSet",
      "type": "event"
    },
    {
      "anonymous": false,
      "inputs": [
        {
          "indexed": true,
          "internalType": "address",
          "name": "previousOwner",
          "type": "address"
        },
        {
          "indexed": true,
          "internalType": "address",
          "name": "newOwner",
          "type": "address"
        }
      ],
      "name": "OwnershipTransferred",
      "type": "event"
    },
    {
      "anonymous": false,
      "inputs": [
        {
          "indexed": true,
          "internalType": "address",
          "name": "creator",
          "type": "address"
        }
      ],
      "name": "Seen",
      "type": "event"
    },
    {
      "anonymous": false,
      "inputs": [
        {
          "indexed": true,
          "internalType": "address",
          "name": "creator",
          "type": "address"
        }
      ],
      "name": "WillCreated",
      "type": "event"
    },
    {
      "inputs": [],
      "name": "PACKAGE_VERSION",
      "outputs": [
        {
          "internalType": "string",
          "name": "",
          "type": "string"
        }
      ],
      "stateMutability": "view",
      "type": "function"
    },
    {
      "inputs": [
        {
          "internalType": "address",
          "name": "",
          "type": "address"
        }
      ],
      "name": "_lastSeen",
      "outputs": [
        {
          "internalType": "uint256",
          "name": "",
          "type": "uint256"
        }
      ],
      "stateMutability": "view",
      "type": "function"
    },
    {
      "inputs": [
        {
          "internalType": "address",
          "name": "",
          "type": "address"
        }
      ],
      "name": "_metas",
      "outputs": [
        {
          "internalType": "uint256",
          "name": "longevity",
          "type": "uint256"
        }
      ],
      "stateMutability": "view",
      "type": "function"
    },
    {
      "inputs": [
        {
          "components": [
            {
              "internalType": "address",
              "name": "heir",
              "type": "address"
            },
            {
              "internalType": "uint256",
              "name": "points",
              "type": "uint256"
            }
          ],
          "internalType": "struct Testament.Heir[]",
          "name": "heirs",
          "type": "tuple[]"
        },
        {
          "internalType": "uint256",
          "name": "longevity",
          "type": "uint256"
        }
      ],
      "name": "createWill",
      "outputs": [],
      "stateMutability": "nonpayable",
      "type": "function"
    },
    {
      "inputs": [],
      "name": "domains",
      "outputs": [
        {
          "internalType": "uint32[]",
          "name": "",
          "type": "uint32[]"
        }
      ],
      "stateMutability": "view",
      "type": "function"
    },
    {
      "inputs": [
        {
          "internalType": "uint32",
          "name": "_domain",
          "type": "uint32"
        },
        {
          "internalType": "bytes32",
          "name": "_router",
          "type": "bytes32"
        }
      ],
      "name": "enrollRemoteRouter",
      "outputs": [],
      "stateMutability": "nonpayable",
      "type": "function"
    },
    {
      "inputs": [
        {
          "internalType": "uint32[]",
          "name": "_domains",
          "type": "uint32[]"
        },
        {
          "internalType": "bytes32[]",
          "name": "_addresses",
          "type": "bytes32[]"
        }
      ],
      "name": "enrollRemoteRouters",
      "outputs": [],
      "stateMutability": "nonpayable",
      "type": "function"
    },
    {
      "inputs": [
        {
          "internalType": "address",
          "name": "owner",
          "type": "address"
        }
      ],
      "name": "getLastSeen",
      "outputs": [
        {
          "internalType": "uint256",
          "name": "",
          "type": "uint256"
        }
      ],
      "stateMutability": "view",
      "type": "function"
    },
    {
      "inputs": [
        {
          "internalType": "uint32",
          "name": "_origin",
          "type": "uint32"
        },
        {
          "internalType": "bytes32",
          "name": "_sender",
          "type": "bytes32"
        },
        {
          "internalType": "bytes",
          "name": "_message",
          "type": "bytes"
        }
      ],
      "name": "handle",
      "outputs": [],
      "stateMutability": "payable",
      "type": "function"
    },
    {
      "inputs": [],
      "name": "hook",
      "outputs": [
        {
          "internalType": "contract IPostDispatchHook",
          "name": "",
          "type": "address"
        }
      ],
      "stateMutability": "view",
      "type": "function"
    },
    {
      "inputs": [],
      "name": "interchainSecurityModule",
      "outputs": [
        {
          "internalType": "contract IInterchainSecurityModule",
          "name": "",
          "type": "address"
        }
      ],
      "stateMutability": "view",
      "type": "function"
    },
    {
      "inputs": [],
      "name": "localDomain",
      "outputs": [
        {
          "internalType": "uint32",
          "name": "",
          "type": "uint32"
        }
      ],
      "stateMutability": "view",
      "type": "function"
    },
    {
      "inputs": [],
      "name": "mailbox",
      "outputs": [
        {
          "internalType": "contract IMailbox",
          "name": "",
          "type": "address"
        }
      ],
      "stateMutability": "view",
      "type": "function"
    },
    {
      "inputs": [],
      "name": "owner",
      "outputs": [
        {
          "internalType": "address",
          "name": "",
          "type": "address"
        }
      ],
      "stateMutability": "view",
      "type": "function"
    },
    {
      "inputs": [],
      "name": "ping",
      "outputs": [],
      "stateMutability": "nonpayable",
      "type": "function"
    },
    {
      "inputs": [],
      "name": "renounceOwnership",
      "outputs": [],
      "stateMutability": "nonpayable",
      "type": "function"
    },
    {
      "inputs": [
        {
          "internalType": "address",
          "name": "creator",
          "type": "address"
        }
      ],
      "name": "revealWill",
      "outputs": [
        {
          "components": [
            {
              "internalType": "address",
              "name": "heir",
              "type": "address"
            },
            {
              "internalType": "uint256",
              "name": "points",
              "type": "uint256"
            }
          ],
          "internalType": "struct Testament.Heir[]",
          "name": "",
          "type": "tuple[]"
        },
        {
          "internalType": "uint256",
          "name": "",
          "type": "uint256"
        }
      ],
      "stateMutability": "view",
      "type": "function"
    },
    {
      "inputs": [
        {
          "internalType": "uint32",
          "name": "_domain",
          "type": "uint32"
        }
      ],
      "name": "routers",
      "outputs": [
        {
          "internalType": "bytes32",
          "name": "",
          "type": "bytes32"
        }
      ],
      "stateMutability": "view",
      "type": "function"
    },
    {
      "inputs": [
        {
          "internalType": "address",
          "name": "_hook",
          "type": "address"
        }
      ],
      "name": "setHook",
      "outputs": [],
      "stateMutability": "nonpayable",
      "type": "function"
    },
    {
      "inputs": [
        {
          "internalType": "address",
          "name": "_module",
          "type": "address"
        }
      ],
      "name": "setInterchainSecurityModule",
      "outputs": [],
      "stateMutability": "nonpayable",
      "type": "function"
    },
    {
      "inputs": [
        {
          "internalType": "address",
          "name": "newOwner",
          "type": "address"
        }
      ],
      "name": "transferOwnership",
      "outputs": [],
      "stateMutability": "nonpayable",
      "type": "function"
    },
    {
      "inputs": [
        {
          "internalType": "uint32",
          "name": "_domain",
          "type": "uint32"
        }
      ],
      "name": "unenrollRemoteRouter",
      "outputs": [],
      "stateMutability": "nonpayable",
      "type": "function"
    },
    {
      "inputs": [
        {
          "internalType": "uint32[]",
          "name": "_domains",
          "type": "uint32[]"
        }
      ],
      "name": "unenrollRemoteRouters",
      "outputs": [],
      "stateMutability": "nonpayable",
      "type": "function"
    }
  ],
  "bytecode": "0x60c060405234801561001057600080fd5b506040516138403803806138408339818101604052810190610032919061048a565b8080806100448161017260201b60201c565b610083576040517f08c379a000000000000000000000000000000000000000000000000000000000815260040161007a90610514565b60405180910390fd5b8173ffffffffffffffffffffffffffffffffffffffff1660808173ffffffffffffffffffffffffffffffffffffffff168152505060805173ffffffffffffffffffffffffffffffffffffffff16638d3638f46040518163ffffffff1660e01b8152600401602060405180830381865afa158015610104573d6000803e3d6000fd5b505050506040513d601f19601f820116820180604052508101906101289190610570565b63ffffffff1660a08163ffffffff168152505061014a3361019560201b60201c565b50505061015c3361019560201b60201c565b61016c600061025b60201b60201c565b506106c5565b6000808273ffffffffffffffffffffffffffffffffffffffff163b119050919050565b6000603360009054906101000a900473ffffffffffffffffffffffffffffffffffffffff16905081603360006101000a81548173ffffffffffffffffffffffffffffffffffffffff021916908373ffffffffffffffffffffffffffffffffffffffff1602179055508173ffffffffffffffffffffffffffffffffffffffff168173ffffffffffffffffffffffffffffffffffffffff167f8be0079c531659141344cd1fd0a4f28419497f9722a3daafe3b4186f6b6457e060405160405180910390a35050565b8061026b8161017260201b60201c565b806102a25750600073ffffffffffffffffffffffffffffffffffffffff168173ffffffffffffffffffffffffffffffffffffffff16145b6102e1576040517f08c379a00000000000000000000000000000000000000000000000000000000081526004016102d89061060f565b60405180910390fd5b6102ef61036b60201b60201c565b81606560006101000a81548173ffffffffffffffffffffffffffffffffffffffff021916908373ffffffffffffffffffffffffffffffffffffffff1602179055507f4eab7b127c764308788622363ad3e9532de3dfba7845bd4f84c125a22544255a8260405161035f919061063e565b60405180910390a15050565b6103796103f560201b60201c565b73ffffffffffffffffffffffffffffffffffffffff1661039d6103fd60201b60201c565b73ffffffffffffffffffffffffffffffffffffffff16146103f3576040517f08c379a00000000000000000000000000000000000000000000000000000000081526004016103ea906106a5565b60405180910390fd5b565b600033905090565b6000603360009054906101000a900473ffffffffffffffffffffffffffffffffffffffff16905090565b600080fd5b600073ffffffffffffffffffffffffffffffffffffffff82169050919050565b60006104578261042c565b9050919050565b6104678161044c565b811461047257600080fd5b50565b6000815190506104848161045e565b92915050565b6000602082840312156104a05761049f610427565b5b60006104ae84828501610475565b91505092915050565b600082825260208201905092915050565b7f4d61696c626f78436c69656e743a20696e76616c6964206d61696c626f780000600082015250565b60006104fe601e836104b7565b9150610509826104c8565b602082019050919050565b6000602082019050818103600083015261052d816104f1565b9050919050565b600063ffffffff82169050919050565b61054d81610534565b811461055857600080fd5b50565b60008151905061056a81610544565b92915050565b60006020828403121561058657610585610427565b5b60006105948482850161055b565b91505092915050565b7f4d61696c626f78436c69656e743a20696e76616c696420636f6e74726163742060008201527f73657474696e6700000000000000000000000000000000000000000000000000602082015250565b60006105f96027836104b7565b91506106048261059d565b604082019050919050565b60006020820190508181036000830152610628816105ec565b9050919050565b6106388161044c565b82525050565b6000602082019050610653600083018461062f565b92915050565b7f4f776e61626c653a2063616c6c6572206973206e6f7420746865206f776e6572600082015250565b600061068f6020836104b7565b915061069a82610659565b602082019050919050565b600060208201905081810360008301526106be81610682565b9050919050565b60805160a0516131486106f86000396000610b5d01526000818161097a01528181610c30015261188801526131486000f3fe60806040526004361061013f5760003560e01c80638d3638f4116100b6578063d5438eae1161006f578063d5438eae14610426578063de523cf314610451578063e723c9c01461047c578063e9198bf9146104ba578063efae508a146104e3578063f2fde38b1461050c5761013f565b80638d3638f4146103025780638da5cb5b1461032d57806393c44847146103585780639751369014610383578063b49c53a7146103c0578063bf29f928146103e95761013f565b806356d5d4751161010857806356d5d475146102275780635c36b1861461024357806361b945761461025a578063715018a61461029757806371a15b38146102ae5780637f5a7c7b146102d75761013f565b80621aeba8146101445780630e72cc061461016d5780632ead72f6146101965780633dfd3873146101d3578063440df4f4146101fc575b600080fd5b34801561015057600080fd5b5061016b60048036038101906101669190611ffb565b610535565b005b34801561017957600080fd5b50610194600480360381019061018f9190612057565b610736565b005b3480156101a257600080fd5b506101bd60048036038101906101b891906120c0565b61083a565b6040516101ca9190612106565b60405180910390f35b3480156101df57600080fd5b506101fa60048036038101906101f59190612057565b610863565b005b34801561020857600080fd5b50610211610967565b60405161021e91906121df565b60405180910390f35b610241600480360381019061023c9190612288565b610978565b005b34801561024f57600080fd5b50610258610a68565b005b34801561026657600080fd5b50610281600480360381019061027c9190612057565b610a73565b60405161028e919061230b565b60405180910390f35b3480156102a357600080fd5b506102ac610abc565b005b3480156102ba57600080fd5b506102d560048036038101906102d0919061237c565b610ad0565b005b3480156102e357600080fd5b506102ec610b35565b6040516102f99190612428565b60405180910390f35b34801561030e57600080fd5b50610317610b5b565b6040516103249190612452565b60405180910390f35b34801561033957600080fd5b50610342610b7f565b60405161034f919061247c565b60405180910390f35b34801561036457600080fd5b5061036d610ba9565b60405161037a9190612516565b60405180910390f35b34801561038f57600080fd5b506103aa60048036038101906103a59190612057565b610be2565b6040516103b7919061230b565b60405180910390f35b3480156103cc57600080fd5b506103e760048036038101906103e29190612538565b610bfa565b005b3480156103f557600080fd5b50610410600480360381019061040b9190612057565b610c10565b60405161041d919061230b565b60405180910390f35b34801561043257600080fd5b5061043b610c2e565b6040516104489190612599565b60405180910390f35b34801561045d57600080fd5b50610466610c52565b60405161047391906125d5565b60405180910390f35b34801561048857600080fd5b506104a3600480360381019061049e9190612057565b610c78565b6040516104b19291906126ec565b60405180910390f35b3480156104c657600080fd5b506104e160048036038101906104dc9190612772565b610ec1565b005b3480156104ef57600080fd5b5061050a600480360381019061050591906120c0565b610f8a565b005b34801561051857600080fd5b50610533600480360381019061052e9190612057565b610f9e565b005b61053e33611021565b60405180602001604052808281525060ca60003373ffffffffffffffffffffffffffffffffffffffff1673ffffffffffffffffffffffffffffffffffffffff168152602001908152602001600020600082015181600001559050506000805b83518110156105dd578381815181106105b9576105b86127f3565b5b602002602001015160200151826105d09190612851565b915080600101905061059d565b50600060cb60003373ffffffffffffffffffffffffffffffffffffffff1673ffffffffffffffffffffffffffffffffffffffff168152602001908152602001600020905081816001018190555080600001600061063a9190611d3b565b60005b84518110156106ec578160000185828151811061065d5761065c6127f3565b5b6020026020010151908060018154018082558091505060019003906000526020600020906002020160009091909190915060008201518160000160006101000a81548173ffffffffffffffffffffffffffffffffffffffff021916908373ffffffffffffffffffffffffffffffffffffffff16021790555060208201518160010155505080600101905061063d565b503373ffffffffffffffffffffffffffffffffffffffff167feeb70606d0471753bc0f18914e842c40fad1d77501bfb2c7c90df37f7cc1374f60405160405180910390a250505050565b80610740816110ab565b806107775750600073ffffffffffffffffffffffffffffffffffffffff168173ffffffffffffffffffffffffffffffffffffffff16145b6107b6576040517f08c379a00000000000000000000000000000000000000000000000000000000081526004016107ad906128f7565b60405180910390fd5b6107be6110ce565b81606660006101000a81548173ffffffffffffffffffffffffffffffffffffffff021916908373ffffffffffffffffffffffffffffffffffffffff1602179055507fc47cbcc588c67679e52261c45cc315e56562f8d0ccaba16facb9093ff94987998260405161082e919061247c565b60405180910390a15050565b6000806108578363ffffffff16609761114c90919063ffffffff16565b91505080915050919050565b8061086d816110ab565b806108a45750600073ffffffffffffffffffffffffffffffffffffffff168173ffffffffffffffffffffffffffffffffffffffff16145b6108e3576040517f08c379a00000000000000000000000000000000000000000000000000000000081526004016108da906128f7565b60405180910390fd5b6108eb6110ce565b81606560006101000a81548173ffffffffffffffffffffffffffffffffffffffff021916908373ffffffffffffffffffffffffffffffffffffffff1602179055507f4eab7b127c764308788622363ad3e9532de3dfba7845bd4f84c125a22544255a8260405161095b919061247c565b60405180910390a15050565b60606109736097611173565b905090565b7f000000000000000000000000000000000000000000000000000000000000000073ffffffffffffffffffffffffffffffffffffffff163373ffffffffffffffffffffffffffffffffffffffff1614610a06576040517f08c379a00000000000000000000000000000000000000000000000000000000081526004016109fd90612989565b60405180910390fd5b6000610a1185611236565b9050838114610a55576040517f08c379a0000000000000000000000000000000000000000000000000000000008152600401610a4c90612a1b565b60405180910390fd5b610a61858585856112b3565b5050505050565b610a7133611021565b565b600060cc60008373ffffffffffffffffffffffffffffffffffffffff1673ffffffffffffffffffffffffffffffffffffffff168152602001908152602001600020549050919050565b610ac46110ce565b610ace600061143f565b565b610ad86110ce565b600082829050905060005b81811015610b2f57610b1b848483818110610b0157610b006127f3565b5b9050602002016020810190610b1691906120c0565b611505565b600181610b289190612851565b9050610ae3565b50505050565b606560009054906101000a900473ffffffffffffffffffffffffffffffffffffffff1681565b7f000000000000000000000000000000000000000000000000000000000000000081565b6000603360009054906101000a900473ffffffffffffffffffffffffffffffffffffffff16905090565b6040518060400160405280600581526020017f372e312e3400000000000000000000000000000000000000000000000000000081525081565b60cc6020528060005260406000206000915090505481565b610c026110ce565b610c0c828261156d565b5050565b60ca6020528060005260406000206000915090508060000154905081565b7f000000000000000000000000000000000000000000000000000000000000000081565b606660009054906101000a900473ffffffffffffffffffffffffffffffffffffffff1681565b606060008060ca60008573ffffffffffffffffffffffffffffffffffffffff1673ffffffffffffffffffffffffffffffffffffffff16815260200190815260200160002060405180602001604052908160008201548152505090506000816000015111610d1a576040517f08c379a0000000000000000000000000000000000000000000000000000000008152600401610d1190612a87565b60405180910390fd5b6000816000015160cc60008773ffffffffffffffffffffffffffffffffffffffff1673ffffffffffffffffffffffffffffffffffffffff16815260200190815260200160002054610d6b9190612851565b905080421015610db0576040517f08c379a0000000000000000000000000000000000000000000000000000000008152600401610da790612af3565b60405180910390fd5b600060cb60008773ffffffffffffffffffffffffffffffffffffffff1673ffffffffffffffffffffffffffffffffffffffff168152602001908152602001600020905080600001816001015481805480602002602001604051908101604052809291908181526020016000905b82821015610eaf57838290600052602060002090600202016040518060400160405290816000820160009054906101000a900473ffffffffffffffffffffffffffffffffffffffff1673ffffffffffffffffffffffffffffffffffffffff1673ffffffffffffffffffffffffffffffffffffffff16815260200160018201548152505081526020019060010190610e1d565b50505050915094509450505050915091565b610ec96110ce565b818190508484905014610f11576040517f08c379a0000000000000000000000000000000000000000000000000000000008152600401610f0890612b5f565b60405180910390fd5b600084849050905060005b81811015610f8257610f6e868683818110610f3a57610f396127f3565b5b9050602002016020810190610f4f91906120c0565b858584818110610f6257610f616127f3565b5b9050602002013561156d565b600181610f7b9190612851565b9050610f1c565b505050505050565b610f926110ce565b610f9b81611505565b50565b610fa66110ce565b600073ffffffffffffffffffffffffffffffffffffffff168173ffffffffffffffffffffffffffffffffffffffff1603611015576040517f08c379a000000000000000000000000000000000000000000000000000000000815260040161100c90612bf1565b60405180910390fd5b61101e8161143f565b50565b4260cc60008373ffffffffffffffffffffffffffffffffffffffff1673ffffffffffffffffffffffffffffffffffffffff168152602001908152602001600020819055508073ffffffffffffffffffffffffffffffffffffffff167fa8a4eb66b377d8f8786a05fcf52254c93c925d417dfc66a12a62bc66d37add0960405160405180910390a250565b6000808273ffffffffffffffffffffffffffffffffffffffff163b119050919050565b6110d661158d565b73ffffffffffffffffffffffffffffffffffffffff166110f4610b7f565b73ffffffffffffffffffffffffffffffffffffffff161461114a576040517f08c379a000000000000000000000000000000000000000000000000000000000815260040161114190612c5d565b60405180910390fd5b565b6000806111688360001b8560000161159590919063ffffffff16565b915091509250929050565b60606000611180836115e4565b9050805167ffffffffffffffff81111561119d5761119c611dcf565b5b6040519080825280602002602001820160405280156111cb5781602001602082028036833780820191505090505b50915060005b815181101561122f578181815181106111ed576111ec6127f3565b5b6020026020010151838281518110611208576112076127f3565b5b602002602001019063ffffffff16908163ffffffff168152505080806001019150506111d1565b5050919050565b60008060006112558463ffffffff16609761114c90919063ffffffff16565b9150915081156112695780925050506112ae565b6112728461169b565b6040517f08c379a00000000000000000000000000000000000000000000000000000000081526004016112a59190612516565b60405180910390fd5b919050565b600082828101906112c49190612cbb565b9050600060ca60008373ffffffffffffffffffffffffffffffffffffffff1673ffffffffffffffffffffffffffffffffffffffff168152602001908152602001600020604051806020016040529081600082015481525050905060608060008084600001511180156113845750836000015160cc60008773ffffffffffffffffffffffffffffffffffffffff1673ffffffffffffffffffffffffffffffffffffffff168152602001908152602001600020546113809190612851565b4210155b9050806113b757848360006040516020016113a193929190612d30565b6040516020818303038152906040529150611429565b600060cb60008773ffffffffffffffffffffffffffffffffffffffff1673ffffffffffffffffffffffffffffffffffffffff16815260200190815260200160002090508581600001826001015460405160200161141693929190612ec2565b6040516020818303038152906040529250505b61143389836116d2565b50505050505050505050565b6000603360009054906101000a900473ffffffffffffffffffffffffffffffffffffffff16905081603360006101000a81548173ffffffffffffffffffffffffffffffffffffffff021916908373ffffffffffffffffffffffffffffffffffffffff1602179055508173ffffffffffffffffffffffffffffffffffffffff168173ffffffffffffffffffffffffffffffffffffffff167f8be0079c531659141344cd1fd0a4f28419497f9722a3daafe3b4186f6b6457e060405160405180910390a35050565b61151f8163ffffffff16609761171a90919063ffffffff16565b6115288261169b565b90611569576040517f08c379a00000000000000000000000000000000000000000000000000000000081526004016115609190612516565b60405180910390fd5b5050565b6115898263ffffffff1682609761173d9092919063ffffffff16565b5050565b600033905090565b60008060008460020160008581526020019081526020016000205490506000801b81036115d4576115c6858561175e565b6000801b92509250506115dd565b60018192509250505b9250929050565b606060006115f48360000161177e565b90508067ffffffffffffffff8111156116105761160f611dcf565b5b60405190808252806020026020018201604052801561163e5781602001602082028036833780820191505090505b50915060005b8181101561169457611665818560000160000161179390919063ffffffff16565b60001c83828151811061167b5761167a6127f3565b5b6020026020010181815250508080600101915050611644565b5050919050565b60606116ac8263ffffffff166117aa565b6040516020016116bc9190612f62565b6040516020818303038152906040529050919050565b600061171283348460405180602001604052806000815250606560009054906101000a900473ffffffffffffffffffffffffffffffffffffffff16611878565b905092915050565b60006117358260001b8460000161193790919063ffffffff16565b905092915050565b6117588260001b82856000016119709092919063ffffffff16565b50505050565b600061177682846000016119ab90919063ffffffff16565b905092915050565b600061178c826000016119c2565b9050919050565b60006117a283600001836119d7565b905092915050565b6060600060016117b984611a02565b01905060008167ffffffffffffffff8111156117d8576117d7611dcf565b5b6040519080825280601f01601f19166020018201604052801561180a5781602001600182028036833780820191505090505b509050600082602001820190505b60011561186d578080600190039150507f3031323334353637383961626364656600000000000000000000000000000000600a86061a8153600a858161186157611860612f88565b5b04945060008503611818575b819350505050919050565b60008061188487611236565b90507f000000000000000000000000000000000000000000000000000000000000000073ffffffffffffffffffffffffffffffffffffffff166310b83dc08789848989896040518763ffffffff1660e01b81526004016118e895949392919061300c565b60206040518083038185885af1158015611906573d6000803e3d6000fd5b50505050506040513d601f19601f8201168201806040525081019061192b9190613082565b91505095945050505050565b6000826002016000838152602001908152602001600020600090556119688284600001611b5590919063ffffffff16565b905092915050565b600081846002016000858152602001908152602001600020819055506119a28385600001611b6c90919063ffffffff16565b90509392505050565b60006119ba8360000183611b83565b905092915050565b60006119d082600001611ba6565b9050919050565b60008260000182815481106119ef576119ee6127f3565b5b9060005260206000200154905092915050565b600080600090507a184f03e93ff9f4daa797ed6e38ed64bf6a1f0100000000000000008310611a60577a184f03e93ff9f4daa797ed6e38ed64bf6a1f0100000000000000008381611a5657611a55612f88565b5b0492506040810190505b6d04ee2d6d415b85acef81000000008310611a9d576d04ee2d6d415b85acef81000000008381611a9357611a92612f88565b5b0492506020810190505b662386f26fc100008310611acc57662386f26fc100008381611ac257611ac1612f88565b5b0492506010810190505b6305f5e1008310611af5576305f5e1008381611aeb57611aea612f88565b5b0492506008810190505b6127108310611b1a576127108381611b1057611b0f612f88565b5b0492506004810190505b60648310611b3d5760648381611b3357611b32612f88565b5b0492506002810190505b600a8310611b4c576001810190505b80915050919050565b6000611b648360000183611bb7565b905092915050565b6000611b7b8360000183611ccb565b905092915050565b600080836001016000848152602001908152602001600020541415905092915050565b600081600001805490509050919050565b60008083600101600084815260200190815260200160002054905060008114611cbf576000600182611be991906130af565b9050600060018660000180549050611c0191906130af565b9050818114611c70576000866000018281548110611c2257611c216127f3565b5b9060005260206000200154905080876000018481548110611c4657611c456127f3565b5b90600052602060002001819055508387600101600083815260200190815260200160002081905550505b85600001805480611c8457611c836130e3565b5b600190038181906000526020600020016000905590558560010160008681526020019081526020016000206000905560019350505050611cc5565b60009150505b92915050565b6000611cd78383611b83565b611d30578260000182908060018154018082558091505060019003906000526020600020016000909190919091505582600001805490508360010160008481526020019081526020016000208190555060019050611d35565b600090505b92915050565b5080546000825560020290600052602060002090810190611d5c9190611d5f565b50565b5b80821115611da157600080820160006101000a81549073ffffffffffffffffffffffffffffffffffffffff0219169055600182016000905550600201611d60565b5090565b6000604051905090565b600080fd5b600080fd5b600080fd5b6000601f19601f8301169050919050565b7f4e487b7100000000000000000000000000000000000000000000000000000000600052604160045260246000fd5b611e0782611dbe565b810181811067ffffffffffffffff82111715611e2657611e25611dcf565b5b80604052505050565b6000611e39611da5565b9050611e458282611dfe565b919050565b600067ffffffffffffffff821115611e6557611e64611dcf565b5b602082029050602081019050919050565b600080fd5b600080fd5b600073ffffffffffffffffffffffffffffffffffffffff82169050919050565b6000611eab82611e80565b9050919050565b611ebb81611ea0565b8114611ec657600080fd5b50565b600081359050611ed881611eb2565b92915050565b6000819050919050565b611ef181611ede565b8114611efc57600080fd5b50565b600081359050611f0e81611ee8565b92915050565b600060408284031215611f2a57611f29611e7b565b5b611f346040611e2f565b90506000611f4484828501611ec9565b6000830152506020611f5884828501611eff565b60208301525092915050565b6000611f77611f7284611e4a565b611e2f565b90508083825260208201905060408402830185811115611f9a57611f99611e76565b5b835b81811015611fc35780611faf8882611f14565b845260208401935050604081019050611f9c565b5050509392505050565b600082601f830112611fe257611fe1611db9565b5b8135611ff2848260208601611f64565b91505092915050565b6000806040838503121561201257612011611daf565b5b600083013567ffffffffffffffff8111156120305761202f611db4565b5b61203c85828601611fcd565b925050602061204d85828601611eff565b9150509250929050565b60006020828403121561206d5761206c611daf565b5b600061207b84828501611ec9565b91505092915050565b600063ffffffff82169050919050565b61209d81612084565b81146120a857600080fd5b50565b6000813590506120ba81612094565b92915050565b6000602082840312156120d6576120d5611daf565b5b60006120e4848285016120ab565b91505092915050565b6000819050919050565b612100816120ed565b82525050565b600060208201905061211b60008301846120f7565b92915050565b600081519050919050565b600082825260208201905092915050565b6000819050602082019050919050565b61215681612084565b82525050565b6000612168838361214d565b60208301905092915050565b6000602082019050919050565b600061218c82612121565b612196818561212c565b93506121a18361213d565b8060005b838110156121d25781516121b9888261215c565b97506121c483612174565b9250506001810190506121a5565b5085935050505092915050565b600060208201905081810360008301526121f98184612181565b905092915050565b61220a816120ed565b811461221557600080fd5b50565b60008135905061222781612201565b92915050565b600080fd5b60008083601f84011261224857612247611db9565b5b8235905067ffffffffffffffff8111156122655761226461222d565b5b60208301915083600182028301111561228157612280611e76565b5b9250929050565b600080600080606085870312156122a2576122a1611daf565b5b60006122b0878288016120ab565b94505060206122c187828801612218565b935050604085013567ffffffffffffffff8111156122e2576122e1611db4565b5b6122ee87828801612232565b925092505092959194509250565b61230581611ede565b82525050565b600060208201905061232060008301846122fc565b92915050565b60008083601f84011261233c5761233b611db9565b5b8235905067ffffffffffffffff8111156123595761235861222d565b5b60208301915083602082028301111561237557612374611e76565b5b9250929050565b6000806020838503121561239357612392611daf565b5b600083013567ffffffffffffffff8111156123b1576123b0611db4565b5b6123bd85828601612326565b92509250509250929050565b6000819050919050565b60006123ee6123e96123e484611e80565b6123c9565b611e80565b9050919050565b6000612400826123d3565b9050919050565b6000612412826123f5565b9050919050565b61242281612407565b82525050565b600060208201905061243d6000830184612419565b92915050565b61244c81612084565b82525050565b60006020820190506124676000830184612443565b92915050565b61247681611ea0565b82525050565b6000602082019050612491600083018461246d565b92915050565b600081519050919050565b600082825260208201905092915050565b60005b838110156124d15780820151818401526020810190506124b6565b60008484015250505050565b60006124e882612497565b6124f281856124a2565b93506125028185602086016124b3565b61250b81611dbe565b840191505092915050565b6000602082019050818103600083015261253081846124dd565b905092915050565b6000806040838503121561254f5761254e611daf565b5b600061255d858286016120ab565b925050602061256e85828601612218565b9150509250929050565b6000612583826123f5565b9050919050565b61259381612578565b82525050565b60006020820190506125ae600083018461258a565b92915050565b60006125bf826123f5565b9050919050565b6125cf816125b4565b82525050565b60006020820190506125ea60008301846125c6565b92915050565b600081519050919050565b600082825260208201905092915050565b6000819050602082019050919050565b61262581611ea0565b82525050565b61263481611ede565b82525050565b604082016000820151612650600085018261261c565b506020820151612663602085018261262b565b50505050565b6000612675838361263a565b60408301905092915050565b6000602082019050919050565b6000612699826125f0565b6126a381856125fb565b93506126ae8361260c565b8060005b838110156126df5781516126c68882612669565b97506126d183612681565b9250506001810190506126b2565b5085935050505092915050565b60006040820190508181036000830152612706818561268e565b905061271560208301846122fc565b9392505050565b60008083601f84011261273257612731611db9565b5b8235905067ffffffffffffffff81111561274f5761274e61222d565b5b60208301915083602082028301111561276b5761276a611e76565b5b9250929050565b6000806000806040858703121561278c5761278b611daf565b5b600085013567ffffffffffffffff8111156127aa576127a9611db4565b5b6127b687828801612326565b9450945050602085013567ffffffffffffffff8111156127d9576127d8611db4565b5b6127e58782880161271c565b925092505092959194509250565b7f4e487b7100000000000000000000000000000000000000000000000000000000600052603260045260246000fd5b7f4e487b7100000000000000000000000000000000000000000000000000000000600052601160045260246000fd5b600061285c82611ede565b915061286783611ede565b925082820190508082111561287f5761287e612822565b5b92915050565b7f4d61696c626f78436c69656e743a20696e76616c696420636f6e74726163742060008201527f73657474696e6700000000000000000000000000000000000000000000000000602082015250565b60006128e16027836124a2565b91506128ec82612885565b604082019050919050565b60006020820190508181036000830152612910816128d4565b9050919050565b7f4d61696c626f78436c69656e743a2073656e646572206e6f74206d61696c626f60008201527f7800000000000000000000000000000000000000000000000000000000000000602082015250565b60006129736021836124a2565b915061297e82612917565b604082019050919050565b600060208201905081810360008301526129a281612966565b9050919050565b7f456e726f6c6c656420726f7574657220646f6573206e6f74206d61746368207360008201527f656e646572000000000000000000000000000000000000000000000000000000602082015250565b6000612a056025836124a2565b9150612a10826129a9565b604082019050919050565b60006020820190508181036000830152612a34816129f8565b9050919050565b7f57696c6c206e6f7420666f756e64000000000000000000000000000000000000600082015250565b6000612a71600e836124a2565b9150612a7c82612a3b565b602082019050919050565b60006020820190508181036000830152612aa081612a64565b9050919050565b7f57696c6c206e6f742079657420617661696c61626c6500000000000000000000600082015250565b6000612add6016836124a2565b9150612ae882612aa7565b602082019050919050565b60006020820190508181036000830152612b0c81612ad0565b9050919050565b7f216c656e67746800000000000000000000000000000000000000000000000000600082015250565b6000612b496007836124a2565b9150612b5482612b13565b602082019050919050565b60006020820190508181036000830152612b7881612b3c565b9050919050565b7f4f776e61626c653a206e6577206f776e657220697320746865207a65726f206160008201527f6464726573730000000000000000000000000000000000000000000000000000602082015250565b6000612bdb6026836124a2565b9150612be682612b7f565b604082019050919050565b60006020820190508181036000830152612c0a81612bce565b9050919050565b7f4f776e61626c653a2063616c6c6572206973206e6f7420746865206f776e6572600082015250565b6000612c476020836124a2565b9150612c5282612c11565b602082019050919050565b60006020820190508181036000830152612c7681612c3a565b9050919050565b6000612c8882611e80565b9050919050565b612c9881612c7d565b8114612ca357600080fd5b50565b600081359050612cb581612c8f565b92915050565b600060208284031215612cd157612cd0611daf565b5b6000612cdf84828501612ca6565b91505092915050565b6000819050919050565b600060ff82169050919050565b6000612d1a612d15612d1084612ce8565b6123c9565b612cf2565b9050919050565b612d2a81612cff565b82525050565b6000606082019050612d45600083018661246d565b8181036020830152612d57818561268e565b9050612d666040830184612d21565b949350505050565b600081549050919050565b60008190508160005260206000209050919050565b60008160001c9050919050565b600073ffffffffffffffffffffffffffffffffffffffff82169050919050565b6000612dce612dc983612d8e565b612d9b565b9050919050565b6000819050919050565b6000612df2612ded83612d8e565b612dd5565b9050919050565b604082016000808301549050612e0e81612dbb565b612e1b600086018261261c565b5060018301549050612e2c81612ddf565b612e39602086018261262b565b5050505050565b6000612e4c8383612df9565b60408301905092915050565b6000600282019050919050565b6000612e7082612d6e565b612e7a81856125fb565b9350612e8583612d79565b8060005b83811015612eb55781612e9c8882612e40565b9750612ea783612e58565b925050600181019050612e89565b5085935050505092915050565b6000606082019050612ed7600083018661246d565b8181036020830152612ee98185612e65565b9050612ef860408301846122fc565b949350505050565b7f4e6f20726f7574657220656e726f6c6c656420666f7220646f6d61696e3a2000815250565b600081905092915050565b6000612f3c82612497565b612f468185612f26565b9350612f568185602086016124b3565b80840191505092915050565b6000612f6d82612f00565b601f82019150612f7d8284612f31565b915081905092915050565b7f4e487b7100000000000000000000000000000000000000000000000000000000600052601260045260246000fd5b600081519050919050565b600082825260208201905092915050565b6000612fde82612fb7565b612fe88185612fc2565b9350612ff88185602086016124b3565b61300181611dbe565b840191505092915050565b600060a0820190506130216000830188612443565b61302e60208301876120f7565b81810360408301526130408186612fd3565b905081810360608301526130548185612fd3565b90506130636080830184612419565b9695505050505050565b60008151905061307c81612201565b92915050565b60006020828403121561309857613097611daf565b5b60006130a68482850161306d565b91505092915050565b60006130ba82611ede565b91506130c583611ede565b92508282039050818111156130dd576130dc612822565b5b92915050565b7f4e487b7100000000000000000000000000000000000000000000000000000000600052603160045260246000fdfea2646970667358221220470172454f48719a91d12adabecbffb09f8522d04a2ff02e97b8f45c0cce9c5d64736f6c634300081c0033",
  "linkReferences": {},
  "deployedLinkReferences": {}
}