{
  "_format": "hh-sol-artifact-1",
  "contractName": "Vault",
  "sourceName": "contracts/Vault.sol",
  "abi": [
    {
      "inputs": [
        {
          "internalType": "address",
          "name": "_mailbox",
          "type": "address"
        },
        {
          "internalType": "uint32",
          "name": "_testamentDomain",
          "type": "uint32"
        },
        {
          "internalType": "address",
          "name": "_testamentAddr",
          "type": "address"
        }
      ],
      "stateMutability": "nonpayable",
      "type": "constructor"
    },
    {
      "anonymous": false,
      "inputs": [
        {
          "indexed": false,
          "internalType": "address",
          "name": "_hook",
          "type": "address"
        }
      ],
      "name": "HookSet",
      "type": "event"
    },
    {
      "anonymous": false,
      "inputs": [
        {
          "indexed": false,
          "internalType": "uint8",
          "name": "version",
          "type": "uint8"
        }
      ],
      "name": "Initialized",
      "type": "event"
    },
    {
      "anonymous": false,
      "inputs": [
        {
          "indexed": false,
          "internalType": "address",
          "name": "_ism",
          "type": "address"
        }
      ],
      "name": "IsmSet",
      "type": "event"
    },
    {
      "anonymous": false,
      "inputs": [
        {
          "indexed": true,
          "internalType": "address",
          "name": "previousOwner",
          "type": "address"
        },
        {
          "indexed": true,
          "internalType": "address",
          "name": "newOwner",
          "type": "address"
        }
      ],
      "name": "OwnershipTransferred",
      "type": "event"
    },
    {
      "anonymous": false,
      "inputs": [
        {
          "indexed": true,
          "internalType": "address",
          "name": "creator",
          "type": "address"
        },
        {
          "indexed": false,
          "internalType": "bool",
          "name": "available",
          "type": "bool"
        }
      ],
      "name": "WillReceived",
      "type": "event"
    },
    {
      "inputs": [],
      "name": "HANDLE_GAS_AMOUNT",
      "outputs": [
        {
          "internalType": "uint256",
          "name": "",
          "type": "uint256"
        }
      ],
      "stateMutability": "view",
      "type": "function"
    },
    {
      "inputs": [],
      "name": "PACKAGE_VERSION",
      "outputs": [
        {
          "internalType": "string",
          "name": "",
          "type": "string"
        }
      ],
      "stateMutability": "view",
      "type": "function"
    },
    {
      "inputs": [
        {
          "internalType": "address",
          "name": "token",
          "type": "address"
        },
        {
          "internalType": "uint256",
          "name": "amount",
          "type": "uint256"
        }
      ],
      "name": "depositToken",
      "outputs": [],
      "stateMutability": "nonpayable",
      "type": "function"
    },
    {
      "inputs": [
        {
          "internalType": "address",
          "name": "creator",
          "type": "address"
        }
      ],
      "name": "distribute",
      "outputs": [],
      "stateMutability": "nonpayable",
      "type": "function"
    },
    {
      "inputs": [],
      "name": "domains",
      "outputs": [
        {
          "internalType": "uint32[]",
          "name": "",
          "type": "uint32[]"
        }
      ],
      "stateMutability": "view",
      "type": "function"
    },
    {
      "inputs": [
        {
          "internalType": "uint32",
          "name": "",
          "type": "uint32"
        },
        {
          "internalType": "bytes32",
          "name": "",
          "type": "bytes32"
        }
      ],
      "name": "enrollRemoteRouter",
      "outputs": [],
      "stateMutability": "pure",
      "type": "function"
    },
    {
      "inputs": [
        {
          "internalType": "uint32[]",
          "name": "_domains",
          "type": "uint32[]"
        },
        {
          "internalType": "bytes32[]",
          "name": "_addresses",
          "type": "bytes32[]"
        }
      ],
      "name": "enrollRemoteRouters",
      "outputs": [],
      "stateMutability": "nonpayable",
      "type": "function"
    },
    {
      "inputs": [
        {
          "internalType": "address",
          "name": "",
          "type": "address"
        }
      ],
      "name": "ethBalances",
      "outputs": [
        {
          "internalType": "uint256",
          "name": "",
          "type": "uint256"
        }
      ],
      "stateMutability": "view",
      "type": "function"
    },
    {
      "inputs": [
        {
          "internalType": "address",
          "name": "creator",
          "type": "address"
        }
      ],
      "name": "getBalance",
      "outputs": [
        {
          "internalType": "uint256",
          "name": "eth",
          "type": "uint256"
        },
        {
          "internalType": "address[]",
          "name": "tokens",
          "type": "address[]"
        },
        {
          "internalType": "uint256[]",
          "name": "amounts",
          "type": "uint256[]"
        }
      ],
      "stateMutability": "view",
      "type": "function"
    },
    {
      "inputs": [
        {
          "internalType": "uint32",
          "name": "_origin",
          "type": "uint32"
        },
        {
          "internalType": "bytes32",
          "name": "_sender",
          "type": "bytes32"
        },
        {
          "internalType": "bytes",
          "name": "_message",
          "type": "bytes"
        }
      ],
      "name": "handle",
      "outputs": [],
      "stateMutability": "payable",
      "type": "function"
    },
    {
      "inputs": [],
      "name": "hook",
      "outputs": [
        {
          "internalType": "contract IPostDispatchHook",
          "name": "",
          "type": "address"
        }
      ],
      "stateMutability": "view",
      "type": "function"
    },
    {
      "inputs": [],
      "name": "interchainSecurityModule",
      "outputs": [
        {
          "internalType": "contract IInterchainSecurityModule",
          "name": "",
          "type": "address"
        }
      ],
      "stateMutability": "view",
      "type": "function"
    },
    {
      "inputs": [
        {
          "internalType": "address",
          "name": "creator",
          "type": "address"
        }
      ],
      "name": "isWillAvailable",
      "outputs": [
        {
          "internalType": "bool",
          "name": "",
          "type": "bool"
        }
      ],
      "stateMutability": "view",
      "type": "function"
    },
    {
      "inputs": [],
      "name": "localDomain",
      "outputs": [
        {
          "internalType": "uint32",
          "name": "",
          "type": "uint32"
        }
      ],
      "stateMutability": "view",
      "type": "function"
    },
    {
      "inputs": [],
      "name": "mailbox",
      "outputs": [
        {
          "internalType": "contract IMailbox",
          "name": "",
          "type": "address"
        }
      ],
      "stateMutability": "view",
      "type": "function"
    },
    {
      "inputs": [],
      "name": "owner",
      "outputs": [
        {
          "internalType": "address",
          "name": "",
          "type": "address"
        }
      ],
      "stateMutability": "view",
      "type": "function"
    },
    {
      "inputs": [
        {
          "internalType": "address",
          "name": "creator",
          "type": "address"
        }
      ],
      "name": "quoteRequestWill",
      "outputs": [
        {
          "internalType": "uint256",
          "name": "",
          "type": "uint256"
        }
      ],
      "stateMutability": "view",
      "type": "function"
    },
    {
      "inputs": [],
      "name": "renounceOwnership",
      "outputs": [],
      "stateMutability": "nonpayable",
      "type": "function"
    },
    {
      "inputs": [
        {
          "internalType": "address",
          "name": "creator",
          "type": "address"
        }
      ],
      "name": "requestWill",
      "outputs": [],
      "stateMutability": "payable",
      "type": "function"
    },
    {
      "inputs": [
        {
          "internalType": "uint32",
          "name": "_domain",
          "type": "uint32"
        }
      ],
      "name": "routers",
      "outputs": [
        {
          "internalType": "bytes32",
          "name": "",
          "type": "bytes32"
        }
      ],
      "stateMutability": "view",
      "type": "function"
    },
    {
      "inputs": [
        {
          "internalType": "address",
          "name": "_hook",
          "type": "address"
        }
      ],
      "name": "setHook",
      "outputs": [],
      "stateMutability": "nonpayable",
      "type": "function"
    },
    {
      "inputs": [
        {
          "internalType": "address",
          "name": "_module",
          "type": "address"
        }
      ],
      "name": "setInterchainSecurityModule",
      "outputs": [],
      "stateMutability": "nonpayable",
      "type": "function"
    },
    {
      "inputs": [],
      "name": "testamentDomain",
      "outputs": [
        {
          "internalType": "uint32",
          "name": "",
          "type": "uint32"
        }
      ],
      "stateMutability": "view",
      "type": "function"
    },
    {
      "inputs": [
        {
          "internalType": "address",
          "name": "",
          "type": "address"
        },
        {
          "internalType": "address",
          "name": "",
          "type": "address"
        }
      ],
      "name": "tokenBalances",
      "outputs": [
        {
          "internalType": "uint256",
          "name": "",
          "type": "uint256"
        }
      ],
      "stateMutability": "view",
      "type": "function"
    },
    {
      "inputs": [
        {
          "internalType": "address",
          "name": "newOwner",
          "type": "address"
        }
      ],
      "name": "transferOwnership",
      "outputs": [],
      "stateMutability": "nonpayable",
      "type": "function"
    },
    {
      "inputs": [
        {
          "internalType": "uint32",
          "name": "_domain",
          "type": "uint32"
        }
      ],
      "name": "unenrollRemoteRouter",
      "outputs": [],
      "stateMutability": "nonpayable",
      "type": "function"
    },
    {
      "inputs": [
        {
          "internalType": "uint32[]",
          "name": "_domains",
          "type": "uint32[]"
        }
      ],
      "name": "unenrollRemoteRouters",
      "outputs": [],
      "stateMutability": "nonpayable",
      "type": "function"
    },
    {
      "inputs": [],
      "name": "withdraw",
      "outputs": [],
      "stateMutability": "nonpayable",
      "type": "function"
    },
    {
      "stateMutability": "payable",
      "type": "receive"
    }
  ],
  "bytecode": "0x60e060405234801561001057600080fd5b50604051614afb380380614afb83398181016040528101906100329190610637565b828080610044816101b160201b60201c565b610083576040517f08c379a000000000000000000000000000000000000000000000000000000000815260040161007a906106e7565b60405180910390fd5b8173ffffffffffffffffffffffffffffffffffffffff1660808173ffffffffffffffffffffffffffffffffffffffff168152505060805173ffffffffffffffffffffffffffffffffffffffff16638d3638f46040518163ffffffff1660e01b8152600401602060405180830381865afa158015610104573d6000803e3d6000fd5b505050506040513d601f19601f820116820180604052508101906101289190610707565b63ffffffff1660a08163ffffffff168152505061014a336101d460201b60201c565b50505061015c336101d460201b60201c565b61016c600061029a60201b60201c565b8163ffffffff1660c08163ffffffff16815250506101a9828273ffffffffffffffffffffffffffffffffffffffff1660001b6103aa60201b60201c565b50505061085c565b6000808273ffffffffffffffffffffffffffffffffffffffff163b119050919050565b6000603360009054906101000a900473ffffffffffffffffffffffffffffffffffffffff16905081603360006101000a81548173ffffffffffffffffffffffffffffffffffffffff021916908373ffffffffffffffffffffffffffffffffffffffff1602179055508173ffffffffffffffffffffffffffffffffffffffff168173ffffffffffffffffffffffffffffffffffffffff167f8be0079c531659141344cd1fd0a4f28419497f9722a3daafe3b4186f6b6457e060405160405180910390a35050565b806102aa816101b160201b60201c565b806102e15750600073ffffffffffffffffffffffffffffffffffffffff168173ffffffffffffffffffffffffffffffffffffffff16145b610320576040517f08c379a0000000000000000000000000000000000000000000000000000000008152600401610317906107a6565b60405180910390fd5b61032e6103ca60201b60201c565b81606560006101000a81548173ffffffffffffffffffffffffffffffffffffffff021916908373ffffffffffffffffffffffffffffffffffffffff1602179055507f4eab7b127c764308788622363ad3e9532de3dfba7845bd4f84c125a22544255a8260405161039e91906107d5565b60405180910390a15050565b6103c68263ffffffff1682609761045460201b9092919060201c565b5050565b6103d861047560201b60201c565b73ffffffffffffffffffffffffffffffffffffffff166103fc61047d60201b60201c565b73ffffffffffffffffffffffffffffffffffffffff1614610452576040517f08c379a00000000000000000000000000000000000000000000000000000000081526004016104499061083c565b60405180910390fd5b565b61046f8260001b82856000016104a760201b9092919060201c565b50505050565b600033905090565b6000603360009054906101000a900473ffffffffffffffffffffffffffffffffffffffff16905090565b600081846002016000858152602001908152602001600020819055506104d983856000016104e260201b90919060201c565b90509392505050565b60006104f783600001836104ff60201b60201c565b905092915050565b6000610511838361057560201b60201c565b61056a57826000018290806001815401808255809150506001900390600052602060002001600090919091909150558260000180549050836001016000848152602001908152602001600020819055506001905061056f565b600090505b92915050565b600080836001016000848152602001908152602001600020541415905092915050565b600080fd5b600073ffffffffffffffffffffffffffffffffffffffff82169050919050565b60006105c88261059d565b9050919050565b6105d8816105bd565b81146105e357600080fd5b50565b6000815190506105f5816105cf565b92915050565b600063ffffffff82169050919050565b610614816105fb565b811461061f57600080fd5b50565b6000815190506106318161060b565b92915050565b6000806000606084860312156106505761064f610598565b5b600061065e868287016105e6565b935050602061066f86828701610622565b9250506040610680868287016105e6565b9150509250925092565b600082825260208201905092915050565b7f4d61696c626f78436c69656e743a20696e76616c6964206d61696c626f780000600082015250565b60006106d1601e8361068a565b91506106dc8261069b565b602082019050919050565b60006020820190508181036000830152610700816106c4565b9050919050565b60006020828403121561071d5761071c610598565b5b600061072b84828501610622565b91505092915050565b7f4d61696c626f78436c69656e743a20696e76616c696420636f6e74726163742060008201527f73657474696e6700000000000000000000000000000000000000000000000000602082015250565b600061079060278361068a565b915061079b82610734565b604082019050919050565b600060208201905081810360008301526107bf81610783565b9050919050565b6107cf816105bd565b82525050565b60006020820190506107ea60008301846107c6565b92915050565b7f4f776e61626c653a2063616c6c6572206973206e6f7420746865206f776e6572600082015250565b600061082660208361068a565b9150610831826107f0565b602082019050919050565b6000602082019050818103600083015261085581610819565b9050919050565b60805160a05160c05161424d6108ae600039600081816108a80152818161115401526117f0015260006118dc0152600081816111780152818161199e015281816123760152612572015261424d6000f3fe6080604052600436106101bb5760003560e01c80636d6b3731116100ec578063b49c53a71161008a578063e9198bf911610064578063e9198bf91461062c578063efae508a14610655578063f2fde38b1461067e578063f8b2cb4f146106a757610217565b8063b49c53a7146105ad578063d5438eae146105d6578063de523cf31461060157610217565b80637f5a7c7b116100c65780637f5a7c7b146105015780638d3638f41461052c5780638da5cb5b1461055757806393c448471461058257610217565b80636d6b373114610484578063715018a6146104c157806371a15b38146104d857610217565b80633cfba0e3116101595780634dbf6c5a116101335780634dbf6c5a146103d75780635509d6e71461041457806356d5d4751461043f57806363453ae11461045b57610217565b80633cfba0e3146103465780633dfd387314610383578063440df4f4146103ac57610217565b80632ead72f6116101955780632ead72f61461028c578063338b5dea146102c95780633a7e2f53146102f25780633ccfd60b1461032f57610217565b80630e72cc061461021c57806312f76222146102455780631621ab161461027057610217565b36610217573460ca60003373ffffffffffffffffffffffffffffffffffffffff1673ffffffffffffffffffffffffffffffffffffffff168152602001908152602001600020600082825461020f9190612c60565b925050819055005b600080fd5b34801561022857600080fd5b50610243600480360381019061023e9190612d06565b6106e6565b005b34801561025157600080fd5b5061025a6107ea565b6040516102679190612d42565b60405180910390f35b61028a60048036038101906102859190612d06565b6107f0565b005b34801561029857600080fd5b506102b360048036038101906102ae9190612d99565b6108d2565b6040516102c09190612ddf565b60405180910390f35b3480156102d557600080fd5b506102f060048036038101906102eb9190612e26565b6108fb565b005b3480156102fe57600080fd5b5061031960048036038101906103149190612d06565b610b76565b6040516103269190612e81565b60405180910390f35b34801561033b57600080fd5b50610344610bcf565b005b34801561035257600080fd5b5061036d60048036038101906103689190612d06565b611000565b60405161037a9190612d42565b60405180910390f35b34801561038f57600080fd5b506103aa60048036038101906103a59190612d06565b611018565b005b3480156103b857600080fd5b506103c161111c565b6040516103ce9190612f5a565b60405180910390f35b3480156103e357600080fd5b506103fe60048036038101906103f99190612f7c565b61112d565b60405161040b9190612d42565b60405180910390f35b34801561042057600080fd5b50610429611152565b6040516104369190612fcb565b60405180910390f35b61045960048036038101906104549190613077565b611176565b005b34801561046757600080fd5b50610482600480360381019061047d9190612d06565b611266565b005b34801561049057600080fd5b506104ab60048036038101906104a69190612d06565b6117e9565b6040516104b89190612d42565b60405180910390f35b3480156104cd57600080fd5b506104d661183b565b005b3480156104e457600080fd5b506104ff60048036038101906104fa9190613141565b61184f565b005b34801561050d57600080fd5b506105166118b4565b60405161052391906131ed565b60405180910390f35b34801561053857600080fd5b506105416118da565b60405161054e9190612fcb565b60405180910390f35b34801561056357600080fd5b5061056c6118fe565b6040516105799190613217565b60405180910390f35b34801561058e57600080fd5b50610597611928565b6040516105a491906132c2565b60405180910390f35b3480156105b957600080fd5b506105d460048036038101906105cf91906132e4565b611961565b005b3480156105e257600080fd5b506105eb61199c565b6040516105f89190613345565b60405180910390f35b34801561060d57600080fd5b506106166119c0565b6040516106239190613381565b60405180910390f35b34801561063857600080fd5b50610653600480360381019061064e91906133f2565b6119e6565b005b34801561066157600080fd5b5061067c60048036038101906106779190612d99565b611aaf565b005b34801561068a57600080fd5b506106a560048036038101906106a09190612d06565b611ac3565b005b3480156106b357600080fd5b506106ce60048036038101906106c99190612d06565b611b46565b6040516106dd939291906135ef565b60405180910390f35b806106f081611d74565b806107275750600073ffffffffffffffffffffffffffffffffffffffff168173ffffffffffffffffffffffffffffffffffffffff16145b610766576040517f08c379a000000000000000000000000000000000000000000000000000000000815260040161075d906136a6565b60405180910390fd5b61076e611d97565b81606660006101000a81548173ffffffffffffffffffffffffffffffffffffffff021916908373ffffffffffffffffffffffffffffffffffffffff1602179055507fc47cbcc588c67679e52261c45cc315e56562f8d0ccaba16facb9093ff9498799826040516107de9190613217565b60405180910390a15050565b61c35081565b60cc60008273ffffffffffffffffffffffffffffffffffffffff1673ffffffffffffffffffffffffffffffffffffffff16815260200190815260200160002060020160009054906101000a900460ff1661087f576040517f08c379a000000000000000000000000000000000000000000000000000000000815260040161087690613712565b60405180910390fd5b6000816040516020016108929190613217565b60405160208183030381529060405290506108cd7f000000000000000000000000000000000000000000000000000000000000000082611e15565b505050565b6000806108ef8363ffffffff166097611e5d90919063ffffffff16565b91505080915050919050565b8173ffffffffffffffffffffffffffffffffffffffff166323b872dd3330846040518463ffffffff1660e01b815260040161093893929190613732565b6020604051808303816000875af1158015610957573d6000803e3d6000fd5b505050506040513d601f19601f8201168201806040525081019061097b9190613795565b6109ba576040517f08c379a00000000000000000000000000000000000000000000000000000000081526004016109b19061380e565b60405180910390fd5b600060cb60003373ffffffffffffffffffffffffffffffffffffffff1673ffffffffffffffffffffffffffffffffffffffff16815260200190815260200160002060008473ffffffffffffffffffffffffffffffffffffffff1673ffffffffffffffffffffffffffffffffffffffff1681526020019081526020016000205403610adf5760cd60003373ffffffffffffffffffffffffffffffffffffffff1673ffffffffffffffffffffffffffffffffffffffff168152602001908152602001600020829080600181540180825580915050600190039060005260206000200160009091909190916101000a81548173ffffffffffffffffffffffffffffffffffffffff021916908373ffffffffffffffffffffffffffffffffffffffff1602179055505b8060cb60003373ffffffffffffffffffffffffffffffffffffffff1673ffffffffffffffffffffffffffffffffffffffff16815260200190815260200160002060008473ffffffffffffffffffffffffffffffffffffffff1673ffffffffffffffffffffffffffffffffffffffff1681526020019081526020016000206000828254610b6b9190612c60565b925050819055505050565b600060cc60008373ffffffffffffffffffffffffffffffffffffffff1673ffffffffffffffffffffffffffffffffffffffff16815260200190815260200160002060020160009054906101000a900460ff169050919050565b6000339050600060cc60008373ffffffffffffffffffffffffffffffffffffffff1673ffffffffffffffffffffffffffffffffffffffff16815260200190815260200160002090508060020160009054906101000a900460ff1615610c69576040517f08c379a0000000000000000000000000000000000000000000000000000000008152600401610c60906138a0565b60405180910390fd5b600060ca60008473ffffffffffffffffffffffffffffffffffffffff1673ffffffffffffffffffffffffffffffffffffffff168152602001908152602001600020549050600060ca60008573ffffffffffffffffffffffffffffffffffffffff1673ffffffffffffffffffffffffffffffffffffffff168152602001908152602001600020819055506000811115610d43578273ffffffffffffffffffffffffffffffffffffffff166108fc829081150290604051600060405180830381858888f19350505050158015610d41573d6000803e3d6000fd5b505b600060cd60008573ffffffffffffffffffffffffffffffffffffffff1673ffffffffffffffffffffffffffffffffffffffff168152602001908152602001600020905060005b8180549050811015610fae576000828281548110610daa57610da96138c0565b5b9060005260206000200160009054906101000a900473ffffffffffffffffffffffffffffffffffffffff169050600060cb60008873ffffffffffffffffffffffffffffffffffffffff1673ffffffffffffffffffffffffffffffffffffffff16815260200190815260200160002060008373ffffffffffffffffffffffffffffffffffffffff1673ffffffffffffffffffffffffffffffffffffffff1681526020019081526020016000205490506000811115610fa157600060cb60008973ffffffffffffffffffffffffffffffffffffffff1673ffffffffffffffffffffffffffffffffffffffff16815260200190815260200160002060008473ffffffffffffffffffffffffffffffffffffffff1673ffffffffffffffffffffffffffffffffffffffff168152602001908152602001600020819055508173ffffffffffffffffffffffffffffffffffffffff1663a9059cbb88836040518363ffffffff1660e01b8152600401610f1e9291906138ef565b6020604051808303816000875af1158015610f3d573d6000803e3d6000fd5b505050506040513d601f19601f82011682018060405250810190610f619190613795565b610fa0576040517f08c379a0000000000000000000000000000000000000000000000000000000008152600401610f9790613964565b60405180910390fd5b5b5050806001019050610d89565b5060cd60008573ffffffffffffffffffffffffffffffffffffffff1673ffffffffffffffffffffffffffffffffffffffff1681526020019081526020016000206000610ffa9190612b7f565b50505050565b60ca6020528060005260406000206000915090505481565b8061102281611d74565b806110595750600073ffffffffffffffffffffffffffffffffffffffff168173ffffffffffffffffffffffffffffffffffffffff16145b611098576040517f08c379a000000000000000000000000000000000000000000000000000000000815260040161108f906136a6565b60405180910390fd5b6110a0611d97565b81606560006101000a81548173ffffffffffffffffffffffffffffffffffffffff021916908373ffffffffffffffffffffffffffffffffffffffff1602179055507f4eab7b127c764308788622363ad3e9532de3dfba7845bd4f84c125a22544255a826040516111109190613217565b60405180910390a15050565b60606111286097611e84565b905090565b60cb602052816000526040600020602052806000526040600020600091509150505481565b7f000000000000000000000000000000000000000000000000000000000000000081565b7f000000000000000000000000000000000000000000000000000000000000000073ffffffffffffffffffffffffffffffffffffffff163373ffffffffffffffffffffffffffffffffffffffff1614611204576040517f08c379a00000000000000000000000000000000000000000000000000000000081526004016111fb906139f6565b60405180910390fd5b600061120f85611f47565b9050838114611253576040517f08c379a000000000000000000000000000000000000000000000000000000000815260040161124a90613a88565b60405180910390fd5b61125f85858585611fc4565b5050505050565b600060cc60008373ffffffffffffffffffffffffffffffffffffffff1673ffffffffffffffffffffffffffffffffffffffff16815260200190815260200160002090508060020160009054906101000a900460ff166112fa576040517f08c379a00000000000000000000000000000000000000000000000000000000081526004016112f190613af4565b60405180910390fd5b600060ca60008473ffffffffffffffffffffffffffffffffffffffff1673ffffffffffffffffffffffffffffffffffffffff168152602001908152602001600020549050600060ca60008573ffffffffffffffffffffffffffffffffffffffff1673ffffffffffffffffffffffffffffffffffffffff1681526020019081526020016000208190555060008111156114805760005b826000018054905081101561147e57600083600101548460000183815481106113bb576113ba6138c0565b5b906000526020600020906002020160010154846113d89190613b14565b6113e29190613b85565b90508360000182815481106113fa576113f96138c0565b5b906000526020600020906002020160000160009054906101000a900473ffffffffffffffffffffffffffffffffffffffff1673ffffffffffffffffffffffffffffffffffffffff166108fc829081150290604051600060405180830381858888f19350505050158015611471573d6000803e3d6000fd5b505080600101905061138f565b505b600060cd60008573ffffffffffffffffffffffffffffffffffffffff1673ffffffffffffffffffffffffffffffffffffffff168152602001908152602001600020905060005b81805490508110156117975760008282815481106114e7576114e66138c0565b5b9060005260206000200160009054906101000a900473ffffffffffffffffffffffffffffffffffffffff169050600060cb60008873ffffffffffffffffffffffffffffffffffffffff1673ffffffffffffffffffffffffffffffffffffffff16815260200190815260200160002060008373ffffffffffffffffffffffffffffffffffffffff1673ffffffffffffffffffffffffffffffffffffffff168152602001908152602001600020549050600081111561178a57600060cb60008973ffffffffffffffffffffffffffffffffffffffff1673ffffffffffffffffffffffffffffffffffffffff16815260200190815260200160002060008473ffffffffffffffffffffffffffffffffffffffff1673ffffffffffffffffffffffffffffffffffffffff1681526020019081526020016000208190555060005b8660000180549050811015611788576000876001015488600001838154811061164f5761164e6138c0565b5b9060005260206000209060020201600101548461166c9190613b14565b6116769190613b85565b90508373ffffffffffffffffffffffffffffffffffffffff1663a9059cbb8960000184815481106116aa576116a96138c0565b5b906000526020600020906002020160000160009054906101000a900473ffffffffffffffffffffffffffffffffffffffff16836040518363ffffffff1660e01b81526004016116fa9291906138ef565b6020604051808303816000875af1158015611719573d6000803e3d6000fd5b505050506040513d601f19601f8201168201806040525081019061173d9190613795565b61177c576040517f08c379a00000000000000000000000000000000000000000000000000000000081526004016117739061380e565b60405180910390fd5b50806001019050611623565b505b50508060010190506114c6565b5060cd60008573ffffffffffffffffffffffffffffffffffffffff1673ffffffffffffffffffffffffffffffffffffffff16815260200190815260200160002060006117e39190612b7f565b50505050565b60006118347f0000000000000000000000000000000000000000000000000000000000000000836040516020016118209190613217565b6040516020818303038152906040526121c9565b9050919050565b611843611d97565b61184d6000612210565b565b611857611d97565b600082829050905060005b818110156118ae5761189a8484838181106118805761187f6138c0565b5b90506020020160208101906118959190612d99565b6122d6565b6001816118a79190612c60565b9050611862565b50505050565b606560009054906101000a900473ffffffffffffffffffffffffffffffffffffffff1681565b7f000000000000000000000000000000000000000000000000000000000000000081565b6000603360009054906101000a900473ffffffffffffffffffffffffffffffffffffffff16905090565b6040518060400160405280600581526020017f372e312e3400000000000000000000000000000000000000000000000000000081525081565b6040517f08c379a000000000000000000000000000000000000000000000000000000000815260040161199390613c28565b60405180910390fd5b7f000000000000000000000000000000000000000000000000000000000000000081565b606660009054906101000a900473ffffffffffffffffffffffffffffffffffffffff1681565b6119ee611d97565b818190508484905014611a36576040517f08c379a0000000000000000000000000000000000000000000000000000000008152600401611a2d90613c94565b60405180910390fd5b600084849050905060005b81811015611aa757611a93868683818110611a5f57611a5e6138c0565b5b9050602002016020810190611a749190612d99565b858584818110611a8757611a866138c0565b5b9050602002013561233e565b600181611aa09190612c60565b9050611a41565b505050505050565b611ab7611d97565b611ac0816122d6565b50565b611acb611d97565b600073ffffffffffffffffffffffffffffffffffffffff168173ffffffffffffffffffffffffffffffffffffffff1603611b3a576040517f08c379a0000000000000000000000000000000000000000000000000000000008152600401611b3190613d26565b60405180910390fd5b611b4381612210565b50565b600060608060ca60008573ffffffffffffffffffffffffffffffffffffffff1673ffffffffffffffffffffffffffffffffffffffff16815260200190815260200160002054925060cd60008573ffffffffffffffffffffffffffffffffffffffff1673ffffffffffffffffffffffffffffffffffffffff168152602001908152602001600020805480602002602001604051908101604052809291908181526020018280548015611c4c57602002820191906000526020600020905b8160009054906101000a900473ffffffffffffffffffffffffffffffffffffffff1673ffffffffffffffffffffffffffffffffffffffff1681526020019060010190808311611c02575b50505050509150815167ffffffffffffffff811115611c6e57611c6d613d46565b5b604051908082528060200260200182016040528015611c9c5781602001602082028036833780820191505090505b50905060005b8251811015611d6c5760cb60008673ffffffffffffffffffffffffffffffffffffffff1673ffffffffffffffffffffffffffffffffffffffff1681526020019081526020016000206000848381518110611cff57611cfe6138c0565b5b602002602001015173ffffffffffffffffffffffffffffffffffffffff1673ffffffffffffffffffffffffffffffffffffffff16815260200190815260200160002054828281518110611d5557611d546138c0565b5b602002602001018181525050806001019050611ca2565b509193909250565b6000808273ffffffffffffffffffffffffffffffffffffffff163b119050919050565b611d9f61235e565b73ffffffffffffffffffffffffffffffffffffffff16611dbd6118fe565b73ffffffffffffffffffffffffffffffffffffffff1614611e13576040517f08c379a0000000000000000000000000000000000000000000000000000000008152600401611e0a90613dc1565b60405180910390fd5b565b6000611e5583348460405180602001604052806000815250606560009054906101000a900473ffffffffffffffffffffffffffffffffffffffff16612366565b905092915050565b600080611e798360001b8560000161242590919063ffffffff16565b915091509250929050565b60606000611e9183612474565b9050805167ffffffffffffffff811115611eae57611ead613d46565b5b604051908082528060200260200182016040528015611edc5781602001602082028036833780820191505090505b50915060005b8151811015611f4057818181518110611efe57611efd6138c0565b5b6020026020010151838281518110611f1957611f186138c0565b5b602002602001019063ffffffff16908163ffffffff16815250508080600101915050611ee2565b5050919050565b6000806000611f668463ffffffff166097611e5d90919063ffffffff16565b915091508115611f7a578092505050611fbf565b611f838461252b565b6040517f08c379a0000000000000000000000000000000000000000000000000000000008152600401611fb691906132c2565b60405180910390fd5b919050565b60008060008484810190611fd89190613f83565b9250925092506000808211905080612042578373ffffffffffffffffffffffffffffffffffffffff167f0b863881f3fa0e42d1386f6601c4afdac31fb8f1078e53253bdd429748c32b2160006040516120319190612e81565b60405180910390a2505050506121c3565b600060cc60008673ffffffffffffffffffffffffffffffffffffffff1673ffffffffffffffffffffffffffffffffffffffff16815260200190815260200160002090508060000160006120959190612ba0565b82816001018190555060018160020160006101000a81548160ff02191690831515021790555060005b845181101561216d57816000018582815181106120de576120dd6138c0565b5b6020026020010151908060018154018082558091505060019003906000526020600020906002020160009091909190915060008201518160000160006101000a81548173ffffffffffffffffffffffffffffffffffffffff021916908373ffffffffffffffffffffffffffffffffffffffff1602179055506020820151816001015550508060010190506120be565b508473ffffffffffffffffffffffffffffffffffffffff167f0b863881f3fa0e42d1386f6601c4afdac31fb8f1078e53253bdd429748c32b2160016040516121b59190612e81565b60405180910390a250505050505b50505050565b6000612208838360405180602001604052806000815250606560009054906101000a900473ffffffffffffffffffffffffffffffffffffffff16612562565b905092915050565b6000603360009054906101000a900473ffffffffffffffffffffffffffffffffffffffff16905081603360006101000a81548173ffffffffffffffffffffffffffffffffffffffff021916908373ffffffffffffffffffffffffffffffffffffffff1602179055508173ffffffffffffffffffffffffffffffffffffffff168173ffffffffffffffffffffffffffffffffffffffff167f8be0079c531659141344cd1fd0a4f28419497f9722a3daafe3b4186f6b6457e060405160405180910390a35050565b6122f08163ffffffff16609761261d90919063ffffffff16565b6122f98261252b565b9061233a576040517f08c379a000000000000000000000000000000000000000000000000000000000815260040161233191906132c2565b60405180910390fd5b5050565b61235a8263ffffffff168260976126409092919063ffffffff16565b5050565b600033905090565b60008061237287611f47565b90507f000000000000000000000000000000000000000000000000000000000000000073ffffffffffffffffffffffffffffffffffffffff166310b83dc08789848989896040518763ffffffff1660e01b81526004016123d6959493929190614047565b60206040518083038185885af11580156123f4573d6000803e3d6000fd5b50505050506040513d601f19601f8201168201806040525081019061241991906140bd565b91505095945050505050565b60008060008460020160008581526020019081526020016000205490506000801b8103612464576124568585612661565b6000801b925092505061246d565b60018192509250505b9250929050565b6060600061248483600001612681565b90508067ffffffffffffffff8111156124a05761249f613d46565b5b6040519080825280602002602001820160405280156124ce5781602001602082028036833780820191505090505b50915060005b81811015612524576124f5818560000160000161269690919063ffffffff16565b60001c83828151811061250b5761250a6138c0565b5b60200260200101818152505080806001019150506124d4565b5050919050565b606061253c8263ffffffff166126ad565b60405160200161254c919061414c565b6040516020818303038152906040529050919050565b60008061256e86611f47565b90507f000000000000000000000000000000000000000000000000000000000000000073ffffffffffffffffffffffffffffffffffffffff166381d2ea9587838888886040518663ffffffff1660e01b81526004016125d1959493929190614047565b602060405180830381865afa1580156125ee573d6000803e3d6000fd5b505050506040513d601f19601f820116820180604052508101906126129190614187565b915050949350505050565b60006126388260001b8460000161277b90919063ffffffff16565b905092915050565b61265b8260001b82856000016127b49092919063ffffffff16565b50505050565b600061267982846000016127ef90919063ffffffff16565b905092915050565b600061268f82600001612806565b9050919050565b60006126a5836000018361281b565b905092915050565b6060600060016126bc84612846565b01905060008167ffffffffffffffff8111156126db576126da613d46565b5b6040519080825280601f01601f19166020018201604052801561270d5781602001600182028036833780820191505090505b509050600082602001820190505b600115612770578080600190039150507f3031323334353637383961626364656600000000000000000000000000000000600a86061a8153600a858161276457612763613b56565b5b0494506000850361271b575b819350505050919050565b6000826002016000838152602001908152602001600020600090556127ac828460000161299990919063ffffffff16565b905092915050565b600081846002016000858152602001908152602001600020819055506127e683856000016129b090919063ffffffff16565b90509392505050565b60006127fe83600001836129c7565b905092915050565b6000612814826000016129ea565b9050919050565b6000826000018281548110612833576128326138c0565b5b9060005260206000200154905092915050565b600080600090507a184f03e93ff9f4daa797ed6e38ed64bf6a1f01000000000000000083106128a4577a184f03e93ff9f4daa797ed6e38ed64bf6a1f010000000000000000838161289a57612899613b56565b5b0492506040810190505b6d04ee2d6d415b85acef810000000083106128e1576d04ee2d6d415b85acef810000000083816128d7576128d6613b56565b5b0492506020810190505b662386f26fc10000831061291057662386f26fc10000838161290657612905613b56565b5b0492506010810190505b6305f5e1008310612939576305f5e100838161292f5761292e613b56565b5b0492506008810190505b612710831061295e57612710838161295457612953613b56565b5b0492506004810190505b60648310612981576064838161297757612976613b56565b5b0492506002810190505b600a8310612990576001810190505b80915050919050565b60006129a883600001836129fb565b905092915050565b60006129bf8360000183612b0f565b905092915050565b600080836001016000848152602001908152602001600020541415905092915050565b600081600001805490509050919050565b60008083600101600084815260200190815260200160002054905060008114612b03576000600182612a2d91906141b4565b9050600060018660000180549050612a4591906141b4565b9050818114612ab4576000866000018281548110612a6657612a656138c0565b5b9060005260206000200154905080876000018481548110612a8a57612a896138c0565b5b90600052602060002001819055508387600101600083815260200190815260200160002081905550505b85600001805480612ac857612ac76141e8565b5b600190038181906000526020600020016000905590558560010160008681526020019081526020016000206000905560019350505050612b09565b60009150505b92915050565b6000612b1b83836129c7565b612b74578260000182908060018154018082558091505060019003906000526020600020016000909190919091505582600001805490508360010160008481526020019081526020016000208190555060019050612b79565b600090505b92915050565b5080546000825590600052602060002090810190612b9d9190612bc4565b50565b5080546000825560020290600052602060002090810190612bc19190612be1565b50565b5b80821115612bdd576000816000905550600101612bc5565b5090565b5b80821115612c2357600080820160006101000a81549073ffffffffffffffffffffffffffffffffffffffff0219169055600182016000905550600201612be2565b5090565b6000819050919050565b7f4e487b7100000000000000000000000000000000000000000000000000000000600052601160045260246000fd5b6000612c6b82612c27565b9150612c7683612c27565b9250828201905080821115612c8e57612c8d612c31565b5b92915050565b6000604051905090565b600080fd5b600080fd5b600073ffffffffffffffffffffffffffffffffffffffff82169050919050565b6000612cd382612ca8565b9050919050565b612ce381612cc8565b8114612cee57600080fd5b50565b600081359050612d0081612cda565b92915050565b600060208284031215612d1c57612d1b612c9e565b5b6000612d2a84828501612cf1565b91505092915050565b612d3c81612c27565b82525050565b6000602082019050612d576000830184612d33565b92915050565b600063ffffffff82169050919050565b612d7681612d5d565b8114612d8157600080fd5b50565b600081359050612d9381612d6d565b92915050565b600060208284031215612daf57612dae612c9e565b5b6000612dbd84828501612d84565b91505092915050565b6000819050919050565b612dd981612dc6565b82525050565b6000602082019050612df46000830184612dd0565b92915050565b612e0381612c27565b8114612e0e57600080fd5b50565b600081359050612e2081612dfa565b92915050565b60008060408385031215612e3d57612e3c612c9e565b5b6000612e4b85828601612cf1565b9250506020612e5c85828601612e11565b9150509250929050565b60008115159050919050565b612e7b81612e66565b82525050565b6000602082019050612e966000830184612e72565b92915050565b600081519050919050565b600082825260208201905092915050565b6000819050602082019050919050565b612ed181612d5d565b82525050565b6000612ee38383612ec8565b60208301905092915050565b6000602082019050919050565b6000612f0782612e9c565b612f118185612ea7565b9350612f1c83612eb8565b8060005b83811015612f4d578151612f348882612ed7565b9750612f3f83612eef565b925050600181019050612f20565b5085935050505092915050565b60006020820190508181036000830152612f748184612efc565b905092915050565b60008060408385031215612f9357612f92612c9e565b5b6000612fa185828601612cf1565b9250506020612fb285828601612cf1565b9150509250929050565b612fc581612d5d565b82525050565b6000602082019050612fe06000830184612fbc565b92915050565b612fef81612dc6565b8114612ffa57600080fd5b50565b60008135905061300c81612fe6565b92915050565b600080fd5b600080fd5b600080fd5b60008083601f84011261303757613036613012565b5b8235905067ffffffffffffffff81111561305457613053613017565b5b6020830191508360018202830111156130705761306f61301c565b5b9250929050565b6000806000806060858703121561309157613090612c9e565b5b600061309f87828801612d84565b94505060206130b087828801612ffd565b935050604085013567ffffffffffffffff8111156130d1576130d0612ca3565b5b6130dd87828801613021565b925092505092959194509250565b60008083601f84011261310157613100613012565b5b8235905067ffffffffffffffff81111561311e5761311d613017565b5b60208301915083602082028301111561313a5761313961301c565b5b9250929050565b6000806020838503121561315857613157612c9e565b5b600083013567ffffffffffffffff81111561317657613175612ca3565b5b613182858286016130eb565b92509250509250929050565b6000819050919050565b60006131b36131ae6131a984612ca8565b61318e565b612ca8565b9050919050565b60006131c582613198565b9050919050565b60006131d7826131ba565b9050919050565b6131e7816131cc565b82525050565b600060208201905061320260008301846131de565b92915050565b61321181612cc8565b82525050565b600060208201905061322c6000830184613208565b92915050565b600081519050919050565b600082825260208201905092915050565b60005b8381101561326c578082015181840152602081019050613251565b60008484015250505050565b6000601f19601f8301169050919050565b600061329482613232565b61329e818561323d565b93506132ae81856020860161324e565b6132b781613278565b840191505092915050565b600060208201905081810360008301526132dc8184613289565b905092915050565b600080604083850312156132fb576132fa612c9e565b5b600061330985828601612d84565b925050602061331a85828601612ffd565b9150509250929050565b600061332f826131ba565b9050919050565b61333f81613324565b82525050565b600060208201905061335a6000830184613336565b92915050565b600061336b826131ba565b9050919050565b61337b81613360565b82525050565b60006020820190506133966000830184613372565b92915050565b60008083601f8401126133b2576133b1613012565b5b8235905067ffffffffffffffff8111156133cf576133ce613017565b5b6020830191508360208202830111156133eb576133ea61301c565b5b9250929050565b6000806000806040858703121561340c5761340b612c9e565b5b600085013567ffffffffffffffff81111561342a57613429612ca3565b5b613436878288016130eb565b9450945050602085013567ffffffffffffffff81111561345957613458612ca3565b5b6134658782880161339c565b925092505092959194509250565b600081519050919050565b600082825260208201905092915050565b6000819050602082019050919050565b6134a881612cc8565b82525050565b60006134ba838361349f565b60208301905092915050565b6000602082019050919050565b60006134de82613473565b6134e8818561347e565b93506134f38361348f565b8060005b8381101561352457815161350b88826134ae565b9750613516836134c6565b9250506001810190506134f7565b5085935050505092915050565b600081519050919050565b600082825260208201905092915050565b6000819050602082019050919050565b61356681612c27565b82525050565b6000613578838361355d565b60208301905092915050565b6000602082019050919050565b600061359c82613531565b6135a6818561353c565b93506135b18361354d565b8060005b838110156135e25781516135c9888261356c565b97506135d483613584565b9250506001810190506135b5565b5085935050505092915050565b60006060820190506136046000830186612d33565b818103602083015261361681856134d3565b9050818103604083015261362a8184613591565b9050949350505050565b7f4d61696c626f78436c69656e743a20696e76616c696420636f6e74726163742060008201527f73657474696e6700000000000000000000000000000000000000000000000000602082015250565b600061369060278361323d565b915061369b82613634565b604082019050919050565b600060208201905081810360008301526136bf81613683565b9050919050565b7f57696c6c20616c72656164792072656365697665640000000000000000000000600082015250565b60006136fc60158361323d565b9150613707826136c6565b602082019050919050565b6000602082019050818103600083015261372b816136ef565b9050919050565b60006060820190506137476000830186613208565b6137546020830185613208565b6137616040830184612d33565b949350505050565b61377281612e66565b811461377d57600080fd5b50565b60008151905061378f81613769565b92915050565b6000602082840312156137ab576137aa612c9e565b5b60006137b984828501613780565b91505092915050565b7f5472616e73666572206661696c65640000000000000000000000000000000000600082015250565b60006137f8600f8361323d565b9150613803826137c2565b602082019050919050565b60006020820190508181036000830152613827816137eb565b9050919050565b7f43616e6e6f742077697468647261772061667465722077696c6c20697320726560008201527f7665616c65640000000000000000000000000000000000000000000000000000602082015250565b600061388a60268361323d565b91506138958261382e565b604082019050919050565b600060208201905081810360008301526138b98161387d565b9050919050565b7f4e487b7100000000000000000000000000000000000000000000000000000000600052603260045260246000fd5b60006040820190506139046000830185613208565b6139116020830184612d33565b9392505050565b7f546f6b656e207472616e73666572206661696c65640000000000000000000000600082015250565b600061394e60158361323d565b915061395982613918565b602082019050919050565b6000602082019050818103600083015261397d81613941565b9050919050565b7f4d61696c626f78436c69656e743a2073656e646572206e6f74206d61696c626f60008201527f7800000000000000000000000000000000000000000000000000000000000000602082015250565b60006139e060218361323d565b91506139eb82613984565b604082019050919050565b60006020820190508181036000830152613a0f816139d3565b9050919050565b7f456e726f6c6c656420726f7574657220646f6573206e6f74206d61746368207360008201527f656e646572000000000000000000000000000000000000000000000000000000602082015250565b6000613a7260258361323d565b9150613a7d82613a16565b604082019050919050565b60006020820190508181036000830152613aa181613a65565b9050919050565b7f57696c6c206e6f742079657420617661696c61626c6500000000000000000000600082015250565b6000613ade60168361323d565b9150613ae982613aa8565b602082019050919050565b60006020820190508181036000830152613b0d81613ad1565b9050919050565b6000613b1f82612c27565b9150613b2a83612c27565b9250828202613b3881612c27565b91508282048414831517613b4f57613b4e612c31565b5b5092915050565b7f4e487b7100000000000000000000000000000000000000000000000000000000600052601260045260246000fd5b6000613b9082612c27565b9150613b9b83612c27565b925082613bab57613baa613b56565b5b828204905092915050565b7f5661756c743a20656e726f6c6c52656d6f7465526f757465722069732064697360008201527f61626c6564000000000000000000000000000000000000000000000000000000602082015250565b6000613c1260258361323d565b9150613c1d82613bb6565b604082019050919050565b60006020820190508181036000830152613c4181613c05565b9050919050565b7f216c656e67746800000000000000000000000000000000000000000000000000600082015250565b6000613c7e60078361323d565b9150613c8982613c48565b602082019050919050565b60006020820190508181036000830152613cad81613c71565b9050919050565b7f4f776e61626c653a206e6577206f776e657220697320746865207a65726f206160008201527f6464726573730000000000000000000000000000000000000000000000000000602082015250565b6000613d1060268361323d565b9150613d1b82613cb4565b604082019050919050565b60006020820190508181036000830152613d3f81613d03565b9050919050565b7f4e487b7100000000000000000000000000000000000000000000000000000000600052604160045260246000fd5b7f4f776e61626c653a2063616c6c6572206973206e6f7420746865206f776e6572600082015250565b6000613dab60208361323d565b9150613db682613d75565b602082019050919050565b60006020820190508181036000830152613dda81613d9e565b9050919050565b6000613dec82612ca8565b9050919050565b613dfc81613de1565b8114613e0757600080fd5b50565b600081359050613e1981613df3565b92915050565b613e2882613278565b810181811067ffffffffffffffff82111715613e4757613e46613d46565b5b80604052505050565b6000613e5a612c94565b9050613e668282613e1f565b919050565b600067ffffffffffffffff821115613e8657613e85613d46565b5b602082029050602081019050919050565b600080fd5b600060408284031215613eb257613eb1613e97565b5b613ebc6040613e50565b90506000613ecc84828501612cf1565b6000830152506020613ee084828501612e11565b60208301525092915050565b6000613eff613efa84613e6b565b613e50565b90508083825260208201905060408402830185811115613f2257613f2161301c565b5b835b81811015613f4b5780613f378882613e9c565b845260208401935050604081019050613f24565b5050509392505050565b600082601f830112613f6a57613f69613012565b5b8135613f7a848260208601613eec565b91505092915050565b600080600060608486031215613f9c57613f9b612c9e565b5b6000613faa86828701613e0a565b935050602084013567ffffffffffffffff811115613fcb57613fca612ca3565b5b613fd786828701613f55565b9250506040613fe886828701612e11565b9150509250925092565b600081519050919050565b600082825260208201905092915050565b600061401982613ff2565b6140238185613ffd565b935061403381856020860161324e565b61403c81613278565b840191505092915050565b600060a08201905061405c6000830188612fbc565b6140696020830187612dd0565b818103604083015261407b818661400e565b9050818103606083015261408f818561400e565b905061409e60808301846131de565b9695505050505050565b6000815190506140b781612fe6565b92915050565b6000602082840312156140d3576140d2612c9e565b5b60006140e1848285016140a8565b91505092915050565b7f4e6f20726f7574657220656e726f6c6c656420666f7220646f6d61696e3a2000815250565b600081905092915050565b600061412682613232565b6141308185614110565b935061414081856020860161324e565b80840191505092915050565b6000614157826140ea565b601f82019150614167828461411b565b915081905092915050565b60008151905061418181612dfa565b92915050565b60006020828403121561419d5761419c612c9e565b5b60006141ab84828501614172565b91505092915050565b60006141bf82612c27565b91506141ca83612c27565b92508282039050818111156141e2576141e1612c31565b5b92915050565b7f4e487b7100000000000000000000000000000000000000000000000000000000600052603160045260246000fdfea26469706673582212206742f52be00fe3b780e209adcf4abe359af90bdee163b59c025fa0286e987bda64736f6c634300081c0033",
  "linkReferences": {},
  "deployedLinkReferences": {}
}