{
  "_format": "hh-sol-artifact-1",
  "contractName": "Vault",
  "sourceName": "contracts/Vault.sol",
  "abi": [
    {
      "inputs": [
        {
          "internalType": "address",
          "name": "_mailbox",
          "type": "address"
        },
        {
          "internalType": "uint32",
          "name": "_testamentDomain",
          "type": "uint32"
        },
        {
          "internalType": "address",
          "name": "_testamentAddr",
          "type": "address"
        }
      ],
      "stateMutability": "nonpayable",
      "type": "constructor"
    },
    {
      "anonymous": false,
      "inputs": [
        {
          "indexed": false,
          "internalType": "address",
          "name": "_hook",
          "type": "address"
        }
      ],
      "name": "HookSet",
      "type": "event"
    },
    {
      "anonymous": false,
      "inputs": [
        {
          "indexed": false,
          "internalType": "uint8",
          "name": "version",
          "type": "uint8"
        }
      ],
      "name": "Initialized",
      "type": "event"
    },
    {
      "anonymous": false,
      "inputs": [
        {
          "indexed": false,
          "internalType": "address",
          "name": "_ism",
          "type": "address"
        }
      ],
      "name": "IsmSet",
      "type": "event"
    },
    {
      "anonymous": false,
      "inputs": [
        {
          "indexed": true,
          "internalType": "address",
          "name": "previousOwner",
          "type": "address"
        },
        {
          "indexed": true,
          "internalType": "address",
          "name": "newOwner",
          "type": "address"
        }
      ],
      "name": "OwnershipTransferred",
      "type": "event"
    },
    {
      "anonymous": false,
      "inputs": [
        {
          "indexed": true,
          "internalType": "address",
          "name": "creator",
          "type": "address"
        },
        {
          "indexed": false,
          "internalType": "bool",
          "name": "available",
          "type": "bool"
        }
      ],
      "name": "WillReceived",
      "type": "event"
    },
    {
      "inputs": [],
      "name": "HANDLE_GAS_AMOUNT",
      "outputs": [
        {
          "internalType": "uint256",
          "name": "",
          "type": "uint256"
        }
      ],
      "stateMutability": "view",
      "type": "function"
    },
    {
      "inputs": [],
      "name": "PACKAGE_VERSION",
      "outputs": [
        {
          "internalType": "string",
          "name": "",
          "type": "string"
        }
      ],
      "stateMutability": "view",
      "type": "function"
    },
    {
      "inputs": [
        {
          "internalType": "address",
          "name": "token",
          "type": "address"
        },
        {
          "internalType": "uint256",
          "name": "amount",
          "type": "uint256"
        }
      ],
      "name": "depositToken",
      "outputs": [],
      "stateMutability": "nonpayable",
      "type": "function"
    },
    {
      "inputs": [
        {
          "internalType": "address",
          "name": "creator",
          "type": "address"
        }
      ],
      "name": "distributeETH",
      "outputs": [],
      "stateMutability": "nonpayable",
      "type": "function"
    },
    {
      "inputs": [
        {
          "internalType": "address",
          "name": "creator",
          "type": "address"
        },
        {
          "internalType": "address",
          "name": "token",
          "type": "address"
        }
      ],
      "name": "distributeToken",
      "outputs": [],
      "stateMutability": "nonpayable",
      "type": "function"
    },
    {
      "inputs": [],
      "name": "domains",
      "outputs": [
        {
          "internalType": "uint32[]",
          "name": "",
          "type": "uint32[]"
        }
      ],
      "stateMutability": "view",
      "type": "function"
    },
    {
      "inputs": [
        {
          "internalType": "uint32",
          "name": "",
          "type": "uint32"
        },
        {
          "internalType": "bytes32",
          "name": "",
          "type": "bytes32"
        }
      ],
      "name": "enrollRemoteRouter",
      "outputs": [],
      "stateMutability": "pure",
      "type": "function"
    },
    {
      "inputs": [
        {
          "internalType": "uint32[]",
          "name": "_domains",
          "type": "uint32[]"
        },
        {
          "internalType": "bytes32[]",
          "name": "_addresses",
          "type": "bytes32[]"
        }
      ],
      "name": "enrollRemoteRouters",
      "outputs": [],
      "stateMutability": "nonpayable",
      "type": "function"
    },
    {
      "inputs": [
        {
          "internalType": "address",
          "name": "",
          "type": "address"
        }
      ],
      "name": "ethBalances",
      "outputs": [
        {
          "internalType": "uint256",
          "name": "",
          "type": "uint256"
        }
      ],
      "stateMutability": "view",
      "type": "function"
    },
    {
      "inputs": [
        {
          "internalType": "uint32",
          "name": "_origin",
          "type": "uint32"
        },
        {
          "internalType": "bytes32",
          "name": "_sender",
          "type": "bytes32"
        },
        {
          "internalType": "bytes",
          "name": "_message",
          "type": "bytes"
        }
      ],
      "name": "handle",
      "outputs": [],
      "stateMutability": "payable",
      "type": "function"
    },
    {
      "inputs": [],
      "name": "hook",
      "outputs": [
        {
          "internalType": "contract IPostDispatchHook",
          "name": "",
          "type": "address"
        }
      ],
      "stateMutability": "view",
      "type": "function"
    },
    {
      "inputs": [],
      "name": "interchainSecurityModule",
      "outputs": [
        {
          "internalType": "contract IInterchainSecurityModule",
          "name": "",
          "type": "address"
        }
      ],
      "stateMutability": "view",
      "type": "function"
    },
    {
      "inputs": [],
      "name": "localDomain",
      "outputs": [
        {
          "internalType": "uint32",
          "name": "",
          "type": "uint32"
        }
      ],
      "stateMutability": "view",
      "type": "function"
    },
    {
      "inputs": [],
      "name": "mailbox",
      "outputs": [
        {
          "internalType": "contract IMailbox",
          "name": "",
          "type": "address"
        }
      ],
      "stateMutability": "view",
      "type": "function"
    },
    {
      "inputs": [],
      "name": "owner",
      "outputs": [
        {
          "internalType": "address",
          "name": "",
          "type": "address"
        }
      ],
      "stateMutability": "view",
      "type": "function"
    },
    {
      "inputs": [
        {
          "internalType": "address",
          "name": "creator",
          "type": "address"
        }
      ],
      "name": "quoteRequestWill",
      "outputs": [
        {
          "internalType": "uint256",
          "name": "",
          "type": "uint256"
        }
      ],
      "stateMutability": "view",
      "type": "function"
    },
    {
      "inputs": [],
      "name": "renounceOwnership",
      "outputs": [],
      "stateMutability": "nonpayable",
      "type": "function"
    },
    {
      "inputs": [
        {
          "internalType": "address",
          "name": "creator",
          "type": "address"
        }
      ],
      "name": "requestWill",
      "outputs": [],
      "stateMutability": "payable",
      "type": "function"
    },
    {
      "inputs": [
        {
          "internalType": "uint32",
          "name": "_domain",
          "type": "uint32"
        }
      ],
      "name": "routers",
      "outputs": [
        {
          "internalType": "bytes32",
          "name": "",
          "type": "bytes32"
        }
      ],
      "stateMutability": "view",
      "type": "function"
    },
    {
      "inputs": [
        {
          "internalType": "address",
          "name": "_hook",
          "type": "address"
        }
      ],
      "name": "setHook",
      "outputs": [],
      "stateMutability": "nonpayable",
      "type": "function"
    },
    {
      "inputs": [
        {
          "internalType": "address",
          "name": "_module",
          "type": "address"
        }
      ],
      "name": "setInterchainSecurityModule",
      "outputs": [],
      "stateMutability": "nonpayable",
      "type": "function"
    },
    {
      "inputs": [],
      "name": "testamentDomain",
      "outputs": [
        {
          "internalType": "uint32",
          "name": "",
          "type": "uint32"
        }
      ],
      "stateMutability": "view",
      "type": "function"
    },
    {
      "inputs": [
        {
          "internalType": "address",
          "name": "",
          "type": "address"
        },
        {
          "internalType": "address",
          "name": "",
          "type": "address"
        }
      ],
      "name": "tokenBalances",
      "outputs": [
        {
          "internalType": "uint256",
          "name": "",
          "type": "uint256"
        }
      ],
      "stateMutability": "view",
      "type": "function"
    },
    {
      "inputs": [
        {
          "internalType": "address",
          "name": "newOwner",
          "type": "address"
        }
      ],
      "name": "transferOwnership",
      "outputs": [],
      "stateMutability": "nonpayable",
      "type": "function"
    },
    {
      "inputs": [
        {
          "internalType": "uint32",
          "name": "_domain",
          "type": "uint32"
        }
      ],
      "name": "unenrollRemoteRouter",
      "outputs": [],
      "stateMutability": "nonpayable",
      "type": "function"
    },
    {
      "inputs": [
        {
          "internalType": "uint32[]",
          "name": "_domains",
          "type": "uint32[]"
        }
      ],
      "name": "unenrollRemoteRouters",
      "outputs": [],
      "stateMutability": "nonpayable",
      "type": "function"
    },
    {
      "stateMutability": "payable",
      "type": "receive"
    }
  ],
  "bytecode": "0x60e060405234801561001057600080fd5b50604051613fcb380380613fcb83398181016040528101906100329190610637565b828080610044816101b160201b60201c565b610083576040517f08c379a000000000000000000000000000000000000000000000000000000000815260040161007a906106e7565b60405180910390fd5b8173ffffffffffffffffffffffffffffffffffffffff1660808173ffffffffffffffffffffffffffffffffffffffff168152505060805173ffffffffffffffffffffffffffffffffffffffff16638d3638f46040518163ffffffff1660e01b8152600401602060405180830381865afa158015610104573d6000803e3d6000fd5b505050506040513d601f19601f820116820180604052508101906101289190610707565b63ffffffff1660a08163ffffffff168152505061014a336101d460201b60201c565b50505061015c336101d460201b60201c565b61016c600061029a60201b60201c565b8163ffffffff1660c08163ffffffff16815250506101a9828273ffffffffffffffffffffffffffffffffffffffff1660001b6103aa60201b60201c565b50505061085c565b6000808273ffffffffffffffffffffffffffffffffffffffff163b119050919050565b6000603360009054906101000a900473ffffffffffffffffffffffffffffffffffffffff16905081603360006101000a81548173ffffffffffffffffffffffffffffffffffffffff021916908373ffffffffffffffffffffffffffffffffffffffff1602179055508173ffffffffffffffffffffffffffffffffffffffff168173ffffffffffffffffffffffffffffffffffffffff167f8be0079c531659141344cd1fd0a4f28419497f9722a3daafe3b4186f6b6457e060405160405180910390a35050565b806102aa816101b160201b60201c565b806102e15750600073ffffffffffffffffffffffffffffffffffffffff168173ffffffffffffffffffffffffffffffffffffffff16145b610320576040517f08c379a0000000000000000000000000000000000000000000000000000000008152600401610317906107a6565b60405180910390fd5b61032e6103ca60201b60201c565b81606560006101000a81548173ffffffffffffffffffffffffffffffffffffffff021916908373ffffffffffffffffffffffffffffffffffffffff1602179055507f4eab7b127c764308788622363ad3e9532de3dfba7845bd4f84c125a22544255a8260405161039e91906107d5565b60405180910390a15050565b6103c68263ffffffff1682609761045460201b9092919060201c565b5050565b6103d861047560201b60201c565b73ffffffffffffffffffffffffffffffffffffffff166103fc61047d60201b60201c565b73ffffffffffffffffffffffffffffffffffffffff1614610452576040517f08c379a00000000000000000000000000000000000000000000000000000000081526004016104499061083c565b60405180910390fd5b565b61046f8260001b82856000016104a760201b9092919060201c565b50505050565b600033905090565b6000603360009054906101000a900473ffffffffffffffffffffffffffffffffffffffff16905090565b600081846002016000858152602001908152602001600020819055506104d983856000016104e260201b90919060201c565b90509392505050565b60006104f783600001836104ff60201b60201c565b905092915050565b6000610511838361057560201b60201c565b61056a57826000018290806001815401808255809150506001900390600052602060002001600090919091909150558260000180549050836001016000848152602001908152602001600020819055506001905061056f565b600090505b92915050565b600080836001016000848152602001908152602001600020541415905092915050565b600080fd5b600073ffffffffffffffffffffffffffffffffffffffff82169050919050565b60006105c88261059d565b9050919050565b6105d8816105bd565b81146105e357600080fd5b50565b6000815190506105f5816105cf565b92915050565b600063ffffffff82169050919050565b610614816105fb565b811461061f57600080fd5b50565b6000815190506106318161060b565b92915050565b6000806000606084860312156106505761064f610598565b5b600061065e868287016105e6565b935050602061066f86828701610622565b9250506040610680868287016105e6565b9150509250925092565b600082825260208201905092915050565b7f4d61696c626f78436c69656e743a20696e76616c6964206d61696c626f780000600082015250565b60006106d1601e8361068a565b91506106dc8261069b565b602082019050919050565b60006020820190508181036000830152610700816106c4565b9050919050565b60006020828403121561071d5761071c610598565b5b600061072b84828501610622565b91505092915050565b7f4d61696c626f78436c69656e743a20696e76616c696420636f6e74726163742060008201527f73657474696e6700000000000000000000000000000000000000000000000000602082015250565b600061079060278361068a565b915061079b82610734565b604082019050919050565b600060208201905081810360008301526107bf81610783565b9050919050565b6107cf816105bd565b82525050565b60006020820190506107ea60008301846107c6565b92915050565b7f4f776e61626c653a2063616c6c6572206973206e6f7420746865206f776e6572600082015250565b600061082660208361068a565b9150610831826107f0565b602082019050919050565b6000602082019050818103600083015261085581610819565b9050919050565b60805160a05160c05161371d6108ae6000396000818161077901528181610d0d01526111eb015260006112d7015260008181610d310152818161139901528181611b430152611d3f015261371d6000f3fe6080604052600436106101855760003560e01c80636d6b3731116100d157806393c448471161008a578063de523cf311610064578063de523cf3146105a0578063e9198bf9146105cb578063efae508a146105f4578063f2fde38b1461061d576101e1565b806393c4484714610521578063b49c53a71461054c578063d5438eae14610575576101e1565b80636d6b373114610423578063715018a61461046057806371a15b38146104775780637f5a7c7b146104a05780638d3638f4146104cb5780638da5cb5b146104f6576101e1565b80633cfba0e31161013e5780634dbf6c5a116101185780634dbf6c5a146103765780635509d6e7146103b357806356d5d475146103de578063691eb62e146103fa576101e1565b80633cfba0e3146102e55780633dfd387314610322578063440df4f41461034b576101e1565b80630e72cc06146101e657806312f762221461020f5780631621ab161461023a5780632ead72f614610256578063338b5dea146102935780633581d99f146102bc576101e1565b366101e1573460ca60003373ffffffffffffffffffffffffffffffffffffffff1673ffffffffffffffffffffffffffffffffffffffff16815260200190815260200160002060008282546101d991906123ef565b925050819055005b600080fd5b3480156101f257600080fd5b5061020d60048036038101906102089190612495565b610646565b005b34801561021b57600080fd5b5061022461074a565b60405161023191906124d1565b60405180910390f35b610254600480360381019061024f9190612495565b610750565b005b34801561026257600080fd5b5061027d60048036038101906102789190612528565b6107a3565b60405161028a919061256e565b60405180910390f35b34801561029f57600080fd5b506102ba60048036038101906102b591906125b5565b6107cc565b005b3480156102c857600080fd5b506102e360048036038101906102de9190612495565b610922565b005b3480156102f157600080fd5b5061030c60048036038101906103079190612495565b610bb9565b60405161031991906124d1565b60405180910390f35b34801561032e57600080fd5b5061034960048036038101906103449190612495565b610bd1565b005b34801561035757600080fd5b50610360610cd5565b60405161036d91906126b3565b60405180910390f35b34801561038257600080fd5b5061039d600480360381019061039891906126d5565b610ce6565b6040516103aa91906124d1565b60405180910390f35b3480156103bf57600080fd5b506103c8610d0b565b6040516103d59190612724565b60405180910390f35b6103f860048036038101906103f391906127d0565b610d2f565b005b34801561040657600080fd5b50610421600480360381019061041c91906126d5565b610e1f565b005b34801561042f57600080fd5b5061044a60048036038101906104459190612495565b6111e4565b60405161045791906124d1565b60405180910390f35b34801561046c57600080fd5b50610475611236565b005b34801561048357600080fd5b5061049e6004803603810190610499919061289a565b61124a565b005b3480156104ac57600080fd5b506104b56112af565b6040516104c29190612946565b60405180910390f35b3480156104d757600080fd5b506104e06112d5565b6040516104ed9190612724565b60405180910390f35b34801561050257600080fd5b5061050b6112f9565b6040516105189190612970565b60405180910390f35b34801561052d57600080fd5b50610536611323565b6040516105439190612a1b565b60405180910390f35b34801561055857600080fd5b50610573600480360381019061056e9190612a3d565b61135c565b005b34801561058157600080fd5b5061058a611397565b6040516105979190612a9e565b60405180910390f35b3480156105ac57600080fd5b506105b56113bb565b6040516105c29190612ada565b60405180910390f35b3480156105d757600080fd5b506105f260048036038101906105ed9190612b4b565b6113e1565b005b34801561060057600080fd5b5061061b60048036038101906106169190612528565b6114aa565b005b34801561062957600080fd5b50610644600480360381019061063f9190612495565b6114be565b005b8061065081611541565b806106875750600073ffffffffffffffffffffffffffffffffffffffff168173ffffffffffffffffffffffffffffffffffffffff16145b6106c6576040517f08c379a00000000000000000000000000000000000000000000000000000000081526004016106bd90612c3e565b60405180910390fd5b6106ce611564565b81606660006101000a81548173ffffffffffffffffffffffffffffffffffffffff021916908373ffffffffffffffffffffffffffffffffffffffff1602179055507fc47cbcc588c67679e52261c45cc315e56562f8d0ccaba16facb9093ff94987998260405161073e9190612970565b60405180910390a15050565b61c35081565b6000816040516020016107639190612970565b604051602081830303815290604052905061079e7f0000000000000000000000000000000000000000000000000000000000000000826115e2565b505050565b6000806107c08363ffffffff16609761162a90919063ffffffff16565b91505080915050919050565b8173ffffffffffffffffffffffffffffffffffffffff166323b872dd3330846040518463ffffffff1660e01b815260040161080993929190612c5e565b6020604051808303816000875af1158015610828573d6000803e3d6000fd5b505050506040513d601f19601f8201168201806040525081019061084c9190612ccd565b61088b576040517f08c379a000000000000000000000000000000000000000000000000000000000815260040161088290612d46565b60405180910390fd5b8060cb60003373ffffffffffffffffffffffffffffffffffffffff1673ffffffffffffffffffffffffffffffffffffffff16815260200190815260200160002060008473ffffffffffffffffffffffffffffffffffffffff1673ffffffffffffffffffffffffffffffffffffffff168152602001908152602001600020600082825461091791906123ef565b925050819055505050565b600060ca60008373ffffffffffffffffffffffffffffffffffffffff1673ffffffffffffffffffffffffffffffffffffffff16815260200190815260200160002054116109a4576040517f08c379a000000000000000000000000000000000000000000000000000000000815260040161099b90612db2565b60405180910390fd5b600060cc60008373ffffffffffffffffffffffffffffffffffffffff1673ffffffffffffffffffffffffffffffffffffffff16815260200190815260200160002090508060020160009054906101000a900460ff16610a38576040517f08c379a0000000000000000000000000000000000000000000000000000000008152600401610a2f90612e1e565b60405180910390fd5b600060ca60008473ffffffffffffffffffffffffffffffffffffffff1673ffffffffffffffffffffffffffffffffffffffff168152602001908152602001600020549050600060ca60008573ffffffffffffffffffffffffffffffffffffffff1673ffffffffffffffffffffffffffffffffffffffff1681526020019081526020016000208190555060005b8260000180549050811015610bb35760008360010154846000018381548110610af057610aef612e3e565b5b90600052602060002090600202016001015484610b0d9190612e6d565b610b179190612ede565b9050836000018281548110610b2f57610b2e612e3e565b5b906000526020600020906002020160000160009054906101000a900473ffffffffffffffffffffffffffffffffffffffff1673ffffffffffffffffffffffffffffffffffffffff166108fc829081150290604051600060405180830381858888f19350505050158015610ba6573d6000803e3d6000fd5b5050806001019050610ac4565b50505050565b60ca6020528060005260406000206000915090505481565b80610bdb81611541565b80610c125750600073ffffffffffffffffffffffffffffffffffffffff168173ffffffffffffffffffffffffffffffffffffffff16145b610c51576040517f08c379a0000000000000000000000000000000000000000000000000000000008152600401610c4890612c3e565b60405180910390fd5b610c59611564565b81606560006101000a81548173ffffffffffffffffffffffffffffffffffffffff021916908373ffffffffffffffffffffffffffffffffffffffff1602179055507f4eab7b127c764308788622363ad3e9532de3dfba7845bd4f84c125a22544255a82604051610cc99190612970565b60405180910390a15050565b6060610ce16097611651565b905090565b60cb602052816000526040600020602052806000526040600020600091509150505481565b7f000000000000000000000000000000000000000000000000000000000000000081565b7f000000000000000000000000000000000000000000000000000000000000000073ffffffffffffffffffffffffffffffffffffffff163373ffffffffffffffffffffffffffffffffffffffff1614610dbd576040517f08c379a0000000000000000000000000000000000000000000000000000000008152600401610db490612f81565b60405180910390fd5b6000610dc885611714565b9050838114610e0c576040517f08c379a0000000000000000000000000000000000000000000000000000000008152600401610e0390613013565b60405180910390fd5b610e1885858585611791565b5050505050565b600060cb60008473ffffffffffffffffffffffffffffffffffffffff1673ffffffffffffffffffffffffffffffffffffffff16815260200190815260200160002060008373ffffffffffffffffffffffffffffffffffffffff1673ffffffffffffffffffffffffffffffffffffffff1681526020019081526020016000205411610ede576040517f08c379a0000000000000000000000000000000000000000000000000000000008152600401610ed590612db2565b60405180910390fd5b600060cc60008473ffffffffffffffffffffffffffffffffffffffff1673ffffffffffffffffffffffffffffffffffffffff16815260200190815260200160002090508060020160009054906101000a900460ff16610f72576040517f08c379a0000000000000000000000000000000000000000000000000000000008152600401610f6990612e1e565b60405180910390fd5b600060cb60008573ffffffffffffffffffffffffffffffffffffffff1673ffffffffffffffffffffffffffffffffffffffff16815260200190815260200160002060008473ffffffffffffffffffffffffffffffffffffffff1673ffffffffffffffffffffffffffffffffffffffff168152602001908152602001600020549050600060cb60008673ffffffffffffffffffffffffffffffffffffffff1673ffffffffffffffffffffffffffffffffffffffff16815260200190815260200160002060008573ffffffffffffffffffffffffffffffffffffffff1673ffffffffffffffffffffffffffffffffffffffff1681526020019081526020016000208190555060005b82600001805490508110156111dd57600083600101548460000183815481106110a4576110a3612e3e565b5b906000526020600020906002020160010154846110c19190612e6d565b6110cb9190612ede565b90508473ffffffffffffffffffffffffffffffffffffffff1663a9059cbb8560000184815481106110ff576110fe612e3e565b5b906000526020600020906002020160000160009054906101000a900473ffffffffffffffffffffffffffffffffffffffff16836040518363ffffffff1660e01b815260040161114f929190613033565b6020604051808303816000875af115801561116e573d6000803e3d6000fd5b505050506040513d601f19601f820116820180604052508101906111929190612ccd565b6111d1576040517f08c379a00000000000000000000000000000000000000000000000000000000081526004016111c890612d46565b60405180910390fd5b50806001019050611078565b5050505050565b600061122f7f00000000000000000000000000000000000000000000000000000000000000008360405160200161121b9190612970565b604051602081830303815290604052611996565b9050919050565b61123e611564565b61124860006119dd565b565b611252611564565b600082829050905060005b818110156112a95761129584848381811061127b5761127a612e3e565b5b90506020020160208101906112909190612528565b611aa3565b6001816112a291906123ef565b905061125d565b50505050565b606560009054906101000a900473ffffffffffffffffffffffffffffffffffffffff1681565b7f000000000000000000000000000000000000000000000000000000000000000081565b6000603360009054906101000a900473ffffffffffffffffffffffffffffffffffffffff16905090565b6040518060400160405280600581526020017f372e312e3400000000000000000000000000000000000000000000000000000081525081565b6040517f08c379a000000000000000000000000000000000000000000000000000000000815260040161138e906130ce565b60405180910390fd5b7f000000000000000000000000000000000000000000000000000000000000000081565b606660009054906101000a900473ffffffffffffffffffffffffffffffffffffffff1681565b6113e9611564565b818190508484905014611431576040517f08c379a00000000000000000000000000000000000000000000000000000000081526004016114289061313a565b60405180910390fd5b600084849050905060005b818110156114a25761148e86868381811061145a57611459612e3e565b5b905060200201602081019061146f9190612528565b85858481811061148257611481612e3e565b5b90506020020135611b0b565b60018161149b91906123ef565b905061143c565b505050505050565b6114b2611564565b6114bb81611aa3565b50565b6114c6611564565b600073ffffffffffffffffffffffffffffffffffffffff168173ffffffffffffffffffffffffffffffffffffffff1603611535576040517f08c379a000000000000000000000000000000000000000000000000000000000815260040161152c906131cc565b60405180910390fd5b61153e816119dd565b50565b6000808273ffffffffffffffffffffffffffffffffffffffff163b119050919050565b61156c611b2b565b73ffffffffffffffffffffffffffffffffffffffff1661158a6112f9565b73ffffffffffffffffffffffffffffffffffffffff16146115e0576040517f08c379a00000000000000000000000000000000000000000000000000000000081526004016115d790613238565b60405180910390fd5b565b600061162283348460405180602001604052806000815250606560009054906101000a900473ffffffffffffffffffffffffffffffffffffffff16611b33565b905092915050565b6000806116468360001b85600001611bf290919063ffffffff16565b915091509250929050565b6060600061165e83611c41565b9050805167ffffffffffffffff81111561167b5761167a613258565b5b6040519080825280602002602001820160405280156116a95781602001602082028036833780820191505090505b50915060005b815181101561170d578181815181106116cb576116ca612e3e565b5b60200260200101518382815181106116e6576116e5612e3e565b5b602002602001019063ffffffff16908163ffffffff168152505080806001019150506116af565b5050919050565b60008060006117338463ffffffff16609761162a90919063ffffffff16565b91509150811561174757809250505061178c565b61175084611cf8565b6040517f08c379a00000000000000000000000000000000000000000000000000000000081526004016117839190612a1b565b60405180910390fd5b919050565b600080600084848101906117a59190613429565b925092509250600080821190508061180f578373ffffffffffffffffffffffffffffffffffffffff167f0b863881f3fa0e42d1386f6601c4afdac31fb8f1078e53253bdd429748c32b2160006040516117fe91906134a7565b60405180910390a250505050611990565b600060cc60008673ffffffffffffffffffffffffffffffffffffffff1673ffffffffffffffffffffffffffffffffffffffff1681526020019081526020016000209050806000016000611862919061234c565b82816001018190555060018160020160006101000a81548160ff02191690831515021790555060005b845181101561193a57816000018582815181106118ab576118aa612e3e565b5b6020026020010151908060018154018082558091505060019003906000526020600020906002020160009091909190915060008201518160000160006101000a81548173ffffffffffffffffffffffffffffffffffffffff021916908373ffffffffffffffffffffffffffffffffffffffff16021790555060208201518160010155505080600101905061188b565b508473ffffffffffffffffffffffffffffffffffffffff167f0b863881f3fa0e42d1386f6601c4afdac31fb8f1078e53253bdd429748c32b21600160405161198291906134a7565b60405180910390a250505050505b50505050565b60006119d5838360405180602001604052806000815250606560009054906101000a900473ffffffffffffffffffffffffffffffffffffffff16611d2f565b905092915050565b6000603360009054906101000a900473ffffffffffffffffffffffffffffffffffffffff16905081603360006101000a81548173ffffffffffffffffffffffffffffffffffffffff021916908373ffffffffffffffffffffffffffffffffffffffff1602179055508173ffffffffffffffffffffffffffffffffffffffff168173ffffffffffffffffffffffffffffffffffffffff167f8be0079c531659141344cd1fd0a4f28419497f9722a3daafe3b4186f6b6457e060405160405180910390a35050565b611abd8163ffffffff166097611dea90919063ffffffff16565b611ac682611cf8565b90611b07576040517f08c379a0000000000000000000000000000000000000000000000000000000008152600401611afe9190612a1b565b60405180910390fd5b5050565b611b278263ffffffff16826097611e0d9092919063ffffffff16565b5050565b600033905090565b600080611b3f87611714565b90507f000000000000000000000000000000000000000000000000000000000000000073ffffffffffffffffffffffffffffffffffffffff166310b83dc08789848989896040518763ffffffff1660e01b8152600401611ba3959493929190613517565b60206040518083038185885af1158015611bc1573d6000803e3d6000fd5b50505050506040513d601f19601f82011682018060405250810190611be6919061358d565b91505095945050505050565b60008060008460020160008581526020019081526020016000205490506000801b8103611c3157611c238585611e2e565b6000801b9250925050611c3a565b60018192509250505b9250929050565b60606000611c5183600001611e4e565b90508067ffffffffffffffff811115611c6d57611c6c613258565b5b604051908082528060200260200182016040528015611c9b5781602001602082028036833780820191505090505b50915060005b81811015611cf157611cc28185600001600001611e6390919063ffffffff16565b60001c838281518110611cd857611cd7612e3e565b5b6020026020010181815250508080600101915050611ca1565b5050919050565b6060611d098263ffffffff16611e7a565b604051602001611d19919061361c565b6040516020818303038152906040529050919050565b600080611d3b86611714565b90507f000000000000000000000000000000000000000000000000000000000000000073ffffffffffffffffffffffffffffffffffffffff166381d2ea9587838888886040518663ffffffff1660e01b8152600401611d9e959493929190613517565b602060405180830381865afa158015611dbb573d6000803e3d6000fd5b505050506040513d601f19601f82011682018060405250810190611ddf9190613657565b915050949350505050565b6000611e058260001b84600001611f4890919063ffffffff16565b905092915050565b611e288260001b8285600001611f819092919063ffffffff16565b50505050565b6000611e468284600001611fbc90919063ffffffff16565b905092915050565b6000611e5c82600001611fd3565b9050919050565b6000611e728360000183611fe8565b905092915050565b606060006001611e8984612013565b01905060008167ffffffffffffffff811115611ea857611ea7613258565b5b6040519080825280601f01601f191660200182016040528015611eda5781602001600182028036833780820191505090505b509050600082602001820190505b600115611f3d578080600190039150507f3031323334353637383961626364656600000000000000000000000000000000600a86061a8153600a8581611f3157611f30612eaf565b5b04945060008503611ee8575b819350505050919050565b600082600201600083815260200190815260200160002060009055611f79828460000161216690919063ffffffff16565b905092915050565b60008184600201600085815260200190815260200160002081905550611fb3838560000161217d90919063ffffffff16565b90509392505050565b6000611fcb8360000183612194565b905092915050565b6000611fe1826000016121b7565b9050919050565b600082600001828154811061200057611fff612e3e565b5b9060005260206000200154905092915050565b600080600090507a184f03e93ff9f4daa797ed6e38ed64bf6a1f0100000000000000008310612071577a184f03e93ff9f4daa797ed6e38ed64bf6a1f010000000000000000838161206757612066612eaf565b5b0492506040810190505b6d04ee2d6d415b85acef810000000083106120ae576d04ee2d6d415b85acef810000000083816120a4576120a3612eaf565b5b0492506020810190505b662386f26fc1000083106120dd57662386f26fc1000083816120d3576120d2612eaf565b5b0492506010810190505b6305f5e1008310612106576305f5e10083816120fc576120fb612eaf565b5b0492506008810190505b612710831061212b57612710838161212157612120612eaf565b5b0492506004810190505b6064831061214e576064838161214457612143612eaf565b5b0492506002810190505b600a831061215d576001810190505b80915050919050565b600061217583600001836121c8565b905092915050565b600061218c83600001836122dc565b905092915050565b600080836001016000848152602001908152602001600020541415905092915050565b600081600001805490509050919050565b600080836001016000848152602001908152602001600020549050600081146122d05760006001826121fa9190613684565b90506000600186600001805490506122129190613684565b905081811461228157600086600001828154811061223357612232612e3e565b5b906000526020600020015490508087600001848154811061225757612256612e3e565b5b90600052602060002001819055508387600101600083815260200190815260200160002081905550505b85600001805480612295576122946136b8565b5b6001900381819060005260206000200160009055905585600101600086815260200190815260200160002060009055600193505050506122d6565b60009150505b92915050565b60006122e88383612194565b612341578260000182908060018154018082558091505060019003906000526020600020016000909190919091505582600001805490508360010160008481526020019081526020016000208190555060019050612346565b600090505b92915050565b508054600082556002029060005260206000209081019061236d9190612370565b50565b5b808211156123b257600080820160006101000a81549073ffffffffffffffffffffffffffffffffffffffff0219169055600182016000905550600201612371565b5090565b6000819050919050565b7f4e487b7100000000000000000000000000000000000000000000000000000000600052601160045260246000fd5b60006123fa826123b6565b9150612405836123b6565b925082820190508082111561241d5761241c6123c0565b5b92915050565b6000604051905090565b600080fd5b600080fd5b600073ffffffffffffffffffffffffffffffffffffffff82169050919050565b600061246282612437565b9050919050565b61247281612457565b811461247d57600080fd5b50565b60008135905061248f81612469565b92915050565b6000602082840312156124ab576124aa61242d565b5b60006124b984828501612480565b91505092915050565b6124cb816123b6565b82525050565b60006020820190506124e660008301846124c2565b92915050565b600063ffffffff82169050919050565b612505816124ec565b811461251057600080fd5b50565b600081359050612522816124fc565b92915050565b60006020828403121561253e5761253d61242d565b5b600061254c84828501612513565b91505092915050565b6000819050919050565b61256881612555565b82525050565b6000602082019050612583600083018461255f565b92915050565b612592816123b6565b811461259d57600080fd5b50565b6000813590506125af81612589565b92915050565b600080604083850312156125cc576125cb61242d565b5b60006125da85828601612480565b92505060206125eb858286016125a0565b9150509250929050565b600081519050919050565b600082825260208201905092915050565b6000819050602082019050919050565b61262a816124ec565b82525050565b600061263c8383612621565b60208301905092915050565b6000602082019050919050565b6000612660826125f5565b61266a8185612600565b935061267583612611565b8060005b838110156126a657815161268d8882612630565b975061269883612648565b925050600181019050612679565b5085935050505092915050565b600060208201905081810360008301526126cd8184612655565b905092915050565b600080604083850312156126ec576126eb61242d565b5b60006126fa85828601612480565b925050602061270b85828601612480565b9150509250929050565b61271e816124ec565b82525050565b60006020820190506127396000830184612715565b92915050565b61274881612555565b811461275357600080fd5b50565b6000813590506127658161273f565b92915050565b600080fd5b600080fd5b600080fd5b60008083601f8401126127905761278f61276b565b5b8235905067ffffffffffffffff8111156127ad576127ac612770565b5b6020830191508360018202830111156127c9576127c8612775565b5b9250929050565b600080600080606085870312156127ea576127e961242d565b5b60006127f887828801612513565b945050602061280987828801612756565b935050604085013567ffffffffffffffff81111561282a57612829612432565b5b6128368782880161277a565b925092505092959194509250565b60008083601f84011261285a5761285961276b565b5b8235905067ffffffffffffffff81111561287757612876612770565b5b60208301915083602082028301111561289357612892612775565b5b9250929050565b600080602083850312156128b1576128b061242d565b5b600083013567ffffffffffffffff8111156128cf576128ce612432565b5b6128db85828601612844565b92509250509250929050565b6000819050919050565b600061290c61290761290284612437565b6128e7565b612437565b9050919050565b600061291e826128f1565b9050919050565b600061293082612913565b9050919050565b61294081612925565b82525050565b600060208201905061295b6000830184612937565b92915050565b61296a81612457565b82525050565b60006020820190506129856000830184612961565b92915050565b600081519050919050565b600082825260208201905092915050565b60005b838110156129c55780820151818401526020810190506129aa565b60008484015250505050565b6000601f19601f8301169050919050565b60006129ed8261298b565b6129f78185612996565b9350612a078185602086016129a7565b612a10816129d1565b840191505092915050565b60006020820190508181036000830152612a3581846129e2565b905092915050565b60008060408385031215612a5457612a5361242d565b5b6000612a6285828601612513565b9250506020612a7385828601612756565b9150509250929050565b6000612a8882612913565b9050919050565b612a9881612a7d565b82525050565b6000602082019050612ab36000830184612a8f565b92915050565b6000612ac482612913565b9050919050565b612ad481612ab9565b82525050565b6000602082019050612aef6000830184612acb565b92915050565b60008083601f840112612b0b57612b0a61276b565b5b8235905067ffffffffffffffff811115612b2857612b27612770565b5b602083019150836020820283011115612b4457612b43612775565b5b9250929050565b60008060008060408587031215612b6557612b6461242d565b5b600085013567ffffffffffffffff811115612b8357612b82612432565b5b612b8f87828801612844565b9450945050602085013567ffffffffffffffff811115612bb257612bb1612432565b5b612bbe87828801612af5565b925092505092959194509250565b7f4d61696c626f78436c69656e743a20696e76616c696420636f6e74726163742060008201527f73657474696e6700000000000000000000000000000000000000000000000000602082015250565b6000612c28602783612996565b9150612c3382612bcc565b604082019050919050565b60006020820190508181036000830152612c5781612c1b565b9050919050565b6000606082019050612c736000830186612961565b612c806020830185612961565b612c8d60408301846124c2565b949350505050565b60008115159050919050565b612caa81612c95565b8114612cb557600080fd5b50565b600081519050612cc781612ca1565b92915050565b600060208284031215612ce357612ce261242d565b5b6000612cf184828501612cb8565b91505092915050565b7f5472616e73666572206661696c65640000000000000000000000000000000000600082015250565b6000612d30600f83612996565b9150612d3b82612cfa565b602082019050919050565b60006020820190508181036000830152612d5f81612d23565b9050919050565b7f416c726561647920636c61696d65640000000000000000000000000000000000600082015250565b6000612d9c600f83612996565b9150612da782612d66565b602082019050919050565b60006020820190508181036000830152612dcb81612d8f565b9050919050565b7f57696c6c206e6f742079657420617661696c61626c6500000000000000000000600082015250565b6000612e08601683612996565b9150612e1382612dd2565b602082019050919050565b60006020820190508181036000830152612e3781612dfb565b9050919050565b7f4e487b7100000000000000000000000000000000000000000000000000000000600052603260045260246000fd5b6000612e78826123b6565b9150612e83836123b6565b9250828202612e91816123b6565b91508282048414831517612ea857612ea76123c0565b5b5092915050565b7f4e487b7100000000000000000000000000000000000000000000000000000000600052601260045260246000fd5b6000612ee9826123b6565b9150612ef4836123b6565b925082612f0457612f03612eaf565b5b828204905092915050565b7f4d61696c626f78436c69656e743a2073656e646572206e6f74206d61696c626f60008201527f7800000000000000000000000000000000000000000000000000000000000000602082015250565b6000612f6b602183612996565b9150612f7682612f0f565b604082019050919050565b60006020820190508181036000830152612f9a81612f5e565b9050919050565b7f456e726f6c6c656420726f7574657220646f6573206e6f74206d61746368207360008201527f656e646572000000000000000000000000000000000000000000000000000000602082015250565b6000612ffd602583612996565b915061300882612fa1565b604082019050919050565b6000602082019050818103600083015261302c81612ff0565b9050919050565b60006040820190506130486000830185612961565b61305560208301846124c2565b9392505050565b7f5661756c743a20656e726f6c6c52656d6f7465526f757465722069732064697360008201527f61626c6564000000000000000000000000000000000000000000000000000000602082015250565b60006130b8602583612996565b91506130c38261305c565b604082019050919050565b600060208201905081810360008301526130e7816130ab565b9050919050565b7f216c656e67746800000000000000000000000000000000000000000000000000600082015250565b6000613124600783612996565b915061312f826130ee565b602082019050919050565b6000602082019050818103600083015261315381613117565b9050919050565b7f4f776e61626c653a206e6577206f776e657220697320746865207a65726f206160008201527f6464726573730000000000000000000000000000000000000000000000000000602082015250565b60006131b6602683612996565b91506131c18261315a565b604082019050919050565b600060208201905081810360008301526131e5816131a9565b9050919050565b7f4f776e61626c653a2063616c6c6572206973206e6f7420746865206f776e6572600082015250565b6000613222602083612996565b915061322d826131ec565b602082019050919050565b6000602082019050818103600083015261325181613215565b9050919050565b7f4e487b7100000000000000000000000000000000000000000000000000000000600052604160045260246000fd5b600061329282612437565b9050919050565b6132a281613287565b81146132ad57600080fd5b50565b6000813590506132bf81613299565b92915050565b6132ce826129d1565b810181811067ffffffffffffffff821117156132ed576132ec613258565b5b80604052505050565b6000613300612423565b905061330c82826132c5565b919050565b600067ffffffffffffffff82111561332c5761332b613258565b5b602082029050602081019050919050565b600080fd5b6000604082840312156133585761335761333d565b5b61336260406132f6565b9050600061337284828501612480565b6000830152506020613386848285016125a0565b60208301525092915050565b60006133a56133a084613311565b6132f6565b905080838252602082019050604084028301858111156133c8576133c7612775565b5b835b818110156133f157806133dd8882613342565b8452602084019350506040810190506133ca565b5050509392505050565b600082601f8301126134105761340f61276b565b5b8135613420848260208601613392565b91505092915050565b6000806000606084860312156134425761344161242d565b5b6000613450868287016132b0565b935050602084013567ffffffffffffffff81111561347157613470612432565b5b61347d868287016133fb565b925050604061348e868287016125a0565b9150509250925092565b6134a181612c95565b82525050565b60006020820190506134bc6000830184613498565b92915050565b600081519050919050565b600082825260208201905092915050565b60006134e9826134c2565b6134f381856134cd565b93506135038185602086016129a7565b61350c816129d1565b840191505092915050565b600060a08201905061352c6000830188612715565b613539602083018761255f565b818103604083015261354b81866134de565b9050818103606083015261355f81856134de565b905061356e6080830184612937565b9695505050505050565b6000815190506135878161273f565b92915050565b6000602082840312156135a3576135a261242d565b5b60006135b184828501613578565b91505092915050565b7f4e6f20726f7574657220656e726f6c6c656420666f7220646f6d61696e3a2000815250565b600081905092915050565b60006135f68261298b565b61360081856135e0565b93506136108185602086016129a7565b80840191505092915050565b6000613627826135ba565b601f8201915061363782846135eb565b915081905092915050565b60008151905061365181612589565b92915050565b60006020828403121561366d5761366c61242d565b5b600061367b84828501613642565b91505092915050565b600061368f826123b6565b915061369a836123b6565b92508282039050818111156136b2576136b16123c0565b5b92915050565b7f4e487b7100000000000000000000000000000000000000000000000000000000600052603160045260246000fdfea2646970667358221220b4574a68d79d29209ccca0217c425db83f840a08b47f62d91c3ddfc96ac170fd64736f6c634300081c0033",
  "linkReferences": {},
  "deployedLinkReferences": {}
}