{
  "_format": "hh-sol-artifact-1",
  "contractName": "Vault",
  "sourceName": "contracts/Vault.sol",
  "abi": [
    {
      "inputs": [
        {
          "internalType": "address",
          "name": "_mailbox",
          "type": "address"
        },
        {
          "internalType": "uint32",
          "name": "_testamentDomain",
          "type": "uint32"
        },
        {
          "internalType": "address",
          "name": "_testamentAddr",
          "type": "address"
        }
      ],
      "stateMutability": "nonpayable",
      "type": "constructor"
    },
    {
      "anonymous": false,
      "inputs": [
        {
          "indexed": false,
          "internalType": "address",
          "name": "_hook",
          "type": "address"
        }
      ],
      "name": "HookSet",
      "type": "event"
    },
    {
      "anonymous": false,
      "inputs": [
        {
          "indexed": false,
          "internalType": "uint8",
          "name": "version",
          "type": "uint8"
        }
      ],
      "name": "Initialized",
      "type": "event"
    },
    {
      "anonymous": false,
      "inputs": [
        {
          "indexed": false,
          "internalType": "address",
          "name": "_ism",
          "type": "address"
        }
      ],
      "name": "IsmSet",
      "type": "event"
    },
    {
      "anonymous": false,
      "inputs": [
        {
          "indexed": true,
          "internalType": "address",
          "name": "previousOwner",
          "type": "address"
        },
        {
          "indexed": true,
          "internalType": "address",
          "name": "newOwner",
          "type": "address"
        }
      ],
      "name": "OwnershipTransferred",
      "type": "event"
    },
    {
      "anonymous": false,
      "inputs": [
        {
          "indexed": true,
          "internalType": "address",
          "name": "creator",
          "type": "address"
        },
        {
          "indexed": false,
          "internalType": "bool",
          "name": "available",
          "type": "bool"
        }
      ],
      "name": "WillReceived",
      "type": "event"
    },
    {
      "inputs": [],
      "name": "HANDLE_GAS_AMOUNT",
      "outputs": [
        {
          "internalType": "uint256",
          "name": "",
          "type": "uint256"
        }
      ],
      "stateMutability": "view",
      "type": "function"
    },
    {
      "inputs": [],
      "name": "PACKAGE_VERSION",
      "outputs": [
        {
          "internalType": "string",
          "name": "",
          "type": "string"
        }
      ],
      "stateMutability": "view",
      "type": "function"
    },
    {
      "inputs": [
        {
          "internalType": "address",
          "name": "token",
          "type": "address"
        },
        {
          "internalType": "uint256",
          "name": "amount",
          "type": "uint256"
        }
      ],
      "name": "depositToken",
      "outputs": [],
      "stateMutability": "nonpayable",
      "type": "function"
    },
    {
      "inputs": [
        {
          "internalType": "address",
          "name": "creator",
          "type": "address"
        }
      ],
      "name": "distribute",
      "outputs": [],
      "stateMutability": "nonpayable",
      "type": "function"
    },
    {
      "inputs": [],
      "name": "domains",
      "outputs": [
        {
          "internalType": "uint32[]",
          "name": "",
          "type": "uint32[]"
        }
      ],
      "stateMutability": "view",
      "type": "function"
    },
    {
      "inputs": [
        {
          "internalType": "uint32",
          "name": "",
          "type": "uint32"
        },
        {
          "internalType": "bytes32",
          "name": "",
          "type": "bytes32"
        }
      ],
      "name": "enrollRemoteRouter",
      "outputs": [],
      "stateMutability": "pure",
      "type": "function"
    },
    {
      "inputs": [
        {
          "internalType": "uint32[]",
          "name": "_domains",
          "type": "uint32[]"
        },
        {
          "internalType": "bytes32[]",
          "name": "_addresses",
          "type": "bytes32[]"
        }
      ],
      "name": "enrollRemoteRouters",
      "outputs": [],
      "stateMutability": "nonpayable",
      "type": "function"
    },
    {
      "inputs": [
        {
          "internalType": "address",
          "name": "",
          "type": "address"
        }
      ],
      "name": "ethBalances",
      "outputs": [
        {
          "internalType": "uint256",
          "name": "",
          "type": "uint256"
        }
      ],
      "stateMutability": "view",
      "type": "function"
    },
    {
      "inputs": [
        {
          "internalType": "address",
          "name": "creator",
          "type": "address"
        }
      ],
      "name": "getBalance",
      "outputs": [
        {
          "internalType": "uint256",
          "name": "eth",
          "type": "uint256"
        },
        {
          "internalType": "address[]",
          "name": "tokens",
          "type": "address[]"
        },
        {
          "internalType": "uint256[]",
          "name": "amounts",
          "type": "uint256[]"
        }
      ],
      "stateMutability": "view",
      "type": "function"
    },
    {
      "inputs": [
        {
          "internalType": "uint32",
          "name": "_origin",
          "type": "uint32"
        },
        {
          "internalType": "bytes32",
          "name": "_sender",
          "type": "bytes32"
        },
        {
          "internalType": "bytes",
          "name": "_message",
          "type": "bytes"
        }
      ],
      "name": "handle",
      "outputs": [],
      "stateMutability": "payable",
      "type": "function"
    },
    {
      "inputs": [],
      "name": "hook",
      "outputs": [
        {
          "internalType": "contract IPostDispatchHook",
          "name": "",
          "type": "address"
        }
      ],
      "stateMutability": "view",
      "type": "function"
    },
    {
      "inputs": [],
      "name": "interchainSecurityModule",
      "outputs": [
        {
          "internalType": "contract IInterchainSecurityModule",
          "name": "",
          "type": "address"
        }
      ],
      "stateMutability": "view",
      "type": "function"
    },
    {
      "inputs": [],
      "name": "localDomain",
      "outputs": [
        {
          "internalType": "uint32",
          "name": "",
          "type": "uint32"
        }
      ],
      "stateMutability": "view",
      "type": "function"
    },
    {
      "inputs": [],
      "name": "mailbox",
      "outputs": [
        {
          "internalType": "contract IMailbox",
          "name": "",
          "type": "address"
        }
      ],
      "stateMutability": "view",
      "type": "function"
    },
    {
      "inputs": [],
      "name": "owner",
      "outputs": [
        {
          "internalType": "address",
          "name": "",
          "type": "address"
        }
      ],
      "stateMutability": "view",
      "type": "function"
    },
    {
      "inputs": [
        {
          "internalType": "address",
          "name": "creator",
          "type": "address"
        }
      ],
      "name": "quoteRequestWill",
      "outputs": [
        {
          "internalType": "uint256",
          "name": "",
          "type": "uint256"
        }
      ],
      "stateMutability": "view",
      "type": "function"
    },
    {
      "inputs": [],
      "name": "renounceOwnership",
      "outputs": [],
      "stateMutability": "nonpayable",
      "type": "function"
    },
    {
      "inputs": [
        {
          "internalType": "address",
          "name": "creator",
          "type": "address"
        }
      ],
      "name": "requestWill",
      "outputs": [],
      "stateMutability": "payable",
      "type": "function"
    },
    {
      "inputs": [
        {
          "internalType": "uint32",
          "name": "_domain",
          "type": "uint32"
        }
      ],
      "name": "routers",
      "outputs": [
        {
          "internalType": "bytes32",
          "name": "",
          "type": "bytes32"
        }
      ],
      "stateMutability": "view",
      "type": "function"
    },
    {
      "inputs": [
        {
          "internalType": "address",
          "name": "_hook",
          "type": "address"
        }
      ],
      "name": "setHook",
      "outputs": [],
      "stateMutability": "nonpayable",
      "type": "function"
    },
    {
      "inputs": [
        {
          "internalType": "address",
          "name": "_module",
          "type": "address"
        }
      ],
      "name": "setInterchainSecurityModule",
      "outputs": [],
      "stateMutability": "nonpayable",
      "type": "function"
    },
    {
      "inputs": [],
      "name": "testamentDomain",
      "outputs": [
        {
          "internalType": "uint32",
          "name": "",
          "type": "uint32"
        }
      ],
      "stateMutability": "view",
      "type": "function"
    },
    {
      "inputs": [
        {
          "internalType": "address",
          "name": "",
          "type": "address"
        },
        {
          "internalType": "address",
          "name": "",
          "type": "address"
        }
      ],
      "name": "tokenBalances",
      "outputs": [
        {
          "internalType": "uint256",
          "name": "",
          "type": "uint256"
        }
      ],
      "stateMutability": "view",
      "type": "function"
    },
    {
      "inputs": [
        {
          "internalType": "address",
          "name": "newOwner",
          "type": "address"
        }
      ],
      "name": "transferOwnership",
      "outputs": [],
      "stateMutability": "nonpayable",
      "type": "function"
    },
    {
      "inputs": [
        {
          "internalType": "uint32",
          "name": "_domain",
          "type": "uint32"
        }
      ],
      "name": "unenrollRemoteRouter",
      "outputs": [],
      "stateMutability": "nonpayable",
      "type": "function"
    },
    {
      "inputs": [
        {
          "internalType": "uint32[]",
          "name": "_domains",
          "type": "uint32[]"
        }
      ],
      "name": "unenrollRemoteRouters",
      "outputs": [],
      "stateMutability": "nonpayable",
      "type": "function"
    },
    {
      "stateMutability": "payable",
      "type": "receive"
    }
  ],
  "bytecode": "0x60e060405234801561001057600080fd5b5060405161448338038061448383398181016040528101906100329190610637565b828080610044816101b160201b60201c565b610083576040517f08c379a000000000000000000000000000000000000000000000000000000000815260040161007a906106e7565b60405180910390fd5b8173ffffffffffffffffffffffffffffffffffffffff1660808173ffffffffffffffffffffffffffffffffffffffff168152505060805173ffffffffffffffffffffffffffffffffffffffff16638d3638f46040518163ffffffff1660e01b8152600401602060405180830381865afa158015610104573d6000803e3d6000fd5b505050506040513d601f19601f820116820180604052508101906101289190610707565b63ffffffff1660a08163ffffffff168152505061014a336101d460201b60201c565b50505061015c336101d460201b60201c565b61016c600061029a60201b60201c565b8163ffffffff1660c08163ffffffff16815250506101a9828273ffffffffffffffffffffffffffffffffffffffff1660001b6103aa60201b60201c565b50505061085c565b6000808273ffffffffffffffffffffffffffffffffffffffff163b119050919050565b6000603360009054906101000a900473ffffffffffffffffffffffffffffffffffffffff16905081603360006101000a81548173ffffffffffffffffffffffffffffffffffffffff021916908373ffffffffffffffffffffffffffffffffffffffff1602179055508173ffffffffffffffffffffffffffffffffffffffff168173ffffffffffffffffffffffffffffffffffffffff167f8be0079c531659141344cd1fd0a4f28419497f9722a3daafe3b4186f6b6457e060405160405180910390a35050565b806102aa816101b160201b60201c565b806102e15750600073ffffffffffffffffffffffffffffffffffffffff168173ffffffffffffffffffffffffffffffffffffffff16145b610320576040517f08c379a0000000000000000000000000000000000000000000000000000000008152600401610317906107a6565b60405180910390fd5b61032e6103ca60201b60201c565b81606560006101000a81548173ffffffffffffffffffffffffffffffffffffffff021916908373ffffffffffffffffffffffffffffffffffffffff1602179055507f4eab7b127c764308788622363ad3e9532de3dfba7845bd4f84c125a22544255a8260405161039e91906107d5565b60405180910390a15050565b6103c68263ffffffff1682609761045460201b9092919060201c565b5050565b6103d861047560201b60201c565b73ffffffffffffffffffffffffffffffffffffffff166103fc61047d60201b60201c565b73ffffffffffffffffffffffffffffffffffffffff1614610452576040517f08c379a00000000000000000000000000000000000000000000000000000000081526004016104499061083c565b60405180910390fd5b565b61046f8260001b82856000016104a760201b9092919060201c565b50505050565b600033905090565b6000603360009054906101000a900473ffffffffffffffffffffffffffffffffffffffff16905090565b600081846002016000858152602001908152602001600020819055506104d983856000016104e260201b90919060201c565b90509392505050565b60006104f783600001836104ff60201b60201c565b905092915050565b6000610511838361057560201b60201c565b61056a57826000018290806001815401808255809150506001900390600052602060002001600090919091909150558260000180549050836001016000848152602001908152602001600020819055506001905061056f565b600090505b92915050565b600080836001016000848152602001908152602001600020541415905092915050565b600080fd5b600073ffffffffffffffffffffffffffffffffffffffff82169050919050565b60006105c88261059d565b9050919050565b6105d8816105bd565b81146105e357600080fd5b50565b6000815190506105f5816105cf565b92915050565b600063ffffffff82169050919050565b610614816105fb565b811461061f57600080fd5b50565b6000815190506106318161060b565b92915050565b6000806000606084860312156106505761064f610598565b5b600061065e868287016105e6565b935050602061066f86828701610622565b9250506040610680868287016105e6565b9150509250925092565b600082825260208201905092915050565b7f4d61696c626f78436c69656e743a20696e76616c6964206d61696c626f780000600082015250565b60006106d1601e8361068a565b91506106dc8261069b565b602082019050919050565b60006020820190508181036000830152610700816106c4565b9050919050565b60006020828403121561071d5761071c610598565b5b600061072b84828501610622565b91505092915050565b7f4d61696c626f78436c69656e743a20696e76616c696420636f6e74726163742060008201527f73657474696e6700000000000000000000000000000000000000000000000000602082015250565b600061079060278361068a565b915061079b82610734565b604082019050919050565b600060208201905081810360008301526107bf81610783565b9050919050565b6107cf816105bd565b82525050565b60006020820190506107ea60008301846107c6565b92915050565b7f4f776e61626c653a2063616c6c6572206973206e6f7420746865206f776e6572600082015250565b600061082660208361068a565b9150610831826107f0565b602082019050919050565b6000602082019050818103600083015261085581610819565b9050919050565b60805160a05160c051613bd56108ae6000396000818161078f01528181610bb1015261124d01526000611339015260008181610bd5015281816113fb01528181611e6801526120640152613bd56000f3fe6080604052600436106101855760003560e01c8063715018a6116100d1578063b49c53a71161008a578063e9198bf911610064578063e9198bf9146105a2578063efae508a146105cb578063f2fde38b146105f4578063f8b2cb4f1461061d576101e1565b8063b49c53a714610523578063d5438eae1461054c578063de523cf314610577576101e1565b8063715018a61461043757806371a15b381461044e5780637f5a7c7b146104775780638d3638f4146104a25780638da5cb5b146104cd57806393c44847146104f8576101e1565b80633dfd38731161013e5780635509d6e7116101185780635509d6e71461038a57806356d5d475146103b557806363453ae1146103d15780636d6b3731146103fa576101e1565b80633dfd3873146102f9578063440df4f4146103225780634dbf6c5a1461034d576101e1565b80630e72cc06146101e657806312f762221461020f5780631621ab161461023a5780632ead72f614610256578063338b5dea146102935780633cfba0e3146102bc576101e1565b366101e1573460ca60003373ffffffffffffffffffffffffffffffffffffffff1673ffffffffffffffffffffffffffffffffffffffff16815260200190815260200160002060008282546101d99190612752565b925050819055005b600080fd5b3480156101f257600080fd5b5061020d600480360381019061020891906127f8565b61065c565b005b34801561021b57600080fd5b50610224610760565b6040516102319190612834565b60405180910390f35b610254600480360381019061024f91906127f8565b610766565b005b34801561026257600080fd5b5061027d6004803603810190610278919061288b565b6107b9565b60405161028a91906128d1565b60405180910390f35b34801561029f57600080fd5b506102ba60048036038101906102b59190612918565b6107e2565b005b3480156102c857600080fd5b506102e360048036038101906102de91906127f8565b610a5d565b6040516102f09190612834565b60405180910390f35b34801561030557600080fd5b50610320600480360381019061031b91906127f8565b610a75565b005b34801561032e57600080fd5b50610337610b79565b6040516103449190612a16565b60405180910390f35b34801561035957600080fd5b50610374600480360381019061036f9190612a38565b610b8a565b6040516103819190612834565b60405180910390f35b34801561039657600080fd5b5061039f610baf565b6040516103ac9190612a87565b60405180910390f35b6103cf60048036038101906103ca9190612b33565b610bd3565b005b3480156103dd57600080fd5b506103f860048036038101906103f391906127f8565b610cc3565b005b34801561040657600080fd5b50610421600480360381019061041c91906127f8565b611246565b60405161042e9190612834565b60405180910390f35b34801561044357600080fd5b5061044c611298565b005b34801561045a57600080fd5b5061047560048036038101906104709190612bfd565b6112ac565b005b34801561048357600080fd5b5061048c611311565b6040516104999190612ca9565b60405180910390f35b3480156104ae57600080fd5b506104b7611337565b6040516104c49190612a87565b60405180910390f35b3480156104d957600080fd5b506104e261135b565b6040516104ef9190612cd3565b60405180910390f35b34801561050457600080fd5b5061050d611385565b60405161051a9190612d7e565b60405180910390f35b34801561052f57600080fd5b5061054a60048036038101906105459190612da0565b6113be565b005b34801561055857600080fd5b506105616113f9565b60405161056e9190612e01565b60405180910390f35b34801561058357600080fd5b5061058c61141d565b6040516105999190612e3d565b60405180910390f35b3480156105ae57600080fd5b506105c960048036038101906105c49190612eae565b611443565b005b3480156105d757600080fd5b506105f260048036038101906105ed919061288b565b61150c565b005b34801561060057600080fd5b5061061b600480360381019061061691906127f8565b611520565b005b34801561062957600080fd5b50610644600480360381019061063f91906127f8565b6115a3565b604051610653939291906130ab565b60405180910390f35b8061066681611866565b8061069d5750600073ffffffffffffffffffffffffffffffffffffffff168173ffffffffffffffffffffffffffffffffffffffff16145b6106dc576040517f08c379a00000000000000000000000000000000000000000000000000000000081526004016106d390613162565b60405180910390fd5b6106e4611889565b81606660006101000a81548173ffffffffffffffffffffffffffffffffffffffff021916908373ffffffffffffffffffffffffffffffffffffffff1602179055507fc47cbcc588c67679e52261c45cc315e56562f8d0ccaba16facb9093ff9498799826040516107549190612cd3565b60405180910390a15050565b61c35081565b6000816040516020016107799190612cd3565b60405160208183030381529060405290506107b47f000000000000000000000000000000000000000000000000000000000000000082611907565b505050565b6000806107d68363ffffffff16609761194f90919063ffffffff16565b91505080915050919050565b8173ffffffffffffffffffffffffffffffffffffffff166323b872dd3330846040518463ffffffff1660e01b815260040161081f93929190613182565b6020604051808303816000875af115801561083e573d6000803e3d6000fd5b505050506040513d601f19601f8201168201806040525081019061086291906131f1565b6108a1576040517f08c379a00000000000000000000000000000000000000000000000000000000081526004016108989061326a565b60405180910390fd5b600060cb60003373ffffffffffffffffffffffffffffffffffffffff1673ffffffffffffffffffffffffffffffffffffffff16815260200190815260200160002060008473ffffffffffffffffffffffffffffffffffffffff1673ffffffffffffffffffffffffffffffffffffffff16815260200190815260200160002054036109c65760cd60003373ffffffffffffffffffffffffffffffffffffffff1673ffffffffffffffffffffffffffffffffffffffff168152602001908152602001600020829080600181540180825580915050600190039060005260206000200160009091909190916101000a81548173ffffffffffffffffffffffffffffffffffffffff021916908373ffffffffffffffffffffffffffffffffffffffff1602179055505b8060cb60003373ffffffffffffffffffffffffffffffffffffffff1673ffffffffffffffffffffffffffffffffffffffff16815260200190815260200160002060008473ffffffffffffffffffffffffffffffffffffffff1673ffffffffffffffffffffffffffffffffffffffff1681526020019081526020016000206000828254610a529190612752565b925050819055505050565b60ca6020528060005260406000206000915090505481565b80610a7f81611866565b80610ab65750600073ffffffffffffffffffffffffffffffffffffffff168173ffffffffffffffffffffffffffffffffffffffff16145b610af5576040517f08c379a0000000000000000000000000000000000000000000000000000000008152600401610aec90613162565b60405180910390fd5b610afd611889565b81606560006101000a81548173ffffffffffffffffffffffffffffffffffffffff021916908373ffffffffffffffffffffffffffffffffffffffff1602179055507f4eab7b127c764308788622363ad3e9532de3dfba7845bd4f84c125a22544255a82604051610b6d9190612cd3565b60405180910390a15050565b6060610b856097611976565b905090565b60cb602052816000526040600020602052806000526040600020600091509150505481565b7f000000000000000000000000000000000000000000000000000000000000000081565b7f000000000000000000000000000000000000000000000000000000000000000073ffffffffffffffffffffffffffffffffffffffff163373ffffffffffffffffffffffffffffffffffffffff1614610c61576040517f08c379a0000000000000000000000000000000000000000000000000000000008152600401610c58906132fc565b60405180910390fd5b6000610c6c85611a39565b9050838114610cb0576040517f08c379a0000000000000000000000000000000000000000000000000000000008152600401610ca79061338e565b60405180910390fd5b610cbc85858585611ab6565b5050505050565b600060cc60008373ffffffffffffffffffffffffffffffffffffffff1673ffffffffffffffffffffffffffffffffffffffff16815260200190815260200160002090508060020160009054906101000a900460ff16610d57576040517f08c379a0000000000000000000000000000000000000000000000000000000008152600401610d4e906133fa565b60405180910390fd5b600060ca60008473ffffffffffffffffffffffffffffffffffffffff1673ffffffffffffffffffffffffffffffffffffffff168152602001908152602001600020549050600060ca60008573ffffffffffffffffffffffffffffffffffffffff1673ffffffffffffffffffffffffffffffffffffffff168152602001908152602001600020819055506000811115610edd5760005b8260000180549050811015610edb5760008360010154846000018381548110610e1857610e1761341a565b5b90600052602060002090600202016001015484610e359190613449565b610e3f91906134ba565b9050836000018281548110610e5757610e5661341a565b5b906000526020600020906002020160000160009054906101000a900473ffffffffffffffffffffffffffffffffffffffff1673ffffffffffffffffffffffffffffffffffffffff166108fc829081150290604051600060405180830381858888f19350505050158015610ece573d6000803e3d6000fd5b5050806001019050610dec565b505b600060cd60008573ffffffffffffffffffffffffffffffffffffffff1673ffffffffffffffffffffffffffffffffffffffff168152602001908152602001600020905060005b81805490508110156111f4576000828281548110610f4457610f4361341a565b5b9060005260206000200160009054906101000a900473ffffffffffffffffffffffffffffffffffffffff169050600060cb60008873ffffffffffffffffffffffffffffffffffffffff1673ffffffffffffffffffffffffffffffffffffffff16815260200190815260200160002060008373ffffffffffffffffffffffffffffffffffffffff1673ffffffffffffffffffffffffffffffffffffffff16815260200190815260200160002054905060008111156111e757600060cb60008973ffffffffffffffffffffffffffffffffffffffff1673ffffffffffffffffffffffffffffffffffffffff16815260200190815260200160002060008473ffffffffffffffffffffffffffffffffffffffff1673ffffffffffffffffffffffffffffffffffffffff1681526020019081526020016000208190555060005b86600001805490508110156111e557600087600101548860000183815481106110ac576110ab61341a565b5b906000526020600020906002020160010154846110c99190613449565b6110d391906134ba565b90508373ffffffffffffffffffffffffffffffffffffffff1663a9059cbb8960000184815481106111075761110661341a565b5b906000526020600020906002020160000160009054906101000a900473ffffffffffffffffffffffffffffffffffffffff16836040518363ffffffff1660e01b81526004016111579291906134eb565b6020604051808303816000875af1158015611176573d6000803e3d6000fd5b505050506040513d601f19601f8201168201806040525081019061119a91906131f1565b6111d9576040517f08c379a00000000000000000000000000000000000000000000000000000000081526004016111d09061326a565b60405180910390fd5b50806001019050611080565b505b5050806001019050610f23565b5060cd60008573ffffffffffffffffffffffffffffffffffffffff1673ffffffffffffffffffffffffffffffffffffffff16815260200190815260200160002060006112409190612671565b50505050565b60006112917f00000000000000000000000000000000000000000000000000000000000000008360405160200161127d9190612cd3565b604051602081830303815290604052611cbb565b9050919050565b6112a0611889565b6112aa6000611d02565b565b6112b4611889565b600082829050905060005b8181101561130b576112f78484838181106112dd576112dc61341a565b5b90506020020160208101906112f2919061288b565b611dc8565b6001816113049190612752565b90506112bf565b50505050565b606560009054906101000a900473ffffffffffffffffffffffffffffffffffffffff1681565b7f000000000000000000000000000000000000000000000000000000000000000081565b6000603360009054906101000a900473ffffffffffffffffffffffffffffffffffffffff16905090565b6040518060400160405280600581526020017f372e312e3400000000000000000000000000000000000000000000000000000081525081565b6040517f08c379a00000000000000000000000000000000000000000000000000000000081526004016113f090613586565b60405180910390fd5b7f000000000000000000000000000000000000000000000000000000000000000081565b606660009054906101000a900473ffffffffffffffffffffffffffffffffffffffff1681565b61144b611889565b818190508484905014611493576040517f08c379a000000000000000000000000000000000000000000000000000000000815260040161148a906135f2565b60405180910390fd5b600084849050905060005b81811015611504576114f08686838181106114bc576114bb61341a565b5b90506020020160208101906114d1919061288b565b8585848181106114e4576114e361341a565b5b90506020020135611e30565b6001816114fd9190612752565b905061149e565b505050505050565b611514611889565b61151d81611dc8565b50565b611528611889565b600073ffffffffffffffffffffffffffffffffffffffff168173ffffffffffffffffffffffffffffffffffffffff1603611597576040517f08c379a000000000000000000000000000000000000000000000000000000000815260040161158e90613684565b60405180910390fd5b6115a081611d02565b50565b6000606080600060cc60008673ffffffffffffffffffffffffffffffffffffffff1673ffffffffffffffffffffffffffffffffffffffff16815260200190815260200160002090508060020160009054906101000a900460ff1661163c576040517f08c379a0000000000000000000000000000000000000000000000000000000008152600401611633906133fa565b60405180910390fd5b60ca60008673ffffffffffffffffffffffffffffffffffffffff1673ffffffffffffffffffffffffffffffffffffffff16815260200190815260200160002054935060cd60008673ffffffffffffffffffffffffffffffffffffffff1673ffffffffffffffffffffffffffffffffffffffff16815260200190815260200160002080548060200260200160405190810160405280929190818152602001828054801561173d57602002820191906000526020600020905b8160009054906101000a900473ffffffffffffffffffffffffffffffffffffffff1673ffffffffffffffffffffffffffffffffffffffff16815260200190600101908083116116f3575b50505050509250825167ffffffffffffffff81111561175f5761175e6136a4565b5b60405190808252806020026020018201604052801561178d5781602001602082028036833780820191505090505b50915060005b835181101561185d5760cb60008773ffffffffffffffffffffffffffffffffffffffff1673ffffffffffffffffffffffffffffffffffffffff16815260200190815260200160002060008583815181106117f0576117ef61341a565b5b602002602001015173ffffffffffffffffffffffffffffffffffffffff1673ffffffffffffffffffffffffffffffffffffffff168152602001908152602001600020548382815181106118465761184561341a565b5b602002602001018181525050806001019050611793565b50509193909250565b6000808273ffffffffffffffffffffffffffffffffffffffff163b119050919050565b611891611e50565b73ffffffffffffffffffffffffffffffffffffffff166118af61135b565b73ffffffffffffffffffffffffffffffffffffffff1614611905576040517f08c379a00000000000000000000000000000000000000000000000000000000081526004016118fc9061371f565b60405180910390fd5b565b600061194783348460405180602001604052806000815250606560009054906101000a900473ffffffffffffffffffffffffffffffffffffffff16611e58565b905092915050565b60008061196b8360001b85600001611f1790919063ffffffff16565b915091509250929050565b6060600061198383611f66565b9050805167ffffffffffffffff8111156119a05761199f6136a4565b5b6040519080825280602002602001820160405280156119ce5781602001602082028036833780820191505090505b50915060005b8151811015611a32578181815181106119f0576119ef61341a565b5b6020026020010151838281518110611a0b57611a0a61341a565b5b602002602001019063ffffffff16908163ffffffff168152505080806001019150506119d4565b5050919050565b6000806000611a588463ffffffff16609761194f90919063ffffffff16565b915091508115611a6c578092505050611ab1565b611a758461201d565b6040517f08c379a0000000000000000000000000000000000000000000000000000000008152600401611aa89190612d7e565b60405180910390fd5b919050565b60008060008484810190611aca91906138e1565b9250925092506000808211905080611b34578373ffffffffffffffffffffffffffffffffffffffff167f0b863881f3fa0e42d1386f6601c4afdac31fb8f1078e53253bdd429748c32b216000604051611b23919061395f565b60405180910390a250505050611cb5565b600060cc60008673ffffffffffffffffffffffffffffffffffffffff1673ffffffffffffffffffffffffffffffffffffffff1681526020019081526020016000209050806000016000611b879190612692565b82816001018190555060018160020160006101000a81548160ff02191690831515021790555060005b8451811015611c5f5781600001858281518110611bd057611bcf61341a565b5b6020026020010151908060018154018082558091505060019003906000526020600020906002020160009091909190915060008201518160000160006101000a81548173ffffffffffffffffffffffffffffffffffffffff021916908373ffffffffffffffffffffffffffffffffffffffff160217905550602082015181600101555050806001019050611bb0565b508473ffffffffffffffffffffffffffffffffffffffff167f0b863881f3fa0e42d1386f6601c4afdac31fb8f1078e53253bdd429748c32b216001604051611ca7919061395f565b60405180910390a250505050505b50505050565b6000611cfa838360405180602001604052806000815250606560009054906101000a900473ffffffffffffffffffffffffffffffffffffffff16612054565b905092915050565b6000603360009054906101000a900473ffffffffffffffffffffffffffffffffffffffff16905081603360006101000a81548173ffffffffffffffffffffffffffffffffffffffff021916908373ffffffffffffffffffffffffffffffffffffffff1602179055508173ffffffffffffffffffffffffffffffffffffffff168173ffffffffffffffffffffffffffffffffffffffff167f8be0079c531659141344cd1fd0a4f28419497f9722a3daafe3b4186f6b6457e060405160405180910390a35050565b611de28163ffffffff16609761210f90919063ffffffff16565b611deb8261201d565b90611e2c576040517f08c379a0000000000000000000000000000000000000000000000000000000008152600401611e239190612d7e565b60405180910390fd5b5050565b611e4c8263ffffffff168260976121329092919063ffffffff16565b5050565b600033905090565b600080611e6487611a39565b90507f000000000000000000000000000000000000000000000000000000000000000073ffffffffffffffffffffffffffffffffffffffff166310b83dc08789848989896040518763ffffffff1660e01b8152600401611ec89594939291906139cf565b60206040518083038185885af1158015611ee6573d6000803e3d6000fd5b50505050506040513d601f19601f82011682018060405250810190611f0b9190613a45565b91505095945050505050565b60008060008460020160008581526020019081526020016000205490506000801b8103611f5657611f488585612153565b6000801b9250925050611f5f565b60018192509250505b9250929050565b60606000611f7683600001612173565b90508067ffffffffffffffff811115611f9257611f916136a4565b5b604051908082528060200260200182016040528015611fc05781602001602082028036833780820191505090505b50915060005b8181101561201657611fe7818560000160000161218890919063ffffffff16565b60001c838281518110611ffd57611ffc61341a565b5b6020026020010181815250508080600101915050611fc6565b5050919050565b606061202e8263ffffffff1661219f565b60405160200161203e9190613ad4565b6040516020818303038152906040529050919050565b60008061206086611a39565b90507f000000000000000000000000000000000000000000000000000000000000000073ffffffffffffffffffffffffffffffffffffffff166381d2ea9587838888886040518663ffffffff1660e01b81526004016120c39594939291906139cf565b602060405180830381865afa1580156120e0573d6000803e3d6000fd5b505050506040513d601f19601f820116820180604052508101906121049190613b0f565b915050949350505050565b600061212a8260001b8460000161226d90919063ffffffff16565b905092915050565b61214d8260001b82856000016122a69092919063ffffffff16565b50505050565b600061216b82846000016122e190919063ffffffff16565b905092915050565b6000612181826000016122f8565b9050919050565b6000612197836000018361230d565b905092915050565b6060600060016121ae84612338565b01905060008167ffffffffffffffff8111156121cd576121cc6136a4565b5b6040519080825280601f01601f1916602001820160405280156121ff5781602001600182028036833780820191505090505b509050600082602001820190505b600115612262578080600190039150507f3031323334353637383961626364656600000000000000000000000000000000600a86061a8153600a85816122565761225561348b565b5b0494506000850361220d575b819350505050919050565b60008260020160008381526020019081526020016000206000905561229e828460000161248b90919063ffffffff16565b905092915050565b600081846002016000858152602001908152602001600020819055506122d883856000016124a290919063ffffffff16565b90509392505050565b60006122f083600001836124b9565b905092915050565b6000612306826000016124dc565b9050919050565b60008260000182815481106123255761232461341a565b5b9060005260206000200154905092915050565b600080600090507a184f03e93ff9f4daa797ed6e38ed64bf6a1f0100000000000000008310612396577a184f03e93ff9f4daa797ed6e38ed64bf6a1f010000000000000000838161238c5761238b61348b565b5b0492506040810190505b6d04ee2d6d415b85acef810000000083106123d3576d04ee2d6d415b85acef810000000083816123c9576123c861348b565b5b0492506020810190505b662386f26fc10000831061240257662386f26fc1000083816123f8576123f761348b565b5b0492506010810190505b6305f5e100831061242b576305f5e10083816124215761242061348b565b5b0492506008810190505b61271083106124505761271083816124465761244561348b565b5b0492506004810190505b6064831061247357606483816124695761246861348b565b5b0492506002810190505b600a8310612482576001810190505b80915050919050565b600061249a83600001836124ed565b905092915050565b60006124b18360000183612601565b905092915050565b600080836001016000848152602001908152602001600020541415905092915050565b600081600001805490509050919050565b600080836001016000848152602001908152602001600020549050600081146125f557600060018261251f9190613b3c565b90506000600186600001805490506125379190613b3c565b90508181146125a65760008660000182815481106125585761255761341a565b5b906000526020600020015490508087600001848154811061257c5761257b61341a565b5b90600052602060002001819055508387600101600083815260200190815260200160002081905550505b856000018054806125ba576125b9613b70565b5b6001900381819060005260206000200160009055905585600101600086815260200190815260200160002060009055600193505050506125fb565b60009150505b92915050565b600061260d83836124b9565b61266657826000018290806001815401808255809150506001900390600052602060002001600090919091909150558260000180549050836001016000848152602001908152602001600020819055506001905061266b565b600090505b92915050565b508054600082559060005260206000209081019061268f91906126b6565b50565b50805460008255600202906000526020600020908101906126b391906126d3565b50565b5b808211156126cf5760008160009055506001016126b7565b5090565b5b8082111561271557600080820160006101000a81549073ffffffffffffffffffffffffffffffffffffffff02191690556001820160009055506002016126d4565b5090565b6000819050919050565b7f4e487b7100000000000000000000000000000000000000000000000000000000600052601160045260246000fd5b600061275d82612719565b915061276883612719565b92508282019050808211156127805761277f612723565b5b92915050565b6000604051905090565b600080fd5b600080fd5b600073ffffffffffffffffffffffffffffffffffffffff82169050919050565b60006127c58261279a565b9050919050565b6127d5816127ba565b81146127e057600080fd5b50565b6000813590506127f2816127cc565b92915050565b60006020828403121561280e5761280d612790565b5b600061281c848285016127e3565b91505092915050565b61282e81612719565b82525050565b60006020820190506128496000830184612825565b92915050565b600063ffffffff82169050919050565b6128688161284f565b811461287357600080fd5b50565b6000813590506128858161285f565b92915050565b6000602082840312156128a1576128a0612790565b5b60006128af84828501612876565b91505092915050565b6000819050919050565b6128cb816128b8565b82525050565b60006020820190506128e660008301846128c2565b92915050565b6128f581612719565b811461290057600080fd5b50565b600081359050612912816128ec565b92915050565b6000806040838503121561292f5761292e612790565b5b600061293d858286016127e3565b925050602061294e85828601612903565b9150509250929050565b600081519050919050565b600082825260208201905092915050565b6000819050602082019050919050565b61298d8161284f565b82525050565b600061299f8383612984565b60208301905092915050565b6000602082019050919050565b60006129c382612958565b6129cd8185612963565b93506129d883612974565b8060005b83811015612a095781516129f08882612993565b97506129fb836129ab565b9250506001810190506129dc565b5085935050505092915050565b60006020820190508181036000830152612a3081846129b8565b905092915050565b60008060408385031215612a4f57612a4e612790565b5b6000612a5d858286016127e3565b9250506020612a6e858286016127e3565b9150509250929050565b612a818161284f565b82525050565b6000602082019050612a9c6000830184612a78565b92915050565b612aab816128b8565b8114612ab657600080fd5b50565b600081359050612ac881612aa2565b92915050565b600080fd5b600080fd5b600080fd5b60008083601f840112612af357612af2612ace565b5b8235905067ffffffffffffffff811115612b1057612b0f612ad3565b5b602083019150836001820283011115612b2c57612b2b612ad8565b5b9250929050565b60008060008060608587031215612b4d57612b4c612790565b5b6000612b5b87828801612876565b9450506020612b6c87828801612ab9565b935050604085013567ffffffffffffffff811115612b8d57612b8c612795565b5b612b9987828801612add565b925092505092959194509250565b60008083601f840112612bbd57612bbc612ace565b5b8235905067ffffffffffffffff811115612bda57612bd9612ad3565b5b602083019150836020820283011115612bf657612bf5612ad8565b5b9250929050565b60008060208385031215612c1457612c13612790565b5b600083013567ffffffffffffffff811115612c3257612c31612795565b5b612c3e85828601612ba7565b92509250509250929050565b6000819050919050565b6000612c6f612c6a612c658461279a565b612c4a565b61279a565b9050919050565b6000612c8182612c54565b9050919050565b6000612c9382612c76565b9050919050565b612ca381612c88565b82525050565b6000602082019050612cbe6000830184612c9a565b92915050565b612ccd816127ba565b82525050565b6000602082019050612ce86000830184612cc4565b92915050565b600081519050919050565b600082825260208201905092915050565b60005b83811015612d28578082015181840152602081019050612d0d565b60008484015250505050565b6000601f19601f8301169050919050565b6000612d5082612cee565b612d5a8185612cf9565b9350612d6a818560208601612d0a565b612d7381612d34565b840191505092915050565b60006020820190508181036000830152612d988184612d45565b905092915050565b60008060408385031215612db757612db6612790565b5b6000612dc585828601612876565b9250506020612dd685828601612ab9565b9150509250929050565b6000612deb82612c76565b9050919050565b612dfb81612de0565b82525050565b6000602082019050612e166000830184612df2565b92915050565b6000612e2782612c76565b9050919050565b612e3781612e1c565b82525050565b6000602082019050612e526000830184612e2e565b92915050565b60008083601f840112612e6e57612e6d612ace565b5b8235905067ffffffffffffffff811115612e8b57612e8a612ad3565b5b602083019150836020820283011115612ea757612ea6612ad8565b5b9250929050565b60008060008060408587031215612ec857612ec7612790565b5b600085013567ffffffffffffffff811115612ee657612ee5612795565b5b612ef287828801612ba7565b9450945050602085013567ffffffffffffffff811115612f1557612f14612795565b5b612f2187828801612e58565b925092505092959194509250565b600081519050919050565b600082825260208201905092915050565b6000819050602082019050919050565b612f64816127ba565b82525050565b6000612f768383612f5b565b60208301905092915050565b6000602082019050919050565b6000612f9a82612f2f565b612fa48185612f3a565b9350612faf83612f4b565b8060005b83811015612fe0578151612fc78882612f6a565b9750612fd283612f82565b925050600181019050612fb3565b5085935050505092915050565b600081519050919050565b600082825260208201905092915050565b6000819050602082019050919050565b61302281612719565b82525050565b60006130348383613019565b60208301905092915050565b6000602082019050919050565b600061305882612fed565b6130628185612ff8565b935061306d83613009565b8060005b8381101561309e5781516130858882613028565b975061309083613040565b925050600181019050613071565b5085935050505092915050565b60006060820190506130c06000830186612825565b81810360208301526130d28185612f8f565b905081810360408301526130e6818461304d565b9050949350505050565b7f4d61696c626f78436c69656e743a20696e76616c696420636f6e74726163742060008201527f73657474696e6700000000000000000000000000000000000000000000000000602082015250565b600061314c602783612cf9565b9150613157826130f0565b604082019050919050565b6000602082019050818103600083015261317b8161313f565b9050919050565b60006060820190506131976000830186612cc4565b6131a46020830185612cc4565b6131b16040830184612825565b949350505050565b60008115159050919050565b6131ce816131b9565b81146131d957600080fd5b50565b6000815190506131eb816131c5565b92915050565b60006020828403121561320757613206612790565b5b6000613215848285016131dc565b91505092915050565b7f5472616e73666572206661696c65640000000000000000000000000000000000600082015250565b6000613254600f83612cf9565b915061325f8261321e565b602082019050919050565b6000602082019050818103600083015261328381613247565b9050919050565b7f4d61696c626f78436c69656e743a2073656e646572206e6f74206d61696c626f60008201527f7800000000000000000000000000000000000000000000000000000000000000602082015250565b60006132e6602183612cf9565b91506132f18261328a565b604082019050919050565b60006020820190508181036000830152613315816132d9565b9050919050565b7f456e726f6c6c656420726f7574657220646f6573206e6f74206d61746368207360008201527f656e646572000000000000000000000000000000000000000000000000000000602082015250565b6000613378602583612cf9565b91506133838261331c565b604082019050919050565b600060208201905081810360008301526133a78161336b565b9050919050565b7f57696c6c206e6f742079657420617661696c61626c6500000000000000000000600082015250565b60006133e4601683612cf9565b91506133ef826133ae565b602082019050919050565b60006020820190508181036000830152613413816133d7565b9050919050565b7f4e487b7100000000000000000000000000000000000000000000000000000000600052603260045260246000fd5b600061345482612719565b915061345f83612719565b925082820261346d81612719565b9150828204841483151761348457613483612723565b5b5092915050565b7f4e487b7100000000000000000000000000000000000000000000000000000000600052601260045260246000fd5b60006134c582612719565b91506134d083612719565b9250826134e0576134df61348b565b5b828204905092915050565b60006040820190506135006000830185612cc4565b61350d6020830184612825565b9392505050565b7f5661756c743a20656e726f6c6c52656d6f7465526f757465722069732064697360008201527f61626c6564000000000000000000000000000000000000000000000000000000602082015250565b6000613570602583612cf9565b915061357b82613514565b604082019050919050565b6000602082019050818103600083015261359f81613563565b9050919050565b7f216c656e67746800000000000000000000000000000000000000000000000000600082015250565b60006135dc600783612cf9565b91506135e7826135a6565b602082019050919050565b6000602082019050818103600083015261360b816135cf565b9050919050565b7f4f776e61626c653a206e6577206f776e657220697320746865207a65726f206160008201527f6464726573730000000000000000000000000000000000000000000000000000602082015250565b600061366e602683612cf9565b915061367982613612565b604082019050919050565b6000602082019050818103600083015261369d81613661565b9050919050565b7f4e487b7100000000000000000000000000000000000000000000000000000000600052604160045260246000fd5b7f4f776e61626c653a2063616c6c6572206973206e6f7420746865206f776e6572600082015250565b6000613709602083612cf9565b9150613714826136d3565b602082019050919050565b60006020820190508181036000830152613738816136fc565b9050919050565b600061374a8261279a565b9050919050565b61375a8161373f565b811461376557600080fd5b50565b60008135905061377781613751565b92915050565b61378682612d34565b810181811067ffffffffffffffff821117156137a5576137a46136a4565b5b80604052505050565b60006137b8612786565b90506137c4828261377d565b919050565b600067ffffffffffffffff8211156137e4576137e36136a4565b5b602082029050602081019050919050565b600080fd5b6000604082840312156138105761380f6137f5565b5b61381a60406137ae565b9050600061382a848285016127e3565b600083015250602061383e84828501612903565b60208301525092915050565b600061385d613858846137c9565b6137ae565b905080838252602082019050604084028301858111156138805761387f612ad8565b5b835b818110156138a9578061389588826137fa565b845260208401935050604081019050613882565b5050509392505050565b600082601f8301126138c8576138c7612ace565b5b81356138d884826020860161384a565b91505092915050565b6000806000606084860312156138fa576138f9612790565b5b600061390886828701613768565b935050602084013567ffffffffffffffff81111561392957613928612795565b5b613935868287016138b3565b925050604061394686828701612903565b9150509250925092565b613959816131b9565b82525050565b60006020820190506139746000830184613950565b92915050565b600081519050919050565b600082825260208201905092915050565b60006139a18261397a565b6139ab8185613985565b93506139bb818560208601612d0a565b6139c481612d34565b840191505092915050565b600060a0820190506139e46000830188612a78565b6139f160208301876128c2565b8181036040830152613a038186613996565b90508181036060830152613a178185613996565b9050613a266080830184612c9a565b9695505050505050565b600081519050613a3f81612aa2565b92915050565b600060208284031215613a5b57613a5a612790565b5b6000613a6984828501613a30565b91505092915050565b7f4e6f20726f7574657220656e726f6c6c656420666f7220646f6d61696e3a2000815250565b600081905092915050565b6000613aae82612cee565b613ab88185613a98565b9350613ac8818560208601612d0a565b80840191505092915050565b6000613adf82613a72565b601f82019150613aef8284613aa3565b915081905092915050565b600081519050613b09816128ec565b92915050565b600060208284031215613b2557613b24612790565b5b6000613b3384828501613afa565b91505092915050565b6000613b4782612719565b9150613b5283612719565b9250828203905081811115613b6a57613b69612723565b5b92915050565b7f4e487b7100000000000000000000000000000000000000000000000000000000600052603160045260246000fdfea26469706673582212209d2c43d8ce7c32422bdf04c82f71b3f2621d19c47b0df00de086b04e19193e2e64736f6c634300081c0033",
  "linkReferences": {},
  "deployedLinkReferences": {}
}