{
  "_format": "hh-sol-artifact-1",
  "contractName": "Vault",
  "sourceName": "contracts/Vault.sol",
  "abi": [
    {
      "inputs": [
        {
          "internalType": "address",
          "name": "_mailbox",
          "type": "address"
        },
        {
          "internalType": "uint32",
          "name": "_testamentDomain",
          "type": "uint32"
        },
        {
          "internalType": "address",
          "name": "_testamentAddr",
          "type": "address"
        }
      ],
      "stateMutability": "nonpayable",
      "type": "constructor"
    },
    {
      "anonymous": false,
      "inputs": [
        {
          "indexed": false,
          "internalType": "address",
          "name": "_hook",
          "type": "address"
        }
      ],
      "name": "HookSet",
      "type": "event"
    },
    {
      "anonymous": false,
      "inputs": [
        {
          "indexed": false,
          "internalType": "uint8",
          "name": "version",
          "type": "uint8"
        }
      ],
      "name": "Initialized",
      "type": "event"
    },
    {
      "anonymous": false,
      "inputs": [
        {
          "indexed": false,
          "internalType": "address",
          "name": "_ism",
          "type": "address"
        }
      ],
      "name": "IsmSet",
      "type": "event"
    },
    {
      "anonymous": false,
      "inputs": [
        {
          "indexed": true,
          "internalType": "address",
          "name": "previousOwner",
          "type": "address"
        },
        {
          "indexed": true,
          "internalType": "address",
          "name": "newOwner",
          "type": "address"
        }
      ],
      "name": "OwnershipTransferred",
      "type": "event"
    },
    {
      "anonymous": false,
      "inputs": [
        {
          "indexed": true,
          "internalType": "address",
          "name": "creator",
          "type": "address"
        },
        {
          "indexed": false,
          "internalType": "bool",
          "name": "available",
          "type": "bool"
        }
      ],
      "name": "WillReceived",
      "type": "event"
    },
    {
      "inputs": [],
      "name": "HANDLE_GAS_AMOUNT",
      "outputs": [
        {
          "internalType": "uint256",
          "name": "",
          "type": "uint256"
        }
      ],
      "stateMutability": "view",
      "type": "function"
    },
    {
      "inputs": [],
      "name": "PACKAGE_VERSION",
      "outputs": [
        {
          "internalType": "string",
          "name": "",
          "type": "string"
        }
      ],
      "stateMutability": "view",
      "type": "function"
    },
    {
      "inputs": [
        {
          "internalType": "address",
          "name": "token",
          "type": "address"
        },
        {
          "internalType": "uint256",
          "name": "amount",
          "type": "uint256"
        }
      ],
      "name": "depositToken",
      "outputs": [],
      "stateMutability": "nonpayable",
      "type": "function"
    },
    {
      "inputs": [
        {
          "internalType": "address",
          "name": "creator",
          "type": "address"
        }
      ],
      "name": "distribute",
      "outputs": [],
      "stateMutability": "nonpayable",
      "type": "function"
    },
    {
      "inputs": [],
      "name": "domains",
      "outputs": [
        {
          "internalType": "uint32[]",
          "name": "",
          "type": "uint32[]"
        }
      ],
      "stateMutability": "view",
      "type": "function"
    },
    {
      "inputs": [
        {
          "internalType": "uint32",
          "name": "",
          "type": "uint32"
        },
        {
          "internalType": "bytes32",
          "name": "",
          "type": "bytes32"
        }
      ],
      "name": "enrollRemoteRouter",
      "outputs": [],
      "stateMutability": "pure",
      "type": "function"
    },
    {
      "inputs": [
        {
          "internalType": "uint32[]",
          "name": "_domains",
          "type": "uint32[]"
        },
        {
          "internalType": "bytes32[]",
          "name": "_addresses",
          "type": "bytes32[]"
        }
      ],
      "name": "enrollRemoteRouters",
      "outputs": [],
      "stateMutability": "nonpayable",
      "type": "function"
    },
    {
      "inputs": [
        {
          "internalType": "address",
          "name": "",
          "type": "address"
        }
      ],
      "name": "ethBalances",
      "outputs": [
        {
          "internalType": "uint256",
          "name": "",
          "type": "uint256"
        }
      ],
      "stateMutability": "view",
      "type": "function"
    },
    {
      "inputs": [
        {
          "internalType": "address",
          "name": "creator",
          "type": "address"
        }
      ],
      "name": "getBalance",
      "outputs": [
        {
          "internalType": "uint256",
          "name": "eth",
          "type": "uint256"
        },
        {
          "internalType": "address[]",
          "name": "tokens",
          "type": "address[]"
        },
        {
          "internalType": "uint256[]",
          "name": "amounts",
          "type": "uint256[]"
        }
      ],
      "stateMutability": "view",
      "type": "function"
    },
    {
      "inputs": [
        {
          "internalType": "uint32",
          "name": "_origin",
          "type": "uint32"
        },
        {
          "internalType": "bytes32",
          "name": "_sender",
          "type": "bytes32"
        },
        {
          "internalType": "bytes",
          "name": "_message",
          "type": "bytes"
        }
      ],
      "name": "handle",
      "outputs": [],
      "stateMutability": "payable",
      "type": "function"
    },
    {
      "inputs": [],
      "name": "hook",
      "outputs": [
        {
          "internalType": "contract IPostDispatchHook",
          "name": "",
          "type": "address"
        }
      ],
      "stateMutability": "view",
      "type": "function"
    },
    {
      "inputs": [],
      "name": "interchainSecurityModule",
      "outputs": [
        {
          "internalType": "contract IInterchainSecurityModule",
          "name": "",
          "type": "address"
        }
      ],
      "stateMutability": "view",
      "type": "function"
    },
    {
      "inputs": [],
      "name": "localDomain",
      "outputs": [
        {
          "internalType": "uint32",
          "name": "",
          "type": "uint32"
        }
      ],
      "stateMutability": "view",
      "type": "function"
    },
    {
      "inputs": [],
      "name": "mailbox",
      "outputs": [
        {
          "internalType": "contract IMailbox",
          "name": "",
          "type": "address"
        }
      ],
      "stateMutability": "view",
      "type": "function"
    },
    {
      "inputs": [],
      "name": "owner",
      "outputs": [
        {
          "internalType": "address",
          "name": "",
          "type": "address"
        }
      ],
      "stateMutability": "view",
      "type": "function"
    },
    {
      "inputs": [
        {
          "internalType": "address",
          "name": "creator",
          "type": "address"
        }
      ],
      "name": "quoteRequestWill",
      "outputs": [
        {
          "internalType": "uint256",
          "name": "",
          "type": "uint256"
        }
      ],
      "stateMutability": "view",
      "type": "function"
    },
    {
      "inputs": [],
      "name": "renounceOwnership",
      "outputs": [],
      "stateMutability": "nonpayable",
      "type": "function"
    },
    {
      "inputs": [
        {
          "internalType": "address",
          "name": "creator",
          "type": "address"
        }
      ],
      "name": "requestWill",
      "outputs": [],
      "stateMutability": "payable",
      "type": "function"
    },
    {
      "inputs": [
        {
          "internalType": "uint32",
          "name": "_domain",
          "type": "uint32"
        }
      ],
      "name": "routers",
      "outputs": [
        {
          "internalType": "bytes32",
          "name": "",
          "type": "bytes32"
        }
      ],
      "stateMutability": "view",
      "type": "function"
    },
    {
      "inputs": [
        {
          "internalType": "address",
          "name": "_hook",
          "type": "address"
        }
      ],
      "name": "setHook",
      "outputs": [],
      "stateMutability": "nonpayable",
      "type": "function"
    },
    {
      "inputs": [
        {
          "internalType": "address",
          "name": "_module",
          "type": "address"
        }
      ],
      "name": "setInterchainSecurityModule",
      "outputs": [],
      "stateMutability": "nonpayable",
      "type": "function"
    },
    {
      "inputs": [],
      "name": "testamentDomain",
      "outputs": [
        {
          "internalType": "uint32",
          "name": "",
          "type": "uint32"
        }
      ],
      "stateMutability": "view",
      "type": "function"
    },
    {
      "inputs": [
        {
          "internalType": "address",
          "name": "",
          "type": "address"
        },
        {
          "internalType": "address",
          "name": "",
          "type": "address"
        }
      ],
      "name": "tokenBalances",
      "outputs": [
        {
          "internalType": "uint256",
          "name": "",
          "type": "uint256"
        }
      ],
      "stateMutability": "view",
      "type": "function"
    },
    {
      "inputs": [
        {
          "internalType": "address",
          "name": "newOwner",
          "type": "address"
        }
      ],
      "name": "transferOwnership",
      "outputs": [],
      "stateMutability": "nonpayable",
      "type": "function"
    },
    {
      "inputs": [
        {
          "internalType": "uint32",
          "name": "_domain",
          "type": "uint32"
        }
      ],
      "name": "unenrollRemoteRouter",
      "outputs": [],
      "stateMutability": "nonpayable",
      "type": "function"
    },
    {
      "inputs": [
        {
          "internalType": "uint32[]",
          "name": "_domains",
          "type": "uint32[]"
        }
      ],
      "name": "unenrollRemoteRouters",
      "outputs": [],
      "stateMutability": "nonpayable",
      "type": "function"
    },
    {
      "inputs": [],
      "name": "withdraw",
      "outputs": [],
      "stateMutability": "nonpayable",
      "type": "function"
    },
    {
      "stateMutability": "payable",
      "type": "receive"
    }
  ],
  "bytecode": "0x60e060405234801561001057600080fd5b5060405161482738038061482783398181016040528101906100329190610637565b828080610044816101b160201b60201c565b610083576040517f08c379a000000000000000000000000000000000000000000000000000000000815260040161007a906106e7565b60405180910390fd5b8173ffffffffffffffffffffffffffffffffffffffff1660808173ffffffffffffffffffffffffffffffffffffffff168152505060805173ffffffffffffffffffffffffffffffffffffffff16638d3638f46040518163ffffffff1660e01b8152600401602060405180830381865afa158015610104573d6000803e3d6000fd5b505050506040513d601f19601f820116820180604052508101906101289190610707565b63ffffffff1660a08163ffffffff168152505061014a336101d460201b60201c565b50505061015c336101d460201b60201c565b61016c600061029a60201b60201c565b8163ffffffff1660c08163ffffffff16815250506101a9828273ffffffffffffffffffffffffffffffffffffffff1660001b6103aa60201b60201c565b50505061085c565b6000808273ffffffffffffffffffffffffffffffffffffffff163b119050919050565b6000603360009054906101000a900473ffffffffffffffffffffffffffffffffffffffff16905081603360006101000a81548173ffffffffffffffffffffffffffffffffffffffff021916908373ffffffffffffffffffffffffffffffffffffffff1602179055508173ffffffffffffffffffffffffffffffffffffffff168173ffffffffffffffffffffffffffffffffffffffff167f8be0079c531659141344cd1fd0a4f28419497f9722a3daafe3b4186f6b6457e060405160405180910390a35050565b806102aa816101b160201b60201c565b806102e15750600073ffffffffffffffffffffffffffffffffffffffff168173ffffffffffffffffffffffffffffffffffffffff16145b610320576040517f08c379a0000000000000000000000000000000000000000000000000000000008152600401610317906107a6565b60405180910390fd5b61032e6103ca60201b60201c565b81606560006101000a81548173ffffffffffffffffffffffffffffffffffffffff021916908373ffffffffffffffffffffffffffffffffffffffff1602179055507f4eab7b127c764308788622363ad3e9532de3dfba7845bd4f84c125a22544255a8260405161039e91906107d5565b60405180910390a15050565b6103c68263ffffffff1682609761045460201b9092919060201c565b5050565b6103d861047560201b60201c565b73ffffffffffffffffffffffffffffffffffffffff166103fc61047d60201b60201c565b73ffffffffffffffffffffffffffffffffffffffff1614610452576040517f08c379a00000000000000000000000000000000000000000000000000000000081526004016104499061083c565b60405180910390fd5b565b61046f8260001b82856000016104a760201b9092919060201c565b50505050565b600033905090565b6000603360009054906101000a900473ffffffffffffffffffffffffffffffffffffffff16905090565b600081846002016000858152602001908152602001600020819055506104d983856000016104e260201b90919060201c565b90509392505050565b60006104f783600001836104ff60201b60201c565b905092915050565b6000610511838361057560201b60201c565b61056a57826000018290806001815401808255809150506001900390600052602060002001600090919091909150558260000180549050836001016000848152602001908152602001600020819055506001905061056f565b600090505b92915050565b600080836001016000848152602001908152602001600020541415905092915050565b600080fd5b600073ffffffffffffffffffffffffffffffffffffffff82169050919050565b60006105c88261059d565b9050919050565b6105d8816105bd565b81146105e357600080fd5b50565b6000815190506105f5816105cf565b92915050565b600063ffffffff82169050919050565b610614816105fb565b811461061f57600080fd5b50565b6000815190506106318161060b565b92915050565b6000806000606084860312156106505761064f610598565b5b600061065e868287016105e6565b935050602061066f86828701610622565b9250506040610680868287016105e6565b9150509250925092565b600082825260208201905092915050565b7f4d61696c626f78436c69656e743a20696e76616c6964206d61696c626f780000600082015250565b60006106d1601e8361068a565b91506106dc8261069b565b602082019050919050565b60006020820190508181036000830152610700816106c4565b9050919050565b60006020828403121561071d5761071c610598565b5b600061072b84828501610622565b91505092915050565b7f4d61696c626f78436c69656e743a20696e76616c696420636f6e74726163742060008201527f73657474696e6700000000000000000000000000000000000000000000000000602082015250565b600061079060278361068a565b915061079b82610734565b604082019050919050565b600060208201905081810360008301526107bf81610783565b9050919050565b6107cf816105bd565b82525050565b60006020820190506107ea60008301846107c6565b92915050565b7f4f776e61626c653a2063616c6c6572206973206e6f7420746865206f776e6572600082015250565b600061082660208361068a565b9150610831826107f0565b602082019050919050565b6000602082019050818103600083015261085581610819565b9050919050565b60805160a05160c051613f796108ae600039600081816107c101528181610f7e015261161a01526000611706015260008181610fa2015281816117c8015281816121a0015261239c0152613f796000f3fe6080604052600436106101a05760003560e01c80636d6b3731116100ec578063b49c53a71161008a578063e9198bf911610064578063e9198bf9146105d4578063efae508a146105fd578063f2fde38b14610626578063f8b2cb4f1461064f576101fc565b8063b49c53a714610555578063d5438eae1461057e578063de523cf3146105a9576101fc565b80637f5a7c7b116100c65780637f5a7c7b146104a95780638d3638f4146104d45780638da5cb5b146104ff57806393c448471461052a576101fc565b80636d6b37311461042c578063715018a61461046957806371a15b3814610480576101fc565b80633cfba0e3116101595780634dbf6c5a116101335780634dbf6c5a1461037f5780635509d6e7146103bc57806356d5d475146103e757806363453ae114610403576101fc565b80633cfba0e3146102ee5780633dfd38731461032b578063440df4f414610354576101fc565b80630e72cc061461020157806312f762221461022a5780631621ab16146102555780632ead72f614610271578063338b5dea146102ae5780633ccfd60b146102d7576101fc565b366101fc573460ca60003373ffffffffffffffffffffffffffffffffffffffff1673ffffffffffffffffffffffffffffffffffffffff16815260200190815260200160002060008282546101f49190612a8a565b925050819055005b600080fd5b34801561020d57600080fd5b5061022860048036038101906102239190612b30565b61068e565b005b34801561023657600080fd5b5061023f610792565b60405161024c9190612b6c565b60405180910390f35b61026f600480360381019061026a9190612b30565b610798565b005b34801561027d57600080fd5b5061029860048036038101906102939190612bc3565b6107eb565b6040516102a59190612c09565b60405180910390f35b3480156102ba57600080fd5b506102d560048036038101906102d09190612c50565b610814565b005b3480156102e357600080fd5b506102ec610a8f565b005b3480156102fa57600080fd5b5061031560048036038101906103109190612b30565b610e2a565b6040516103229190612b6c565b60405180910390f35b34801561033757600080fd5b50610352600480360381019061034d9190612b30565b610e42565b005b34801561036057600080fd5b50610369610f46565b6040516103769190612d4e565b60405180910390f35b34801561038b57600080fd5b506103a660048036038101906103a19190612d70565b610f57565b6040516103b39190612b6c565b60405180910390f35b3480156103c857600080fd5b506103d1610f7c565b6040516103de9190612dbf565b60405180910390f35b61040160048036038101906103fc9190612e6b565b610fa0565b005b34801561040f57600080fd5b5061042a60048036038101906104259190612b30565b611090565b005b34801561043857600080fd5b50610453600480360381019061044e9190612b30565b611613565b6040516104609190612b6c565b60405180910390f35b34801561047557600080fd5b5061047e611665565b005b34801561048c57600080fd5b506104a760048036038101906104a29190612f35565b611679565b005b3480156104b557600080fd5b506104be6116de565b6040516104cb9190612fe1565b60405180910390f35b3480156104e057600080fd5b506104e9611704565b6040516104f69190612dbf565b60405180910390f35b34801561050b57600080fd5b50610514611728565b604051610521919061300b565b60405180910390f35b34801561053657600080fd5b5061053f611752565b60405161054c91906130b6565b60405180910390f35b34801561056157600080fd5b5061057c600480360381019061057791906130d8565b61178b565b005b34801561058a57600080fd5b506105936117c6565b6040516105a09190613139565b60405180910390f35b3480156105b557600080fd5b506105be6117ea565b6040516105cb9190613175565b60405180910390f35b3480156105e057600080fd5b506105fb60048036038101906105f691906131e6565b611810565b005b34801561060957600080fd5b50610624600480360381019061061f9190612bc3565b6118d9565b005b34801561063257600080fd5b5061064d60048036038101906106489190612b30565b6118ed565b005b34801561065b57600080fd5b5061067660048036038101906106719190612b30565b611970565b604051610685939291906133e3565b60405180910390f35b8061069881611b9e565b806106cf5750600073ffffffffffffffffffffffffffffffffffffffff168173ffffffffffffffffffffffffffffffffffffffff16145b61070e576040517f08c379a00000000000000000000000000000000000000000000000000000000081526004016107059061349a565b60405180910390fd5b610716611bc1565b81606660006101000a81548173ffffffffffffffffffffffffffffffffffffffff021916908373ffffffffffffffffffffffffffffffffffffffff1602179055507fc47cbcc588c67679e52261c45cc315e56562f8d0ccaba16facb9093ff949879982604051610786919061300b565b60405180910390a15050565b61c35081565b6000816040516020016107ab919061300b565b60405160208183030381529060405290506107e67f000000000000000000000000000000000000000000000000000000000000000082611c3f565b505050565b6000806108088363ffffffff166097611c8790919063ffffffff16565b91505080915050919050565b8173ffffffffffffffffffffffffffffffffffffffff166323b872dd3330846040518463ffffffff1660e01b8152600401610851939291906134ba565b6020604051808303816000875af1158015610870573d6000803e3d6000fd5b505050506040513d601f19601f820116820180604052508101906108949190613529565b6108d3576040517f08c379a00000000000000000000000000000000000000000000000000000000081526004016108ca906135a2565b60405180910390fd5b600060cb60003373ffffffffffffffffffffffffffffffffffffffff1673ffffffffffffffffffffffffffffffffffffffff16815260200190815260200160002060008473ffffffffffffffffffffffffffffffffffffffff1673ffffffffffffffffffffffffffffffffffffffff16815260200190815260200160002054036109f85760cd60003373ffffffffffffffffffffffffffffffffffffffff1673ffffffffffffffffffffffffffffffffffffffff168152602001908152602001600020829080600181540180825580915050600190039060005260206000200160009091909190916101000a81548173ffffffffffffffffffffffffffffffffffffffff021916908373ffffffffffffffffffffffffffffffffffffffff1602179055505b8060cb60003373ffffffffffffffffffffffffffffffffffffffff1673ffffffffffffffffffffffffffffffffffffffff16815260200190815260200160002060008473ffffffffffffffffffffffffffffffffffffffff1673ffffffffffffffffffffffffffffffffffffffff1681526020019081526020016000206000828254610a849190612a8a565b925050819055505050565b6000339050600060ca60008373ffffffffffffffffffffffffffffffffffffffff1673ffffffffffffffffffffffffffffffffffffffff168152602001908152602001600020549050600060ca60008473ffffffffffffffffffffffffffffffffffffffff1673ffffffffffffffffffffffffffffffffffffffff168152602001908152602001600020819055506000811115610b6e578173ffffffffffffffffffffffffffffffffffffffff166108fc829081150290604051600060405180830381858888f19350505050158015610b6c573d6000803e3d6000fd5b505b600060cd60008473ffffffffffffffffffffffffffffffffffffffff1673ffffffffffffffffffffffffffffffffffffffff168152602001908152602001600020905060005b8180549050811015610dd9576000828281548110610bd557610bd46135c2565b5b9060005260206000200160009054906101000a900473ffffffffffffffffffffffffffffffffffffffff169050600060cb60008773ffffffffffffffffffffffffffffffffffffffff1673ffffffffffffffffffffffffffffffffffffffff16815260200190815260200160002060008373ffffffffffffffffffffffffffffffffffffffff1673ffffffffffffffffffffffffffffffffffffffff1681526020019081526020016000205490506000811115610dcc57600060cb60008873ffffffffffffffffffffffffffffffffffffffff1673ffffffffffffffffffffffffffffffffffffffff16815260200190815260200160002060008473ffffffffffffffffffffffffffffffffffffffff1673ffffffffffffffffffffffffffffffffffffffff168152602001908152602001600020819055508173ffffffffffffffffffffffffffffffffffffffff1663a9059cbb87836040518363ffffffff1660e01b8152600401610d499291906135f1565b6020604051808303816000875af1158015610d68573d6000803e3d6000fd5b505050506040513d601f19601f82011682018060405250810190610d8c9190613529565b610dcb576040517f08c379a0000000000000000000000000000000000000000000000000000000008152600401610dc290613666565b60405180910390fd5b5b5050806001019050610bb4565b5060cd60008473ffffffffffffffffffffffffffffffffffffffff1673ffffffffffffffffffffffffffffffffffffffff1681526020019081526020016000206000610e2591906129a9565b505050565b60ca6020528060005260406000206000915090505481565b80610e4c81611b9e565b80610e835750600073ffffffffffffffffffffffffffffffffffffffff168173ffffffffffffffffffffffffffffffffffffffff16145b610ec2576040517f08c379a0000000000000000000000000000000000000000000000000000000008152600401610eb99061349a565b60405180910390fd5b610eca611bc1565b81606560006101000a81548173ffffffffffffffffffffffffffffffffffffffff021916908373ffffffffffffffffffffffffffffffffffffffff1602179055507f4eab7b127c764308788622363ad3e9532de3dfba7845bd4f84c125a22544255a82604051610f3a919061300b565b60405180910390a15050565b6060610f526097611cae565b905090565b60cb602052816000526040600020602052806000526040600020600091509150505481565b7f000000000000000000000000000000000000000000000000000000000000000081565b7f000000000000000000000000000000000000000000000000000000000000000073ffffffffffffffffffffffffffffffffffffffff163373ffffffffffffffffffffffffffffffffffffffff161461102e576040517f08c379a0000000000000000000000000000000000000000000000000000000008152600401611025906136f8565b60405180910390fd5b600061103985611d71565b905083811461107d576040517f08c379a00000000000000000000000000000000000000000000000000000000081526004016110749061378a565b60405180910390fd5b61108985858585611dee565b5050505050565b600060cc60008373ffffffffffffffffffffffffffffffffffffffff1673ffffffffffffffffffffffffffffffffffffffff16815260200190815260200160002090508060020160009054906101000a900460ff16611124576040517f08c379a000000000000000000000000000000000000000000000000000000000815260040161111b906137f6565b60405180910390fd5b600060ca60008473ffffffffffffffffffffffffffffffffffffffff1673ffffffffffffffffffffffffffffffffffffffff168152602001908152602001600020549050600060ca60008573ffffffffffffffffffffffffffffffffffffffff1673ffffffffffffffffffffffffffffffffffffffff1681526020019081526020016000208190555060008111156112aa5760005b82600001805490508110156112a857600083600101548460000183815481106111e5576111e46135c2565b5b906000526020600020906002020160010154846112029190613816565b61120c9190613887565b9050836000018281548110611224576112236135c2565b5b906000526020600020906002020160000160009054906101000a900473ffffffffffffffffffffffffffffffffffffffff1673ffffffffffffffffffffffffffffffffffffffff166108fc829081150290604051600060405180830381858888f1935050505015801561129b573d6000803e3d6000fd5b50508060010190506111b9565b505b600060cd60008573ffffffffffffffffffffffffffffffffffffffff1673ffffffffffffffffffffffffffffffffffffffff168152602001908152602001600020905060005b81805490508110156115c1576000828281548110611311576113106135c2565b5b9060005260206000200160009054906101000a900473ffffffffffffffffffffffffffffffffffffffff169050600060cb60008873ffffffffffffffffffffffffffffffffffffffff1673ffffffffffffffffffffffffffffffffffffffff16815260200190815260200160002060008373ffffffffffffffffffffffffffffffffffffffff1673ffffffffffffffffffffffffffffffffffffffff16815260200190815260200160002054905060008111156115b457600060cb60008973ffffffffffffffffffffffffffffffffffffffff1673ffffffffffffffffffffffffffffffffffffffff16815260200190815260200160002060008473ffffffffffffffffffffffffffffffffffffffff1673ffffffffffffffffffffffffffffffffffffffff1681526020019081526020016000208190555060005b86600001805490508110156115b25760008760010154886000018381548110611479576114786135c2565b5b906000526020600020906002020160010154846114969190613816565b6114a09190613887565b90508373ffffffffffffffffffffffffffffffffffffffff1663a9059cbb8960000184815481106114d4576114d36135c2565b5b906000526020600020906002020160000160009054906101000a900473ffffffffffffffffffffffffffffffffffffffff16836040518363ffffffff1660e01b81526004016115249291906135f1565b6020604051808303816000875af1158015611543573d6000803e3d6000fd5b505050506040513d601f19601f820116820180604052508101906115679190613529565b6115a6576040517f08c379a000000000000000000000000000000000000000000000000000000000815260040161159d906135a2565b60405180910390fd5b5080600101905061144d565b505b50508060010190506112f0565b5060cd60008573ffffffffffffffffffffffffffffffffffffffff1673ffffffffffffffffffffffffffffffffffffffff168152602001908152602001600020600061160d91906129a9565b50505050565b600061165e7f00000000000000000000000000000000000000000000000000000000000000008360405160200161164a919061300b565b604051602081830303815290604052611ff3565b9050919050565b61166d611bc1565b611677600061203a565b565b611681611bc1565b600082829050905060005b818110156116d8576116c48484838181106116aa576116a96135c2565b5b90506020020160208101906116bf9190612bc3565b612100565b6001816116d19190612a8a565b905061168c565b50505050565b606560009054906101000a900473ffffffffffffffffffffffffffffffffffffffff1681565b7f000000000000000000000000000000000000000000000000000000000000000081565b6000603360009054906101000a900473ffffffffffffffffffffffffffffffffffffffff16905090565b6040518060400160405280600581526020017f372e312e3400000000000000000000000000000000000000000000000000000081525081565b6040517f08c379a00000000000000000000000000000000000000000000000000000000081526004016117bd9061392a565b60405180910390fd5b7f000000000000000000000000000000000000000000000000000000000000000081565b606660009054906101000a900473ffffffffffffffffffffffffffffffffffffffff1681565b611818611bc1565b818190508484905014611860576040517f08c379a000000000000000000000000000000000000000000000000000000000815260040161185790613996565b60405180910390fd5b600084849050905060005b818110156118d1576118bd868683818110611889576118886135c2565b5b905060200201602081019061189e9190612bc3565b8585848181106118b1576118b06135c2565b5b90506020020135612168565b6001816118ca9190612a8a565b905061186b565b505050505050565b6118e1611bc1565b6118ea81612100565b50565b6118f5611bc1565b600073ffffffffffffffffffffffffffffffffffffffff168173ffffffffffffffffffffffffffffffffffffffff1603611964576040517f08c379a000000000000000000000000000000000000000000000000000000000815260040161195b90613a28565b60405180910390fd5b61196d8161203a565b50565b600060608060ca60008573ffffffffffffffffffffffffffffffffffffffff1673ffffffffffffffffffffffffffffffffffffffff16815260200190815260200160002054925060cd60008573ffffffffffffffffffffffffffffffffffffffff1673ffffffffffffffffffffffffffffffffffffffff168152602001908152602001600020805480602002602001604051908101604052809291908181526020018280548015611a7657602002820191906000526020600020905b8160009054906101000a900473ffffffffffffffffffffffffffffffffffffffff1673ffffffffffffffffffffffffffffffffffffffff1681526020019060010190808311611a2c575b50505050509150815167ffffffffffffffff811115611a9857611a97613a48565b5b604051908082528060200260200182016040528015611ac65781602001602082028036833780820191505090505b50905060005b8251811015611b965760cb60008673ffffffffffffffffffffffffffffffffffffffff1673ffffffffffffffffffffffffffffffffffffffff1681526020019081526020016000206000848381518110611b2957611b286135c2565b5b602002602001015173ffffffffffffffffffffffffffffffffffffffff1673ffffffffffffffffffffffffffffffffffffffff16815260200190815260200160002054828281518110611b7f57611b7e6135c2565b5b602002602001018181525050806001019050611acc565b509193909250565b6000808273ffffffffffffffffffffffffffffffffffffffff163b119050919050565b611bc9612188565b73ffffffffffffffffffffffffffffffffffffffff16611be7611728565b73ffffffffffffffffffffffffffffffffffffffff1614611c3d576040517f08c379a0000000000000000000000000000000000000000000000000000000008152600401611c3490613ac3565b60405180910390fd5b565b6000611c7f83348460405180602001604052806000815250606560009054906101000a900473ffffffffffffffffffffffffffffffffffffffff16612190565b905092915050565b600080611ca38360001b8560000161224f90919063ffffffff16565b915091509250929050565b60606000611cbb8361229e565b9050805167ffffffffffffffff811115611cd857611cd7613a48565b5b604051908082528060200260200182016040528015611d065781602001602082028036833780820191505090505b50915060005b8151811015611d6a57818181518110611d2857611d276135c2565b5b6020026020010151838281518110611d4357611d426135c2565b5b602002602001019063ffffffff16908163ffffffff16815250508080600101915050611d0c565b5050919050565b6000806000611d908463ffffffff166097611c8790919063ffffffff16565b915091508115611da4578092505050611de9565b611dad84612355565b6040517f08c379a0000000000000000000000000000000000000000000000000000000008152600401611de091906130b6565b60405180910390fd5b919050565b60008060008484810190611e029190613c85565b9250925092506000808211905080611e6c578373ffffffffffffffffffffffffffffffffffffffff167f0b863881f3fa0e42d1386f6601c4afdac31fb8f1078e53253bdd429748c32b216000604051611e5b9190613d03565b60405180910390a250505050611fed565b600060cc60008673ffffffffffffffffffffffffffffffffffffffff1673ffffffffffffffffffffffffffffffffffffffff1681526020019081526020016000209050806000016000611ebf91906129ca565b82816001018190555060018160020160006101000a81548160ff02191690831515021790555060005b8451811015611f975781600001858281518110611f0857611f076135c2565b5b6020026020010151908060018154018082558091505060019003906000526020600020906002020160009091909190915060008201518160000160006101000a81548173ffffffffffffffffffffffffffffffffffffffff021916908373ffffffffffffffffffffffffffffffffffffffff160217905550602082015181600101555050806001019050611ee8565b508473ffffffffffffffffffffffffffffffffffffffff167f0b863881f3fa0e42d1386f6601c4afdac31fb8f1078e53253bdd429748c32b216001604051611fdf9190613d03565b60405180910390a250505050505b50505050565b6000612032838360405180602001604052806000815250606560009054906101000a900473ffffffffffffffffffffffffffffffffffffffff1661238c565b905092915050565b6000603360009054906101000a900473ffffffffffffffffffffffffffffffffffffffff16905081603360006101000a81548173ffffffffffffffffffffffffffffffffffffffff021916908373ffffffffffffffffffffffffffffffffffffffff1602179055508173ffffffffffffffffffffffffffffffffffffffff168173ffffffffffffffffffffffffffffffffffffffff167f8be0079c531659141344cd1fd0a4f28419497f9722a3daafe3b4186f6b6457e060405160405180910390a35050565b61211a8163ffffffff16609761244790919063ffffffff16565b61212382612355565b90612164576040517f08c379a000000000000000000000000000000000000000000000000000000000815260040161215b91906130b6565b60405180910390fd5b5050565b6121848263ffffffff1682609761246a9092919063ffffffff16565b5050565b600033905090565b60008061219c87611d71565b90507f000000000000000000000000000000000000000000000000000000000000000073ffffffffffffffffffffffffffffffffffffffff166310b83dc08789848989896040518763ffffffff1660e01b8152600401612200959493929190613d73565b60206040518083038185885af115801561221e573d6000803e3d6000fd5b50505050506040513d601f19601f820116820180604052508101906122439190613de9565b91505095945050505050565b60008060008460020160008581526020019081526020016000205490506000801b810361228e57612280858561248b565b6000801b9250925050612297565b60018192509250505b9250929050565b606060006122ae836000016124ab565b90508067ffffffffffffffff8111156122ca576122c9613a48565b5b6040519080825280602002602001820160405280156122f85781602001602082028036833780820191505090505b50915060005b8181101561234e5761231f81856000016000016124c090919063ffffffff16565b60001c838281518110612335576123346135c2565b5b60200260200101818152505080806001019150506122fe565b5050919050565b60606123668263ffffffff166124d7565b6040516020016123769190613e78565b6040516020818303038152906040529050919050565b60008061239886611d71565b90507f000000000000000000000000000000000000000000000000000000000000000073ffffffffffffffffffffffffffffffffffffffff166381d2ea9587838888886040518663ffffffff1660e01b81526004016123fb959493929190613d73565b602060405180830381865afa158015612418573d6000803e3d6000fd5b505050506040513d601f19601f8201168201806040525081019061243c9190613eb3565b915050949350505050565b60006124628260001b846000016125a590919063ffffffff16565b905092915050565b6124858260001b82856000016125de9092919063ffffffff16565b50505050565b60006124a3828460000161261990919063ffffffff16565b905092915050565b60006124b982600001612630565b9050919050565b60006124cf8360000183612645565b905092915050565b6060600060016124e684612670565b01905060008167ffffffffffffffff81111561250557612504613a48565b5b6040519080825280601f01601f1916602001820160405280156125375781602001600182028036833780820191505090505b509050600082602001820190505b60011561259a578080600190039150507f3031323334353637383961626364656600000000000000000000000000000000600a86061a8153600a858161258e5761258d613858565b5b04945060008503612545575b819350505050919050565b6000826002016000838152602001908152602001600020600090556125d682846000016127c390919063ffffffff16565b905092915050565b6000818460020160008581526020019081526020016000208190555061261083856000016127da90919063ffffffff16565b90509392505050565b600061262883600001836127f1565b905092915050565b600061263e82600001612814565b9050919050565b600082600001828154811061265d5761265c6135c2565b5b9060005260206000200154905092915050565b600080600090507a184f03e93ff9f4daa797ed6e38ed64bf6a1f01000000000000000083106126ce577a184f03e93ff9f4daa797ed6e38ed64bf6a1f01000000000000000083816126c4576126c3613858565b5b0492506040810190505b6d04ee2d6d415b85acef8100000000831061270b576d04ee2d6d415b85acef8100000000838161270157612700613858565b5b0492506020810190505b662386f26fc10000831061273a57662386f26fc1000083816127305761272f613858565b5b0492506010810190505b6305f5e1008310612763576305f5e100838161275957612758613858565b5b0492506008810190505b612710831061278857612710838161277e5761277d613858565b5b0492506004810190505b606483106127ab57606483816127a1576127a0613858565b5b0492506002810190505b600a83106127ba576001810190505b80915050919050565b60006127d28360000183612825565b905092915050565b60006127e98360000183612939565b905092915050565b600080836001016000848152602001908152602001600020541415905092915050565b600081600001805490509050919050565b6000808360010160008481526020019081526020016000205490506000811461292d5760006001826128579190613ee0565b905060006001866000018054905061286f9190613ee0565b90508181146128de5760008660000182815481106128905761288f6135c2565b5b90600052602060002001549050808760000184815481106128b4576128b36135c2565b5b90600052602060002001819055508387600101600083815260200190815260200160002081905550505b856000018054806128f2576128f1613f14565b5b600190038181906000526020600020016000905590558560010160008681526020019081526020016000206000905560019350505050612933565b60009150505b92915050565b600061294583836127f1565b61299e5782600001829080600181540180825580915050600190039060005260206000200160009091909190915055826000018054905083600101600084815260200190815260200160002081905550600190506129a3565b600090505b92915050565b50805460008255906000526020600020908101906129c791906129ee565b50565b50805460008255600202906000526020600020908101906129eb9190612a0b565b50565b5b80821115612a075760008160009055506001016129ef565b5090565b5b80821115612a4d57600080820160006101000a81549073ffffffffffffffffffffffffffffffffffffffff0219169055600182016000905550600201612a0c565b5090565b6000819050919050565b7f4e487b7100000000000000000000000000000000000000000000000000000000600052601160045260246000fd5b6000612a9582612a51565b9150612aa083612a51565b9250828201905080821115612ab857612ab7612a5b565b5b92915050565b6000604051905090565b600080fd5b600080fd5b600073ffffffffffffffffffffffffffffffffffffffff82169050919050565b6000612afd82612ad2565b9050919050565b612b0d81612af2565b8114612b1857600080fd5b50565b600081359050612b2a81612b04565b92915050565b600060208284031215612b4657612b45612ac8565b5b6000612b5484828501612b1b565b91505092915050565b612b6681612a51565b82525050565b6000602082019050612b816000830184612b5d565b92915050565b600063ffffffff82169050919050565b612ba081612b87565b8114612bab57600080fd5b50565b600081359050612bbd81612b97565b92915050565b600060208284031215612bd957612bd8612ac8565b5b6000612be784828501612bae565b91505092915050565b6000819050919050565b612c0381612bf0565b82525050565b6000602082019050612c1e6000830184612bfa565b92915050565b612c2d81612a51565b8114612c3857600080fd5b50565b600081359050612c4a81612c24565b92915050565b60008060408385031215612c6757612c66612ac8565b5b6000612c7585828601612b1b565b9250506020612c8685828601612c3b565b9150509250929050565b600081519050919050565b600082825260208201905092915050565b6000819050602082019050919050565b612cc581612b87565b82525050565b6000612cd78383612cbc565b60208301905092915050565b6000602082019050919050565b6000612cfb82612c90565b612d058185612c9b565b9350612d1083612cac565b8060005b83811015612d41578151612d288882612ccb565b9750612d3383612ce3565b925050600181019050612d14565b5085935050505092915050565b60006020820190508181036000830152612d688184612cf0565b905092915050565b60008060408385031215612d8757612d86612ac8565b5b6000612d9585828601612b1b565b9250506020612da685828601612b1b565b9150509250929050565b612db981612b87565b82525050565b6000602082019050612dd46000830184612db0565b92915050565b612de381612bf0565b8114612dee57600080fd5b50565b600081359050612e0081612dda565b92915050565b600080fd5b600080fd5b600080fd5b60008083601f840112612e2b57612e2a612e06565b5b8235905067ffffffffffffffff811115612e4857612e47612e0b565b5b602083019150836001820283011115612e6457612e63612e10565b5b9250929050565b60008060008060608587031215612e8557612e84612ac8565b5b6000612e9387828801612bae565b9450506020612ea487828801612df1565b935050604085013567ffffffffffffffff811115612ec557612ec4612acd565b5b612ed187828801612e15565b925092505092959194509250565b60008083601f840112612ef557612ef4612e06565b5b8235905067ffffffffffffffff811115612f1257612f11612e0b565b5b602083019150836020820283011115612f2e57612f2d612e10565b5b9250929050565b60008060208385031215612f4c57612f4b612ac8565b5b600083013567ffffffffffffffff811115612f6a57612f69612acd565b5b612f7685828601612edf565b92509250509250929050565b6000819050919050565b6000612fa7612fa2612f9d84612ad2565b612f82565b612ad2565b9050919050565b6000612fb982612f8c565b9050919050565b6000612fcb82612fae565b9050919050565b612fdb81612fc0565b82525050565b6000602082019050612ff66000830184612fd2565b92915050565b61300581612af2565b82525050565b60006020820190506130206000830184612ffc565b92915050565b600081519050919050565b600082825260208201905092915050565b60005b83811015613060578082015181840152602081019050613045565b60008484015250505050565b6000601f19601f8301169050919050565b600061308882613026565b6130928185613031565b93506130a2818560208601613042565b6130ab8161306c565b840191505092915050565b600060208201905081810360008301526130d0818461307d565b905092915050565b600080604083850312156130ef576130ee612ac8565b5b60006130fd85828601612bae565b925050602061310e85828601612df1565b9150509250929050565b600061312382612fae565b9050919050565b61313381613118565b82525050565b600060208201905061314e600083018461312a565b92915050565b600061315f82612fae565b9050919050565b61316f81613154565b82525050565b600060208201905061318a6000830184613166565b92915050565b60008083601f8401126131a6576131a5612e06565b5b8235905067ffffffffffffffff8111156131c3576131c2612e0b565b5b6020830191508360208202830111156131df576131de612e10565b5b9250929050565b60008060008060408587031215613200576131ff612ac8565b5b600085013567ffffffffffffffff81111561321e5761321d612acd565b5b61322a87828801612edf565b9450945050602085013567ffffffffffffffff81111561324d5761324c612acd565b5b61325987828801613190565b925092505092959194509250565b600081519050919050565b600082825260208201905092915050565b6000819050602082019050919050565b61329c81612af2565b82525050565b60006132ae8383613293565b60208301905092915050565b6000602082019050919050565b60006132d282613267565b6132dc8185613272565b93506132e783613283565b8060005b838110156133185781516132ff88826132a2565b975061330a836132ba565b9250506001810190506132eb565b5085935050505092915050565b600081519050919050565b600082825260208201905092915050565b6000819050602082019050919050565b61335a81612a51565b82525050565b600061336c8383613351565b60208301905092915050565b6000602082019050919050565b600061339082613325565b61339a8185613330565b93506133a583613341565b8060005b838110156133d65781516133bd8882613360565b97506133c883613378565b9250506001810190506133a9565b5085935050505092915050565b60006060820190506133f86000830186612b5d565b818103602083015261340a81856132c7565b9050818103604083015261341e8184613385565b9050949350505050565b7f4d61696c626f78436c69656e743a20696e76616c696420636f6e74726163742060008201527f73657474696e6700000000000000000000000000000000000000000000000000602082015250565b6000613484602783613031565b915061348f82613428565b604082019050919050565b600060208201905081810360008301526134b381613477565b9050919050565b60006060820190506134cf6000830186612ffc565b6134dc6020830185612ffc565b6134e96040830184612b5d565b949350505050565b60008115159050919050565b613506816134f1565b811461351157600080fd5b50565b600081519050613523816134fd565b92915050565b60006020828403121561353f5761353e612ac8565b5b600061354d84828501613514565b91505092915050565b7f5472616e73666572206661696c65640000000000000000000000000000000000600082015250565b600061358c600f83613031565b915061359782613556565b602082019050919050565b600060208201905081810360008301526135bb8161357f565b9050919050565b7f4e487b7100000000000000000000000000000000000000000000000000000000600052603260045260246000fd5b60006040820190506136066000830185612ffc565b6136136020830184612b5d565b9392505050565b7f546f6b656e207472616e73666572206661696c65640000000000000000000000600082015250565b6000613650601583613031565b915061365b8261361a565b602082019050919050565b6000602082019050818103600083015261367f81613643565b9050919050565b7f4d61696c626f78436c69656e743a2073656e646572206e6f74206d61696c626f60008201527f7800000000000000000000000000000000000000000000000000000000000000602082015250565b60006136e2602183613031565b91506136ed82613686565b604082019050919050565b60006020820190508181036000830152613711816136d5565b9050919050565b7f456e726f6c6c656420726f7574657220646f6573206e6f74206d61746368207360008201527f656e646572000000000000000000000000000000000000000000000000000000602082015250565b6000613774602583613031565b915061377f82613718565b604082019050919050565b600060208201905081810360008301526137a381613767565b9050919050565b7f57696c6c206e6f742079657420617661696c61626c6500000000000000000000600082015250565b60006137e0601683613031565b91506137eb826137aa565b602082019050919050565b6000602082019050818103600083015261380f816137d3565b9050919050565b600061382182612a51565b915061382c83612a51565b925082820261383a81612a51565b9150828204841483151761385157613850612a5b565b5b5092915050565b7f4e487b7100000000000000000000000000000000000000000000000000000000600052601260045260246000fd5b600061389282612a51565b915061389d83612a51565b9250826138ad576138ac613858565b5b828204905092915050565b7f5661756c743a20656e726f6c6c52656d6f7465526f757465722069732064697360008201527f61626c6564000000000000000000000000000000000000000000000000000000602082015250565b6000613914602583613031565b915061391f826138b8565b604082019050919050565b6000602082019050818103600083015261394381613907565b9050919050565b7f216c656e67746800000000000000000000000000000000000000000000000000600082015250565b6000613980600783613031565b915061398b8261394a565b602082019050919050565b600060208201905081810360008301526139af81613973565b9050919050565b7f4f776e61626c653a206e6577206f776e657220697320746865207a65726f206160008201527f6464726573730000000000000000000000000000000000000000000000000000602082015250565b6000613a12602683613031565b9150613a1d826139b6565b604082019050919050565b60006020820190508181036000830152613a4181613a05565b9050919050565b7f4e487b7100000000000000000000000000000000000000000000000000000000600052604160045260246000fd5b7f4f776e61626c653a2063616c6c6572206973206e6f7420746865206f776e6572600082015250565b6000613aad602083613031565b9150613ab882613a77565b602082019050919050565b60006020820190508181036000830152613adc81613aa0565b9050919050565b6000613aee82612ad2565b9050919050565b613afe81613ae3565b8114613b0957600080fd5b50565b600081359050613b1b81613af5565b92915050565b613b2a8261306c565b810181811067ffffffffffffffff82111715613b4957613b48613a48565b5b80604052505050565b6000613b5c612abe565b9050613b688282613b21565b919050565b600067ffffffffffffffff821115613b8857613b87613a48565b5b602082029050602081019050919050565b600080fd5b600060408284031215613bb457613bb3613b99565b5b613bbe6040613b52565b90506000613bce84828501612b1b565b6000830152506020613be284828501612c3b565b60208301525092915050565b6000613c01613bfc84613b6d565b613b52565b90508083825260208201905060408402830185811115613c2457613c23612e10565b5b835b81811015613c4d5780613c398882613b9e565b845260208401935050604081019050613c26565b5050509392505050565b600082601f830112613c6c57613c6b612e06565b5b8135613c7c848260208601613bee565b91505092915050565b600080600060608486031215613c9e57613c9d612ac8565b5b6000613cac86828701613b0c565b935050602084013567ffffffffffffffff811115613ccd57613ccc612acd565b5b613cd986828701613c57565b9250506040613cea86828701612c3b565b9150509250925092565b613cfd816134f1565b82525050565b6000602082019050613d186000830184613cf4565b92915050565b600081519050919050565b600082825260208201905092915050565b6000613d4582613d1e565b613d4f8185613d29565b9350613d5f818560208601613042565b613d688161306c565b840191505092915050565b600060a082019050613d886000830188612db0565b613d956020830187612bfa565b8181036040830152613da78186613d3a565b90508181036060830152613dbb8185613d3a565b9050613dca6080830184612fd2565b9695505050505050565b600081519050613de381612dda565b92915050565b600060208284031215613dff57613dfe612ac8565b5b6000613e0d84828501613dd4565b91505092915050565b7f4e6f20726f7574657220656e726f6c6c656420666f7220646f6d61696e3a2000815250565b600081905092915050565b6000613e5282613026565b613e5c8185613e3c565b9350613e6c818560208601613042565b80840191505092915050565b6000613e8382613e16565b601f82019150613e938284613e47565b915081905092915050565b600081519050613ead81612c24565b92915050565b600060208284031215613ec957613ec8612ac8565b5b6000613ed784828501613e9e565b91505092915050565b6000613eeb82612a51565b9150613ef683612a51565b9250828203905081811115613f0e57613f0d612a5b565b5b92915050565b7f4e487b7100000000000000000000000000000000000000000000000000000000600052603160045260246000fdfea2646970667358221220a0eea0c7fb4f56d27b250703a6df77367d6ce72316d3839471a0c17d191cae7664736f6c634300081c0033",
  "linkReferences": {},
  "deployedLinkReferences": {}
}